:100000000C9474000C949C000C949C000C949C0028
:100010000C949C000C949C000C949C000C949C00F0
:100020000C949C000C949C000C94232E0C940B2A92
:100030000C949C000C94B2280C948C280C949C007A
:100040000C949C000C949C000C949C000C94552ADD
:100050000C949C000101040119011C012D013001C7
:10006000410144015501580100003A0037003400B5
:10007000310000003B00380035003200000039003C
:1000800036003300300002020202020202020404BF
:10009000040404040404030303030303030301012E
:1000A0000101010101010102040810204080010248
:1000B0000408102040800102040810204080804085
:1000C00020100804020100000001000000000000F0
:1000D0000000040300060000000000000000000013
:1000E000000000000000813711241FBECFE5D8E0DA
:1000F000DEBFCDBF14E0A0E6B0E0EEE9F6E702C057
:1001000005900D92A039B107D9F726E0A0E9B4E037
:1001100001C01D92A93DB207E1F710E0C4E7D0E0AD
:1001200004C02197FE010E944F38C337D107C9F799
:100130000E94582F0C944D3B0C9400002F923F923C
:100140004F925F926F927F928F929F92AF92BF92E7
:10015000CF92DF92EF92FF920F931F93CF93DF9393
:10016000CDB7DEB7CB58D1090FB6F894DEBF0FBEBE
:10017000CDBF86E1E1E6F0E0DE01AA59BF4F019074
:100180000D928A95E1F766E970E080E090E00E94C8
:10019000D12960E070E080E090E00E944F1460E0C0
:1001A00080E00E940D297BE0272E312C80EB96E029
:1001B0000E94032C0E94EA1D843019F42FEF221AAA
:1001C000320A37FE03C069E0262E312C0E94EA1D58
:1001D000853019F431E0231A31088AE028163104F9
:1001E00014F0212C312C80EB96E00E94032C9AE035
:1001F0002916310408F072C0F101E65DFF4F0C943E
:100200004F3860E070E002C061E070E080E090E0B4
:100210000E94E31D21E030E0C757DF4F3983288378
:10022000C958D040C957DF4F19821882C758D040EB
:1002300055C060E070E002C061E070E080E090E0F6
:100240000E94E31D23E030E0C757DF4F3983288346
:10025000C958D04022E030E03BC060E070E002C00E
:1002600061E070E080E090E00E94E31D25E030E076
:10027000C757DF4F39832883C958D04024E030E086
:1002800027C060E070E002C061E070E080E090E0D4
:100290000E94E31D27E030E0C757DF4F39832883F2
:1002A000C958D04026E030E013C060E070E002C0E2
:1002B00061E070E080E090E00E94E31D29E030E022
:1002C000C757DF4F39832883C958D04028E030E032
:1002D000C957DF4F39832883C758D04060E081E099
:1002E0000E943E2DC957DF4FE881F981C758D040A1
:1002F000EE0FFF1F86E690E08C0F9D1FE80FF91FA1
:10030000808191810E940C2D61E081E00E943E2D50
:10031000C757DF4FE881F981C958D040EE0FFF1F62
:10032000A6E6B0E0AC0FBD1FEA0FFB1F80819181F4
:100330000E940C2DB1E02B16310459F40E94EA1DE5
:10034000863009F4FCC30E94EA1D833009F0E9C03D
:10035000F6C32114310459F40E94EA1D863009F4D1
:1003600042C50E94EA1D833009F0A9C03CC522E0C5
:100370002216310409F0A3C00E94EA1D863009F458
:100380000CC60E94EA1D833009F0CBC006C6B3E05C
:10039000CB16D10409F431C4E6E0CE16D10409F439
:1003A00032C4EE24E394F12CF1E0CF16D10409F02D
:1003B00035C462E370E080E090E00E94D129AA9405
:1003C000AB2809F42FC45092CB064092CA06AA2447
:1003D000A394B12C33E08316910409F02EC4E12CD0
:1003E000F12C812C912C17FF30C4E12CF12C03E669
:1003F00010E060E080E00E943E2D80E591E00E94E8
:100400000C2DC8010E940E2D8114910409F426C4FC
:1004100021E08216910409F461C460E070E088E094
:1004200090E00E94B41D60E089E00E943E2D86E5C8
:1004300091E00E940C2D80910A05B801F5E68F022B
:10044000600D711D11248091FD0490E00E94361C06
:100450000E94052D61E081E00E943E2D8BE591E038
:100460000E940C2D809133050E94052D61E089E0EA
:100470000E943E2D8FE591E00E940C2D8091320567
:100480000E94052D23E0C216D10409F077C431E0A3
:10049000A316B10409F45EC464E670E080E090E065
:1004A0000E94D12982E0C816D10409F069C31092D4
:1004B000CB061092CA0660E080E00E940D2983E01E
:1004C0002816310471F50E94EA1D863009F4EBC646
:1004D0000E94EA1D833009F024C1E5C694E0E916C4
:1004E000F10409F037C564E070E0C8010E9473228E
:1004F00068EC70E080E090E00E94D1290E94EA1D43
:10050000823009F08CC460912D0584E390E00E9454
:100510000B2C1092CB061092CA0660E080E00E947D
:100520000D2984E02816310409F0FBC00E94EA1D61
:10053000863011F40C94840B0E94EA1D833009F07C
:100540001AC10C94840B64E670E080E090E00E9495
:10055000D1290E94EA1DE82EF12C31E0E316F104C6
:1005600009F445C580910105B80195E68902600D41
:10057000711D11248091FD0490E00E94361CC55726
:10058000DF4F8883CB58D040823009F43AC5C55735
:10059000DF4F2881CB58D040233009F459C5C557C7
:1005A000DF4F2881CB58D040253009F476C5C55798
:1005B000DF4F2881CB58D040263009F092C5CA942D
:1005C000CD28E1F480910505B80195E68902600D1A
:1005D000711D11248091FD0490E00E94361CA82E0C
:1005E00080910605B801A5E68A02600D711D1124EF
:1005F0008091FD0490E00E94361CB82E4A2C512CAC
:100600005194419451086B2C712C71946194710830
:10061000C12CD12C8114910409F0D9C585E0E816CC
:10062000F10409F4D8C594E0E916F10409F4B7C55A
:10063000B3E0EB16F10409F0B7C5E5E0AE0E80912A
:100640000505B801F5E68F02600D711D112480913A
:10065000FD044A2D90E00E94821D80EB96E00E94EE
:10066000032C60E080E00E943E2D1F930F93A4E6D0
:10067000B1E0BF93AF93ABEDB4E0BF93AF930E94F3
:1006800075388BED94E00E940C2DCE010196C55774
:10069000DF4F2881CB58D040820F911D820F911DD2
:1006A000FC013297808191810E940C2D61E081E0F4
:1006B0000E943E2D0F900F900F900F900F900F9073
:1006C00031E08316910409F0C4C57F926F925F9266
:1006D0004F92AFE6B1E0BF93AF93ABEDB4E0BF9301
:1006E000AF930E9475388BED94E00E940C2D61E071
:1006F00070E088E090E00E94E31D0FB6F894DEBF42
:100700000FBECDBF32E0E316F10409F01CCF80EB41
:1007100096E00E94032C60E570E080E090E00E948B
:10072000D129F5E02F16310431F50E94EA1D8630FB
:1007300011F40C94250C0E94EA1D833009F057C077
:100740000C94250C0F5F1F4FE2E0CE0ED11CA012BF
:1007500071C680EB96E00E94032C60E080E00E946E
:100760003E2D8DE991E00E940C2D68EC70E080E058
:1007700090E00E94D12926E022163104C1F50E94A2
:10078000EA1D863011F40C943A0D0E94EA1D833064
:1007900009F0E3C00C943A0D0430110509F0CDC7FF
:1007A00068EE73E080E090E00E94D12980EB96E053
:1007B0000E94032C10E061E0812F0E943E2D6FEF1C
:1007C00080EB96E00E94FA2B6CE370E080E090E012
:1007D0000E94D1291F5F103171F7109216051092F7
:1007E000CB061092CA0660E080E00E940D29B7E0B7
:1007F0002B16310409F0B1C00E94EA1D863011F4B5
:100800000C94600D0E94EA1D833009F011C10C9414
:10081000600DC12CD12C01E010E093E6B92EAA2482
:10082000AA940E94EA1DE82EF12C21E0E216F104C0
:1008300011F00C946B0CCA94CD2811F00C94700C30
:1008400080EB96E00E94032C60E080E00E943E2D49
:100850008EEB91E00E940C2DC8010E940E2D60E0ED
:1008600070E086E090E00E94E31D60E087E00E9477
:100870003E2D82EC91E00E940C2DCC24C394D12C0F
:10088000CC0EDD1EC00ED11ED6019C90892D092CE8
:10089000000C990B0E940E2D61E087E00E943E2D16
:1008A00089EC91E00E940C2DECE7F0E0EC0FFD1FCD
:1008B000E00FF11F8081082E000C990B0E940E2D75
:1008C000B5E0EB16F10411F00C94FC0C0F5F1F4F18
:1008D0000B30110514F00C94320DE1E0F0E0EC0F58
:1008E000FD1FE00FF11F90818091600089176CF46B
:1008F000108280910E05082E000C990B60E0800F8D
:10090000911D07FD9A950E940B2CE1E0F0E0EC0FA1
:10091000FD1FE00FF11F808187FF0DC0B082809125
:100920000E05082E000C990B63E6800F911D07FD44
:100930009A950E940B2CC12CD12CF2E0EF16F104F9
:1009400011F00C94250D80EB96E00E94032C68ECCE
:1009500070E080E090E00E94D129A8E02A163104DE
:1009600009F066C00E94EA1D863011F40C94C70D90
:100970000E94EA1D833009F0AAC00C94C70D0F5FD6
:100980001F4F0B30110514F00C94580D64E670E005
:1009900080E090E00E94D12980EB96E00E94032C39
:1009A0000E94EA1DE82EF12C60E080E00E943E2DBE
:1009B00080ED91E00E940C2DC8010E940E2D33E0C5
:1009C000E316F104E1F286E0E816F10411F40C9468
:1009D000500D92E0E916F104C9F6F02E0093FE04E2
:1009E0000E941226B0E0CB2EB5E0DB2E02E110E033
:1009F000D6016D916D01C8010E940B2C0F5F1F4F36
:100A000002321105A9F7F092FD046F2D83E390E007
:100A10000E940B2C1092FF041092FE0480EB96E0D3
:100A20000E94032C60E570E080E090E00E94D129F4
:100A300039E02316310409F04AC00E94EA1D8630CD
:100A400011F40C94F0110E94EA1D833009F03FC0AC
:100A50000C94F011F4E0EF16F10411F00C94E6138D
:100A60000150110964E670E080E090E00E94D12915
:100A70000E30110514F00C94EB130F3F2FEF1207FB
:100A800011F40DE010E033E0E316F10411F00C94E2
:100A9000BA0DF801E555FB4F80818F5F808364E6D6
:100AA00070E080E090E00E94D12992E0E916F10424
:100AB00011F00C946C0D80EB96E00E94032C0E94C8
:100AC0001F1C6CE271E080E090E00E94D12966E991
:100AD00070E080E090E00E94D1290E94EA1D8230FF
:100AE00009F064CB80EB96E00E94032C64E670E092
:100AF00080E090E00E94D1291092FC0460E080E048
:100B00000E940D2980EB96E0C557DF4F0FB6F89491
:100B1000DEBF0FBECDBFDF91CF911F910F91FF9030
:100B2000EF90DF90CF90BF90AF909F908F907F908D
:100B30006F905F904F903F902F900C94032C62E346
:100B400070E080E090E00E94D12980EB96E00E9466
:100B5000032C8FE08093160564E670E080E090E05F
:100B60000E94D129612C712CA12CB12CE12CF12CEB
:100B700000E010E052E0852E912C44244394512C47
:100B80000E94EA1DC82ED12C80EB96E00E94032C17
:100B9000E2E08E16910411F4EF28F1F4809108053B
:100BA000B801F5E68F02600D711D11248091FD04DE
:100BB00090E00E94361C8093330580910905B801AE
:100BC00025E68202600D711D11248091FD0490E0E4
:100BD0000E94361C8093320535E0C316D10421F4FF
:100BE0008FEF881A980A14C094E0C916D10409F04E
:100BF000CECBA1E08A1A91080BC0A114B10459F41C
:100C00000F5F1F4F05C0A114B10429F40150110951
:100C1000E12CF12C03C0EE24E394F12CAA94AB2830
:100C200009F4D1CB1092CB061092CA0660E080E0A6
:100C30000E940D29A12CB12CCDCB97FED4CBE12C59
:100C4000F12C92E0892E912CCECB043611050CF4B8
:100C5000D0CBE12CF12C00E010E0CBCB61E070E0D8
:100C600080E090E00E94B41D83E0C816D104A1F496
:100C700091E0A916B10411F00C948A134091330548
:100C80004F5F4093330580910805B801A5E68A02BD
:100C9000600D711D112419C0B6E0CB16D10411F0FE
:100CA0000C948A13E1E0AE16B10411F00C948A138F
:100CB0004091330541504093330580910805B801B8
:100CC000F5E68F02600D711D11248091FD0490E006
:100CD0000E94821DE12CF12C0C948A1361E070E0DB
:100CE00088E090E00E94B41D33E0C316D10499F46B
:100CF00081E0A816B10409F064C0409132054F5F4D
:100D00004093320580910905B80195E68902600D8E
:100D1000711D112417C0A6E0CA16D10409F051C0F4
:100D2000B1E0AB16B10409F04CC04091320541501E
:100D30004093320580910905B801E5E68E02600D09
:100D4000711D11248091FD0490E00E94821DE12C10
:100D5000F12C37C085E0680E711C9FEF6916710495
:100D600021F01CF085E0682E712C80910A05B801F5
:100D7000A5E68A02600D711D11241CC0B6E0CB16D9
:100D8000D10409F089CBE1E0AE16B10409F084CBBF
:100D9000F5E06F1A710825E0621671041CF46624F0
:100DA0006A94712C80910A05B80135E68302600DC2
:100DB000711D11248091FD04462D90E00E94821D3A
:100DC0006BCB60E089E00E943E2D86E591E00E94B9
:100DD0000C2D80910A05B801E5E68E02600D711DAB
:100DE00011240C949A1362E370E080E090E00E947A
:100DF000D12980EB96E00E94032C8FE080931605AA
:100E00006CE271E080E090E00E94D129C12CD12CED
:100E1000E12CF12C00E010E0AA24A394B12C0E9454
:100E2000EA1D853039F48091CA069091CB06892B52
:100E300009F44CC00E94EA1D843039F48091CA063E
:100E40009091CB06892B09F445C099E0E916F1048D
:100E50000CF048C0AFEFEA16FA0619F4A8E0EA2E43
:100E6000F12C0E94EA1D813021F4CA94CD2861F052
:100E700003C0CA94CD2841F4B092CB06A092CA0612
:100E8000CC24C394D12C0AC01092CB061092CA066F
:100E900060E080E00E940D29C12CD12C0E94EA1D47
:100EA000833031F48091CA069091CB06892BE9F00A
:100EB0000E94EA1D863011F00C94BB138091CA0683
:100EC0009091CB06892BA1F00C94BB13F1E0EF1AA3
:100ED000F108B0CF2FEFE21AF20A39E0E316F1047D
:100EE0000CF4BFCFE12CF12CBCCF0F5F1F4FE0CF34
:100EF000015011090436110514F00C94C0130F3F72
:100F0000FFEF1F0711F403E610E0E114F10419F4F8
:100F100060E070E006C021E0E216F10431F461E027
:100F200070E0C8010E94832315C032E0E316F1048B
:100F300031F462E070E0C8010E94832312C083E0B4
:100F4000E816F10409F0CACA63E070E0C8010E9423
:100F5000732211C0A5E0EA16F10419F465E070E00F
:100F600006C0B6E0EB16F10431F466E070E0C801AB
:100F70000E943A21BDCAE7E0EE16F10419F467E0D9
:100F800070E007C0F8E0EF16F10409F0B1CA68E0BC
:100F900070E0C8010E94201FABCA62E370E080E0ED
:100FA00090E00E94D12980EB96E00E94032C84E11E
:100FB000E7E7F0E0DE01119601900D928A95E1F7E6
:100FC00084E68093600068EC70E080E090E00E942E
:100FD000D129B12CA12C612C712C412C512CCC2469
:100FE000C394D12C812C912C01E010E0B2CA8A94D8
:100FF000892821F088248394912CB4CA812C912CC7
:10100000B1CACA94CD28E1F480910505B801B5E6CE
:101010008B02600D711D11248091FD0490E00E94EF
:10102000361CA82E80910605B801E5E68E02600DFB
:10103000711D11248091FD0490E00E94361CB82E91
:101040004B2C512C6A2C712C71946194710875C0D1
:10105000CA94CD28E1F480910505B80195E689028E
:10106000600D711D11248091FD0490E00E94361CDA
:10107000A82E80910605B801A5E68A02600D711DB3
:1010800011248091FD0490E00E94361CB82E4A2C59
:10109000512C51944194510821C0CA94CD28E1F4B7
:1010A00080910505B80195E68902600D711D112436
:1010B0008091FD0490E00E94361CA82E80910605C8
:1010C000B801A5E68A02600D711D11248091FD040E
:1010D00090E00E94361CB82E4A2C512C6B2C712C9F
:1010E0002CC0C557DF4F2881CB58D040213011F09C
:1010F000273029F5CA94CD28E1F480910505B8017F
:1011000095E68902600D711D11248091FD0490E027
:101110000E94361CA82E80910605B801A5E68A0219
:10112000600D711D11248091FD0490E00E94361C19
:10113000B82E612C712C412C512CC12CD12CC557AF
:10114000DF4F2881CB58D0408114910409F03CC076
:10115000223009F063CA35E0E316F10409F43BC01C
:1011600084E0E816F10429F40150110908F097C051
:1011700048C0A3E0EA16F10411F4B5E05DC0F6E062
:10118000EF16F10409F069CA2BEFB20E8091060543
:10119000B80135E68302600D711D112456C001505F
:1011A000110908F07CC02DC026E0E216F10409F018
:1011B00054CA3BEFA30E80910505B80195E689025C
:1011C000600D711D112443CA223009F459C0B5E0E5
:1011D000EB16F10471F40F5F1F4F80916000082E31
:1011E000000C990B801791070CF059C001E010E03A
:1011F00056C0E4E0EE16F10451F40150110908F074
:101200004EC000916000002E000C110B48C023E07E
:10121000E216F10459F435E0B30E80910605B801E9
:1012200095E68902600D711D11240FC0A6E0EA1633
:10123000F10409F012CABBEFBB0E80910605B8019C
:10124000E5E68E02600D711D11248091FD044B2D89
:1012500001CA7F926F925F924F92AFE6B1E0BF9367
:10126000AF93ABEDB4E0BF93AF930E9475388BEDB5
:1012700094E00E940C2D61E070E080E090E03BCAB9
:10128000A5E0EA16F10409F4A6CFB4E0EB16F104E8
:1012900011F00C94C4130150110908F4B2CFCC24FE
:1012A000C394D12CDAC962E370E080E090E00E9440
:1012B000D12980EB96E00E94032C81E08093930477
:1012C0008093920484E680936000C12CD12C01E0CD
:1012D00010E00E94EA1DE82EF12C91E0E916F104DD
:1012E00009F017C1CA94CD2809F016C180EB96E029
:1012F0000E94032C40916000842F042E000C990B57
:101300002091930430E0821793073CF421E020936E
:101310009304801791079CF005C08017910714F47F
:1013200001E010E080919304282F30E002171307AA
:101330000CF48901811105C04093930402C001E0BF
:1013400010E080919304B3E0EB16F10411F48F5F89
:1013500005C0E6E0EE16F10421F481508093930479
:101360000DC0F5E0EF16F10419F40F5F1F4F06C032
:1013700024E0E216F10411F4015011098091930464
:1013800090E00817190729F08FEF800F80939204DF
:1013900002C00093920460E081E00E943E2D80E84C
:1013A00091E00E940C2D809193040E94052D85E808
:1013B00091E00E940C2DC8010E940E2D60E070E0AB
:1013C00080E090E00E94E31D61E081E00E943E2DFC
:1013D0008BE891E00E940C2D809193040E94052DD2
:1013E00085E891E00E940C2DC8010E940E2D64E654
:1013F00070E080E090E00E94D12932E0E316F10431
:1014000009F07EC080EB96E00E94032C60E080E053
:101410000E943E2D80E991E00E940C2D85E680938C
:1014200060006BEBC62E64E0D62E00E015E07DE098
:10143000A72EA00EB09093049090920493941092D3
:10144000DA04E090DA04F12CE5E6EE16F104D4F4C7
:10145000D8018C91B701B5E68B02600D711D112486
:101460008091FD0490E00E94361CE1E0F0E0EC0F7A
:10147000FD1FEE0DFF1D80838091DA048F5F809346
:10148000DA04DFCFB092DA048091DA048915A8F487
:10149000D8016C91B5E66B02B0011124680F711D83
:1014A0008091FD04F601408190E00E94821D8091B0
:1014B000DA048F5F8093DA04E7CF9092DA046091C8
:1014C000DA0470E0653671050CF03CC9D8018C91E6
:1014D000E1E0F0E0EC0FFD1FEB0DF11DB5E68B0236
:1014E000600D711D11248091FD04408190E00E94E7
:1014F000821DB3948091DA048F5F8093DA04DFCF8A
:1015000064E670E080E090E00E94D129C12CD12CEB
:10151000F4C0CD2809F4EACE40916000842F042E57
:10152000000C990B2091930430E0821793073CF450
:1015300021E020939304801791079CF005C0801749
:10154000910714F401E010E080919304282F30E01B
:10155000021713070CF48901811105C0409393040D
:1015600002C001E010E0F3E0EF16F10421F48091F5
:1015700093048F5F07C026E0E216F10431F48091F6
:1015800093048150809393040DC035E0E316F10479
:1015900019F40F5F1F4F06C084E0E816F10411F440
:1015A0000150110980EB96E00E94032C00939204F5
:1015B00060E081E00E943E2D80E891E00E940C2DC9
:1015C000809193040E94052D85E891E00E940C2DE6
:1015D000C8010E940E2D61E081E00E943E2D8BE843
:1015E00091E00E940C2D809193040E94052D85E8C6
:1015F00091E00E940C2DC8010E940E2D61E070E068
:1016000080E090E00E94E31D64E670E080E090E0FE
:101610000E94D12992E0E916F10409F065C080EB3F
:1016200096E00E94032C60E080E00E943E2D80E95D
:1016300091E00E940C2D85E68093600040E0E42E4E
:1016400045E0F42E5DE0D52EDE0CC0909204C394EC
:10165000B09093041092DA040091DA0410E0053699
:101660001105D4F4D7018C91B801B5E68B02600D59
:10167000711D11248091FD0490E00E94361CE1E070
:10168000F0E0EC0FFD1FE00FF11F80838091DA0482
:101690008F5F8093DA04E0CFB092DA046091DA04CD
:1016A00070E065367105D4F4F7018081E1E0F0E087
:1016B000EC0FFD1FEC0DF11D25E68202600D711D82
:1016C00011248091FD04408190E00E94821DC3940A
:1016D0008091DA048F5F8093DA04E0CF3FEFE31A62
:1016E000F30ADE10B2CF35C864E670E080E090E027
:1016F0000E94D129CC24C394D12C64E670E080E010
:1017000090E00E94D129E5CD62E370E080E090E0B6
:101710000E94D12980EB96E00E94032C88E0809300
:10172000160580EB96E00E94032C60E080E00E94AA
:101730003E2D80EB91E00E940C2D0E94EA1D082FA7
:1017400010E061E080E00E943E2D80EA91E00E947E
:101750000C2D0130110509F01FC880EB96E00E94A6
:10176000032C1093CB060093CA062BEBE22E24E049
:10177000F22E00E010E0A12CB12CC80180509B4F4C
:101780006C01D6018C91B501B5E68B02600D711D1F
:1017900011248091FD04F701408190E00E94821D98
:1017A000FFEFAF1ABF0A25E6A216B10451F760E0B9
:1017B00080E00E943E2D80EB91E00E940C2D61E0C4
:1017C000802F0E943E2D6FEF80EB96E00E94FA2B57
:1017D0000F5F1F4F32E0E30EF11C0E30110559F67A
:1017E00061E18CE390E00E940B2C60E18DE390E0DE
:1017F0000E940B2C6FE08EE390E00E940B2C00E027
:1018000010E080910D0560E0D801A80FB11D87FDA3
:10181000BA95CD010E940B2C0F5F1F4F0B301105A5
:1018200081F700E010E080910E0560E0F801E80F1C
:10183000F11D87FDFA95CF010E940B2C0F5F1F4F02
:101840000B30110581F70C94D00362E370E080E067
:1018500090E00E94D12980EB96E00E94032C109228
:10186000DA04C0900D050C2C000CDD081091DA0490
:101870001B3090F4E12EF12CC6018E0D9F1D0E94AD
:101880000D2CECE7F0E0EC0FFD1FEE0DFF1D80834B
:101890001F5F1093DA04EACF1092DA04C0900E05AD
:1018A0000C2C000CDD081091DA041B3010F00C94A5
:1018B0000904E12EF12CC6018E0D9F1D0E940D2CF6
:1018C000E1E0F0E0EC0FFD1FEE0DFF1D80831F5FD8
:1018D0001093DA04E8CFCA94CD2811F00C942004B8
:1018E00080EB96E00E94032C60E080E00E943E2D99
:1018F0008EEB91E00E940C2DC8010E940E2D61E03C
:1019000070E086E090E00E94E31D60E087E00E94C6
:101910003E2D82EC91E00E940C2DE1E0F0E0EC0F16
:10192000FD1FE00FF11F8081082E000C990B0E9413
:101930000E2D61E087E00E943E2D89EC91E00E942F
:101940000C2D8CE7C82ED12CCC0EDD1EC00ED11E66
:10195000D6019C90892D092C000C990B0E940E2D0C
:10196000B5E0EB16F10439F40F5F1F4F0B30110592
:101970000CF03CC024C0E4E0EE16F10421F4015068
:101980001109B9F11CC0F3E0EF16F10429F461E08C
:10199000690DD6016C9308C0B6E0EB16F10479F43A
:1019A000F60160816150608380910D05082E000C66
:1019B000990B800F911D07FD9A950E940B2CECE767
:1019C000F0E0EC0FFD1FE00FF11F808187FF45C0A5
:1019D000A08280910D05082E000C990B6FEF800FEF
:1019E000911D07FD9A950E940B2C37C001E010E075
:1019F000E6CF0AE010E0E3CFF4E0EF16F10429F4BB
:101A00000150110999F10C946D0423E0E216F104E0
:101A100029F461E0690DD6016C930AC0B6E0EB16BB
:101A2000F10411F00C946D04F60160816150608343
:101A300080910E05082E000C990B800F911D07FD5B
:101A40009A950E940B2C0C946D0466E970E080E07E
:101A500090E00E94D1290C941104CC24C394D12C81
:101A60000C949D0401E010E00C946D040AE010E079
:101A70000C946D0462E370E080E090E00E94D12954
:101A800080EB96E00E94032C0091FD0410E084E6B8
:101A90008093600068EC70E080E090E00C94CA04F1
:101AA000015011091016110614F40C94C60404C058
:101AB00001E010E00C94C6040AE010E00C94C604A7
:101AC00062E370E080E090E00E94D12980EB96E034
:101AD0000E94032C00E010E080EB96E00E94032CB3
:101AE0000E94EA1DE82EF12CF801EE0FFF1FE356CD
:101AF000FF4F80810E945F14C82ED12C0730110542
:101B00002CF460E070E081E090E007C00730110540
:101B100031F061E070E080E090E00E944F1461E0FD
:101B200080E00E943E2D81EE93E00E940C2DC801C2
:101B30000E940E2D88ED91E00E940C2DC6010E949E
:101B40000E2D8DED91E00E940C2DF801E555FB4F17
:101B500080810E94052DE5E0EE16F10411F00C9451
:101B60002A050F5F1F4F64E670E080E090E00E945E
:101B7000D1292CC686E0E816F10411F00C944F052B
:101B8000F801E555FB4F808181500C944E0562E3CE
:101B900070E080E090E00E94D12980EB96E00E9406
:101BA000032C109295041092940481E08093FF041A
:101BB0008093FE0466246394712C552453947AE038
:101BC000472EE2EEEE2EE1E0FE2E0BED14E0F5EFF7
:101BD000CF2EF1E0DF2EA4EFAA2EA1E0BA2E0E94B4
:101BE000EA1D882E912CB1E08B16910421F4EFEFC1
:101BF0006E1A7E0A09C0F4E08F16910429F421E0E0
:101C0000621A7108C9F080C5E5E06E1671040CF027
:101C100088C331E06316710409F483C3B2E06B1624
:101C2000710409F494C323E06216710409F4A6C395
:101C3000A4E06A167104C1F480919504B3E08B1698
:101C4000910411F48F5F05C0E6E08E16910419F43B
:101C500081508093950480919504853610F0109200
:101C60009504E4E06E2E712C8091FE048B3010F010
:101C70005092FE048091FE04811102C04092FE0445
:101C80008091FF048B3010F05092FF0480919504F6
:101C9000843610F01092950480919404843610F0EC
:101CA00010929404F1E06F167104F9F480EB96E061
:101CB0000E94032C60E081E00E943E2D8091FF0491
:101CC0001F928F938091FE041F928F93FF92EF9249
:101CD0001F930F930E9475388BED94E00E940C2D9A
:101CE00060E070E080E090E022C032E063167104B2
:101CF00079F580EB96E00E94032C60E081E00E9481
:101D00003E2D8091FF041F928F938091FE041F92BD
:101D10008F93FF92EF921F930F930E9475388BED74
:101D200094E00E940C2D60E070E089E090E00E9459
:101D3000E31D61E080E00E943E2D809195041F929A
:101D40008F93809194041F928F93BF92AF9232C071
:101D500093E069167104B9F580EB96E00E94032CBC
:101D600060E081E00E943E2D8091FF041F928F93DE
:101D70008091FE041F928F93FF92EF921F930F9317
:101D80000E9475388BED94E00E940C2D61E070E0AC
:101D900080E090E00E94E31D61E081E00E943E2D22
:101DA000809195041F928F93809194041F928F933A
:101DB000DF92CF921F930F930E9475388BED94E0C2
:101DC0000E940C2D3AC0B4E06B167104D9F580EB7B
:101DD00096E00E94032C60E081E00E943E2D8091FD
:101DE000FF041F928F938091FE041F928F93FF92A6
:101DF000EF921F930F930E9475388BED94E00E9431
:101E00000C2D61E081E00E943E2D809195041F928F
:101E10008F93809194041F928F93DF92CF921F93A0
:101E20000F930E9475388BED94E00E940C2D61E0B9
:101E300070E089E090E00E94E31D0FB6F894DEBFE9
:101E40000FBECDBF64E670E080E090E00E94D12933
:101E5000F2E08F16910409F0C2CE80EB96E00E946A
:101E6000032C0E94EA1D082F10E061E080E00E9430
:101E70003E2D87E092E00E940C2D0130110531F0DB
:101E80000430110571F7E12CF12C03C0EE24E3942A
:101E9000F12C80EB96E00E94032C60E080E00E9431
:101EA0003E2D80E991E00E940C2D50E0852E55E0FA
:101EB000952EA12CB12CCC24C394D12C80919404C8
:101EC0008093DA049091DA0480919504981708F0D1
:101ED000FFC110929104109290040E941226D40126
:101EE0006C918091DA04B5E66B02B0011124680FA1
:101EF000711D8091FE0490E00E94361C782E082F00
:101F000010E0A114B10409F082C1E1E0EE16F10481
:101F100009F061C201301105A1F4F0929104E09240
:101F200090040E941226609100058091DA04F5E683
:101F30006F02B0011124680F711D8091FF0442E00F
:101F400016C002301105C9F4F0929104E092900499
:101F50000E941226609100058091DA0425E6620253
:101F6000B0011124680F711D8091FF0441E090E0E1
:101F70000E94821D81E090E056C004301105C9F432
:101F8000F0929104E09290040E9412266091000564
:101F90008091DA0435E66302B0011124680F711DE7
:101FA0008091FF0445E090E00E94821D81E090E076
:101FB00056C005301105C9F4F0929104E0929004E6
:101FC0000E941226609100058091DA0495E669026C
:101FD000B0011124680F711D8091FF0444E090E06E
:101FE0000E94821D81E090E056C080E090E00730C2
:101FF0001105C9F4F0929104E09290040E94122617
:10200000609100058091DA04A5E66A02B00111240E
:10201000680F711D8091FF0448E090E00E94821DCE
:1020200081E090E070C008301105C9F4D0929104AD
:10203000C09290040E941226609100058091DA04FB
:10204000B5E66B02B0011124680F711D8091FF0489
:1020500047E090E00E94821D81E090E070C00A306D
:102060001105C9F4D0929104C09290040E941226E6
:10207000609100058091DA04E5E66E02B00111245A
:10208000680F711D8091FF044BE090E00E94821D5B
:1020900081E090E06BC00B301105C9F4D09291043F
:1020A000C09290040E941226609100058091DA048B
:1020B000F5E66F02B0011124680F711D8091FF04D5
:1020C0004AE090E00E94821D81E090E066C00D3001
:1020D0001105C9F4D0929104C09290040E94122676
:1020E000609100058091DA0425E66202B0011124B6
:1020F000680F711D8091FF044EE090E00E94821DE8
:1021000081E090E061C00E301105C9F4D0929104D5
:10211000C09290040E941226609100058091DA041A
:1021200035E66302B0011124680F711D8091FF0430
:102130004DE090E00E94821D81E090E05CC00031A3
:102140001105A1F4D0929104C09290040E9412262D
:10215000609100058091DA0495E66902B0011124CE
:10216000680F711D8091FF0441E132C101311105F9
:10217000A1F4D0929104C09290040E941226609122
:1021800000058091DA04A5E66A02B0011124680F07
:10219000711D8091FF0440E11BC104311105A1F4C0
:1021A000D0929104C09290040E9412266091000582
:1021B0008091DA04B5E66B02B0011124680F711D3D
:1021C0008091FF0445E104C105311105A1F4D092CD
:1021D0009104C09290040E941226609100058091A3
:1021E000DA04E5E66E02B0011124680F711D8091DA
:1021F000FF0444E166C0892B09F0EDC0D092910440
:10220000C09290040E94122660910005D6C021E081
:10221000A216B10481F531E0E316F10409F0DBC048
:10222000F0929104E09290040230110581F40E9432
:102230001226609101058091DA0495E66902B001E9
:102240001124680F711D8091FF0443E0C1C0033069
:10225000110509F0AEC00E9412266091010580911F
:10226000DA04A5E66A02B0011124680F711D80919D
:10227000FF0442E0ADC0B1E0EB16F10479F0D0927A
:102280009104C09290040E941226F4016081809112
:10229000DA04F5E66F02B00111240EC0F092910449
:1022A000E09290040E941226D4016C918091DA048D
:1022B000B5E66B02B0011124680F711D8091FF0417
:1022C000472D90E00E94821D8091DA048F5FF8CD47
:1022D000EFEFAE1ABE0AFFEF8F1A9F0A2DE0A2168B
:1022E000B10409F0EBCD80EB96E00E94032C60E096
:1022F00080E00E943E2D86E192E00E940C2D68EC69
:1023000070E080E090E00E94D12983E390E00E9499
:102310000D2C8093FD0464E670E080E090E00C9466
:1023200065058091FE0493E08916910411F48F5F96
:1023300005C0A6E08A16910419F481508093FE042A
:102340008091FE04853688F11092FE042EC08091A3
:10235000FF04E3E08E16910411F48F5F05C0F6E0F0
:102360008F16910419F481508093FF048091FF042B
:10237000853608F479CC1092FF0476CC80919404D1
:1023800033E08316910411F48F5F05C096E089163F
:10239000910419F4815080939404809194048536BB
:1023A00008F462CC109294045FCC66246394712C80
:1023B0005BCC0E941226609101058091DA04F5E65B
:1023C0006F02B0011124680F711D8091FF04472D29
:1023D00090E00E94821DE114F10409F075CF4FCF07
:1023E00062E370E080E090E00E94D12980EB96E00B
:1023F0000E94032C68EC70E080E090E00E94D129FC
:10240000C12CD12C00E010E00E94EA1DE82EF12C36
:1024100084E0E816F10439F40F5F1F4F0230110514
:102420000CF0F5C006C095E0E916F10431F4015056
:1024300011090F3FAFEF1A07B9F0012BB9F4B3E060
:10244000EB16F10429F0E6E0EE16F10409F0E1C024
:1024500085E0809316050E94161E60E070E080E023
:1024600090E00E944F14D5C0C12CD12CF3E0EF16A0
:10247000F10429F026E0E216F10409F028C182E116
:10248000EBE8F0E0DE01119601900D928A95E1F7FC
:1024900068EC70E080E090E00E94D129A12CB12C82
:1024A00000E010E080EB96E00E94032C0E94EA1D01
:1024B000882E912C35E08316910419F40F5F1F4F7D
:1024C00022C084E08816910419F4015011091BC040
:1024D00093E08916910449F4F501EE0FFF1FE554CE
:1024E000FB4F8081918101960CC0A6E08A16910471
:1024F00051F4F501EE0FFF1FE554FB4F80819181F0
:10250000019791838083093011050CF06BC117FD91
:1025100066C10115110509F467C10130110509F4FF
:1025200067C10230110509F467C10330110509F4D0
:1025300067C104301105E1F00530110569F006307E
:10254000110571F00730110579F00830110599F483
:10255000B6E0AB2EB12C0FC027E0A22EB12C0BC0E1
:1025600094E0A92EB12C07C085E0A82EB12C03C0A1
:1025700083E0A82EB12C61E070E080E090E00E9442
:10258000E31D60E081E00E943E2D84E292E00E9423
:102590000C2D61E081E00E943E2DF801EE0FFF1F3F
:1025A00021E030E02C0F3D1FE20FF31F808191816D
:1025B0000E940C2D87E394E00E940C2DF501EE0F94
:1025C000FF1FE554FB4F808191810E940E2D64E630
:1025D00070E080E090E00E94D12932E083169104FF
:1025E00009F060CF0E94061C80EB96E00E94032C4D
:1025F00060E081E00E943E2D80E392E00E940C2D7D
:1026000068EC70E080E090E00E94D12960C0C12CAD
:10261000D12C80EB96E00E94032C60E070E080E01B
:1026200090E00E94E31D60E081E00E943E2D8DE578
:1026300092E00E940C2D61E081E00E943E2D87E631
:1026400092E00E940C2D00E010E064E670E080E073
:1026500090E00E94D12982E0E816F10459F464E682
:1026600070E080E090E00E94D12989E18093160516
:102670000C9467050E94EA1D813049F462E370E022
:1026800080E090E00E94D1299FEFC91AD90AA5E104
:10269000CA16D1040CF4B8CE80EB96E00E94032C4D
:1026A00060E081E00E943E2D8DE392E00E940C2DBF
:1026B00061E080E00E943E2D8CE492E00E940C2DAF
:1026C00064E670E080E090E00E94D129E0CF80EBEA
:1026D00096E00E94032C60E081E00E943E2D8DE593
:1026E00092E00E940C2D61E070E080E090E00E949A
:1026F000E31D61E081E00E943E2D87E692E00E94AA
:102700000C2D01E010E0A1CF25E0621671040CF061
:1027100017CE7FCA60E089E00E943E2D86E591E0F9
:102720000E940C2D80910A05B80135E68302600DE8
:10273000711D11248091FD0490E00E94361C0E94BE
:10274000052D61E081E00E943E2D8BE591E00E9425
:102750000C2D809133050E94052D61E089E00E94D7
:102760003E2D8FE591E00E940C2D809132050E9454
:10277000052D0C944C020436110514F40C948507B5
:1027800000E010E00C948507F3E0EF16F10461F42B
:1027900025E0A20E80910505B80135E68302600DA3
:1027A000711D11240C94270386E0E816F10411F042
:1027B0000C942D039BEFA90E80910505B801A5E6A9
:1027C0008A02600D711D11240C9427030E3011052F
:1027D00014F40C94430500E010E00C94430508E069
:1027E00010E0A7CE00E010E048E0A42EB12CA4CE6B
:1027F00039E0A32EB12CA3CE2AE0A22EB12CA2CE7A
:1028000092E0A92EB12CA1CECF93DF93EB012091C2
:10281000A80430E0281739070CF4C90144275527CC
:10282000421B530BBC01841795070CF4BA012C17FB
:102830003D072CF0C417D5071CF4EA0101C0E901DB
:102840006115710519F460E070E003C016161706F3
:102850002CF48CE00E948F2960E007C0611571059F
:1028600039F08CE00E948F2961E08BE00E940D29F5
:10287000209721F460E070E08DE005C0BE018DE09E
:102880001C161D0624F40E948F2960E003C00E94DC
:102890008F2961E08EE0DF91CF910C940D29CF93C9
:1028A000C62F682F87E10E940D296C2F86E10E94B8
:1028B0000D298BE391E00197F1F7CF9108958E30C8
:1028C00008F08E508770806487B9369A3699FECFAB
:1028D000A4B185B1B0E0B82B2FEF30E00E9455389D
:1028E0002FEF33E040E050E00E94EB37822F089555
:1028F000CF92DF92FF920F931F93CF93DF931092AB
:1029000028051092260510921F0510921E051092A0
:10291000A104109223051092220510922105109215
:10292000200510929B0410921D0510921C05109218
:102930002705109229059DE9C92E90E0D92E00E0C7
:1029400010E0C0E0D0E0FF24F39460E070E081E0AC
:1029500090E00E944F14F6018081F2E0CF0ED11C6E
:102960000E945F1490E00115110551F42091AB0411
:1029700030E028173907C4F52196F092280534C0B5
:102980000130110551F42091AC0430E028173907CB
:102990005CF52296F092260527C00230110551F40D
:1029A0002091AD0430E0281739075CF52496F092A9
:1029B0001F0527C00330110551F42091AE0430E00B
:1029C000281739075CF52896F0921E0527C00430B9
:1029D000110551F42091AF0430E028173907F4F4C1
:1029E0006096F092A1041AC00530110551F42091AF
:1029F000B00430E0281739078CF4A096F092230534
:102A00000DC00630110551F42091B10430E02817B3
:102A1000390724F4C05CDF4FF09222050F5F1F4F8F
:102A20000730110509F091CF8BEAC82E80E0D82E2F
:102A300007E010E0FF24F39461E070E080E090E0B4
:102A40000E944F14F6018081F2E0CF0ED11C0E944B
:102A50005F1490E00730110559F42091B20430E082
:102A600028173907CCF5C058DF4FF092210534C044
:102A70000830110551F42091B30430E028173907CC
:102A80005CF5D395F092200527C00930110551F46B
:102A90002091B40430E0281739075CF5DE5FF0922E
:102AA0009B0427C00A30110551F42091B50430E091
:102AB0002817390754F5DC5FF0921D0526C00B304E
:102AC000110551F42091B60430E028173907ECF4D1
:102AD000D85FF0921C0519C00C30110551F42091FB
:102AE000B70430E02817390784F4D05FF092270547
:102AF0000CC00D30110549F42091B80430E02817BE
:102B000039071CF4D05EF09229050F5F1F4F0E307D
:102B1000110509F091CF809128058093A60480913A
:102B200026058093A50480911F058093A4048091BD
:102B30001E058093A3048091A1048093A204809138
:102B400023058093A0048091220580939F048091A7
:102B5000210580939E048091200580939D0480919F
:102B60009B0480939C0480911D0580939A0480911E
:102B70001C05809399048091270580939804809187
:102B8000290580939704D0932505C0932405CE0191
:102B9000DF91CF911F910F91FF90DF90CF9008951B
:102BA000CF93DF930E947814AC0190932505809316
:102BB00024056091A704623009F059C02FEF3FE36C
:102BC000281B390B91E08091A604792F781B709314
:102BD00028058091A504792F781B70932605809194
:102BE000A404792F781B70931F058091A304792F7B
:102BF000781B70931E058091A204792F781B709327
:102C0000A1048091A004792F781B709323058091F3
:102C10009F04792F781B7093220580919E04792F51
:102C2000781B7093210580919D04792F781B7093F8
:102C3000200580919C04792F781B70939B048091D0
:102C40009A04792F781B70931D0580919904792F30
:102C5000781B70931C0580919804792F781B7093D2
:102C6000270580919704981B9093290501C09C012A
:102C700090919604913009F05BC0633009F058C020
:102C80002FEF3FE3241B350B8091A604492F481BEF
:102C9000409328058091A504792F781B7093260511
:102CA0008091A404492F481B40931F058091A304E1
:102CB000792F781B70931E058091A204492F481B21
:102CC0004093A1048091A004792F781B7093230571
:102CD00080919F04492F481B4093220580919E04B8
:102CE000792F781B7093210580919D04492F481BF3
:102CF0004093200580919C04792F781B70939B044E
:102D000080919A04492F481B40931D058091990496
:102D1000792F781B70931C0580919804492F481BCC
:102D20004093270580919704981B9093290502C032
:102D300010929604809115054CEF480F813009F4EC
:102D4000EFC0423098F4211578E1370709F48EC1BD
:102D50000CF457C02F3F9EE3390709F032C26330AD
:102D600029F4909196049F5F90939604823009F025
:102D700067C02F37310509F4C7C0E0F427303105AB
:102D8000E9F158F42130310509F4EDC008F4EEC042
:102D90002330310509F4E4C0EFC02F31310509F4C7
:102DA000B9C02F33310509F4B2C02F30310509F015
:102DB000E3C0B3C02F3F77E0370709F497C078F43A
:102DC0002F3F71E0370709F497C02F3F93E0390791
:102DD00009F48FC02F3F310509F0CEC090C02F3FBE
:102DE0007FE1370709F47CC02F3F9FE3390709F4DF
:102DF00071C02F3F3F4009F0BFC075C025EF3FEFC6
:102E0000B7C02036310509F43FC10CF079C1283034
:102E1000310509F43CC10CF04AC12330310509F4F5
:102E200096C00CF037C12130310509F022C16CEE9B
:102E30007FEF7093350560933405823009F493C0B9
:102E4000833009F099C020389FE3390709F457C04F
:102E5000F8F4211598E3390709F445C060F4211509
:102E600090E23907D1F1211570E33707C9F1232B1F
:102E700009F082C02FC021159EE33907D1F1211539
:102E80007FE33707C9F121153C4309F075C02EC017
:102E9000283F7FE3370709F440C068F4203E7FE312
:102EA0003707A9F1203F9FE33907A1F1203C3F43B9
:102EB00009F062C029C02E3F9FE3390709F453C0CF
:102EC0002F3F7FE3370709F451C02C3F3F4309F000
:102ED00053C046C020E130E04BC02DE030E048C098
:102EE0002CE030E045C028E030E042C024E030E093
:102EF0003FC022E030E03CC021E030E039C0109219
:102F000035051092340538C02FEF3FEF31C02EEF5A
:102F10003FEF2EC02CEF3FEF2BC028EF3FEF28C034
:102F2000211598E1390709F4A1C00CF051C22036EF
:102F3000310509F4A9C00CF00AC22830310509F4A2
:102F4000A6C00CF0E9C12330310509F0D0C16DEE07
:102F50007FEF7093350560933405823009F070CFB0
:102F600024EF3FEF05C023EF3FEF02C020EF3FEF1C
:102F70003093350520933405423008F0B9C22091D2
:102F8000240530912505A90147705527452B19F0D7
:102F9000207E397308C0A90144275873452B09F4D2
:102FA000A7C2207E3170232B09F4A2C2843061F5C0
:102FB0006091100570E071956195710980910F0520
:102FC00090E00E9404140E947814EC01C770DD2781
:102FD000807F9F73892B59F06091100570E0719587
:102FE0006195710980910F0590E00E940414CD2B2A
:102FF00051F36091100570E07195619571098091B0
:103000000F0590E00E94041480911505853009F0A9
:103010006FC26091100570E080910F0590E091956E
:10302000819591090E9404140E947814EC01CC2728
:10303000D8739770892B59F06091100570E08091DA
:103040000F0590E09195819591090E940414CD2B74
:1030500059F36091100570E080910F0590E0919513
:1030600081959109DF91CF910C94041460E170E097
:1030700006C02230310509F0E3CE6EEE7FEF70938B
:103080003505609334052FC16EEF7FEFF8CF68EF01
:103090007FEFF5CF2430310519F462EF7FEFEFCFEA
:1030A0002630310509F0CCCE60EF7FEFE8CF283134
:1030B000310519F46AEF7FEFE2CF293131056CF465
:1030C0002C30310519F464EF7FEFD9CF2031310571
:1030D00009F0B6CE6BEF7FEFD2CF2033310519F474
:1030E0006CEF7FEFCCCF2034310519F46FEF7FEF19
:1030F000C6CF2032310509F0A3CE6DEF7FEFBFCFF1
:10310000211572E0370719F465E070E0B8CF21307F
:1031100092E0390734F5211571E0370719F463E0BF
:1031200070E0ADCF213091E039077CF420383105D3
:1031300019F461E070E0A3CF203C310509F080CEA6
:103140001092350510923405CEC0203871E0370753
:1031500019F462E070E093CF203E91E0390781F3EB
:103160006FCE211576E0370719F466E070E087CF5F
:10317000213096E039077CF4211573E0370719F404
:1031800064E070E07CCF211594E0390709F058CE57
:1031900068E070E074CF21157CE0370719F46CE02B
:1031A00070E06DCF211590E1390719F462E170E00C
:1031B00066CF211578E0370709F042CE6EE070E067
:1031C0005ECF21157FE337070CF047C02F3F93E315
:1031D000390709F4C4CD04F52F3F97E2390709F404
:1031E000BECD6CF42F3F9FE1390709F4B8CD21150E
:1031F00070E2370709F024CE64E170E040CF2F3F42
:103200009FE2390709F4ABCD211570E3370709F0C8
:1032100017CE63E170E033CF2F3F9BE3390709F40A
:103220009ECD5CF42F3F97E3390709F498CD2F3FEB
:1032300079E3370709F004CE92CD2F3F9DE339079C
:1032400009F48DCD2F377EE3370709F488CD2F3F62
:103250009CE3390709F0F4CD82CD273E7FE33707A1
:1032600009F47DCD0CF52F397FE3370709F477CDCD
:103270005CF42F337FE3370709F471CD2F379FE3D9
:10328000390709F0DDCD6BCD2F3C7FE3370709F41B
:1032900066CD2F3D9FE3390709F461CD2F3B7FE3D6
:1032A000370709F0CDCD5BCD273F9FE3390709F400
:1032B00056CD5CF42F3E9FE3390709F450CD233FF0
:1032C0007FE3370709F0BCCD4ACD293F9FE339079B
:1032D00009F445CD0CF4B4CDF901EB5FFF4334970D
:1032E00008F43DCDADCD823009F0AACD45CE2430D5
:1032F00031054CF42130310509F499CD22303105E6
:1033000009F4BBCE39CE2430310509F4C6CE2630BF
:10331000310509F4C9CE30CE2831310509F4CACEC1
:103320004CF42C30310509F4CECE2031310509F4AE
:10333000D1CE22CE2033310509F4D2CE203431054E
:1033400009F4D4CE2032310509F016CED6CE21159F
:1033500092E0390709F4D8CED4F4211591E0390769
:1033600009F4DDCE4CF42038310509F4E2CE203CDE
:10337000310509F4E5CE00CE203891E0390709F493
:10338000E8CE203E71E0370709F4DACEF5CD2115FD
:1033900096E0390709F4E9CE5CF4211593E039078A
:1033A00009F4EECE211574E0370709F4F1CEE4CD2F
:1033B00021159CE0390709F4F2CE211570E1370799
:1033C00009F4F4CE211598E0390709F0D5CDF6CEF1
:1033D0002F3F7EE3370709F4C2CC0CF043C02F3FE8
:1033E00073E3370709F4BBCCE4F42F3F77E23707E8
:1033F00009F4B5CC5CF42F3F7FE1370709F4AFCC7B
:10340000211590E2390709F4F7CEB6CD2F3F7FE2C0
:10341000370709F4A4CC211590E3390709F4F9CE54
:10342000ABCD2F3F7BE3370709F499CC5CF42F3FFA
:1034300077E3370709F493CC2F3F99E3390709F075
:103440009BCD8DCC2F3F7DE3370709F488CC2F37F8
:103450009EE3390709F483CC2F3F7CE3370709F05B
:103460008BCD7DCC273E9FE3390709F478CC0CF552
:103470002F399FE3390709F472CC5CF42F339FE3B3
:10348000390709F46CCC2F377FE3370709F074CD87
:1034900066CC2F3C9FE3390709F461CC2F3D7FE3D5
:1034A000370709F45CCC2F3B9FE3390709F064CD63
:1034B00056CC273F7FE3370709F451CC5CF42F3E0D
:1034C0007FE3370709F44BCC233F9FE3390709F02B
:1034D00053CD45CC293F7FE3370709F440CC0CF4AA
:1034E0004BCDF901EB5FFF43349708F438CC44CD62
:1034F000DF91CF910895CF92DF92EF92FF920F93D9
:103500001F93CF93DF932DE9C22E20E0D22E00E04F
:1035100010E03FE1E32EF12C60E070E081E090E00C
:103520000E944F14F6018081F2E0CF0ED11C0E9460
:103530005F14C82FD0E00115110581F48091AB0410
:1035400090E08C179D073CF4CE01B7010E943B38F8
:10355000862F61E012C060E081E014C001301105E7
:10356000C9F48091AC0490E08C179D074CF4CE0117
:10357000B7010E943B38862F62E00E94532D4CC059
:1035800060E082E00E943E2D60E280EB96E00E94C7
:10359000852842C002301105C9F48091AD0490E045
:1035A0008C179D074CF4CE01B7010E943B38862F43
:1035B00063E00E94532D43C060E083E00E943E2DF3
:1035C00060E280EB96E00E94852839C00330110547
:1035D00081F48091AE0490E08C179D073CF4CE01FD
:1035E000B7010E943B38862F64E038C060E084E079
:1035F0003AC00430110581F48091AF0490E08C173B
:103600009D073CF4CE01B7010E943B38862F65E050
:1036100025C060E085E027C00530110581F4809168
:10362000B00490E08C179D073CF4CE01B7010E94D6
:103630003B38862F66E012C060E086E014C006309A
:103640001105C1F48091B10490E08C179D074CF4F2
:10365000CE01B7010E943B38862F67E00E94532DB0
:1036600009C060E087E00E943E2D60E280EB96E0BA
:103670000E9485280F5F1F4F0730110509F04CCFBE
:103680008BEAC82E80E0D82E07E010E09FE1E92EFB
:10369000F12C61E070E080E090E00E944F14F601B0
:1036A0008081F2E0CF0ED11C0E945F14C82FD0E0C1
:1036B0000730110581F48091B20490E08C179D07CA
:1036C0003CF4CE01B7010E943B38862F68E012C05F
:1036D00060E088E014C008301105C9F48091B3049B
:1036E00090E08C179D074CF4CE01B7010E943B3847
:1036F000862F69E00E94532D4CC060E089E00E9453
:103700003E2D60E280EB96E00E94852842C00930A1
:103710001105C9F48091B40490E08C179D074CF416
:10372000CE01B7010E943B38862F6AE00E94532DDC
:1037300043C060E08AE00E943E2D60E280EB96E0AC
:103740000E94852839C00A30110581F48091B504A2
:1037500090E08C179D073CF4CE01B7010E943B38E6
:10376000862F6BE038C060E08BE03AC00B3011056B
:1037700081F48091B60490E08C179D073CF4CE0153
:10378000B7010E943B38862F6CE025C060E08CE0DA
:1037900027C00C30110581F48091B70490E08C179C
:1037A0009D073CF4CE01B7010E943B38862F6DE0A7
:1037B00012C060E08DE014C00D301105C1F480919D
:1037C000B80490E08C179D074CF4CE01B7010E941D
:1037D0003B38862F6EE00E94532D09C060E08EE0DA
:1037E0000E943E2D60E280EB96E00E9485280F5FEC
:1037F0001F4F0E30110509F04CCFDF91CF911F9173
:103800000F91FF90EF90DF90CF9008950F931F934B
:10381000CF93DF930BEB14E0C0E0D0E0F8016081C0
:103820000E5F1F4FCE0183960E940B2C2196C03154
:10383000D105A1F7DF91CF911F910F9108950F93BB
:103840001F93CF93DF930BEA14E0C0E0D0E0F801C0
:1038500061918F01CE010E940B2C2196CF30D105B2
:10386000B1F7DF91CF911F910F9108950F931F939F
:10387000CF93DF938B0106971CF4C0E5D0E002C024
:10388000C1E5D0E081E08093E305C0930506109286
:10389000E40510920606812F90E00E94002DC801D9
:1038A00099270E94002D0E949B2D8091E205811195
:1038B000FCCF81E08093E2058093E1059FEF909338
:1038C000E0051092DF051092DE058093BD05809122
:1038D000BD05CC0FDD1FC82BC093BD058091BC0575
:1038E000813051F41092BC058091BD0583B906B6B4
:1038F00003FCFACF85EC01C085EE86BF8091E2051E
:103900008130E1F38091DF05811103C08091DF05F3
:1039100001C081E0AEEBB5E02CE435E0F9019E2F6B
:10392000921B981718F49D919193F9CF1092AA04C5
:103930008093A904882329F084EA96E00E94042851
:1039400001C080E0DF91CF911F910F910895CF9337
:10395000DF93C0E0D5E0688185E66802B0011124FC
:103960006F5F7F4F80913105680F711D8091FD045D
:1039700090E00E94361C80932A05698195E66902D1
:10398000B00111246F5F7F4F80913105680F711D69
:103990008091FD0490E00E94361C80931B058A8173
:1039A0006091310570E095E68902600D711D11246A
:1039B0008091FD0490E00E94361C80932C058B8141
:1039C0006091310570E095E68902600D711D11244A
:1039D0008091FD0490E00E94361C80932B058C8121
:1039E0006091310570E095E68902600D711D11242A
:1039F0008091FD0490E00E94361C80932E058D81FD
:103A00006091310570E095E68902600D711D112409
:103A10008091FD0490E00E94361C80930F058E81FA
:103A20006091310570E095E68902600D711D1124E9
:103A30008091FD0490E00E94361C809310058F81D8
:103A40006091310570E095E68902600D711D1124C9
:103A50008091FD0490E00E94361C809319058885B2
:103A60006091310570E095E68902600D711D1124A9
:103A70008091FD0490E00E94361C80933305898577
:103A80006091310570E095E68902600D711D112489
:103A90008091FD0490E00E94361C809332058A8557
:103AA0006091310570E095E68902600D711D112469
:103AB0008091FD0490E00E94361C8093A8048B85C1
:103AC0006091310570E095E68902600D711D112449
:103AD0008091FD0490E00E94361C8093A7048C85A1
:103AE0006091310570E095E68902600D711D112429
:103AF0008091FD0490E00E94361C80931505DF91B3
:103B0000CF9108950F931F93CF93DF931F92CDB75B
:103B1000DEB78B01069714F480E501C081E591E0E2
:103B20009093E305809305061092E4051092060633
:103B3000812F90E049830E94002DC80199270E949F
:103B4000002D4981642F84EA96E00E9450280E944B
:103B50009B2D65E070E080E090E00F90DF91CF91C9
:103B60001F910F910C94D1290E943E2D8091C8067F
:103B70009091C90606975CF08091CA069091CB0699
:103B8000019729F468E080EB96E00E94FA2B80917F
:103B9000C8069091C906059754F48091CA06909181
:103BA000CB06019721F48EE894E00E94AD2C809121
:103BB000CA069091CB06892B29F468E080EB96E049
:103BC0000C94FA2B08950E943E2D68E080EB96E05D
:103BD0000C94FA2B87E00E945F148530D8F084E1C2
:103BE0000E94E428892BC1F083E10E94E428892BFC
:103BF000A9F082E10E94E428892B91F085E10E94DE
:103C0000E428892B79F08FE00E94E428892B61F069
:103C100087E0089581E0089583E0089582E00895A3
:103C200086E0089584E0089585E008956F927F927C
:103C30008F929F92AF92BF92DF92EF92FF920F937B
:103C40001F93CF93DF93CDB7DEB7A0970FB6F8944D
:103C5000DEBF0FBECDBFAE014F5E5F4FCE010196FE
:103C6000EBEAF4E02FEF1192DC012D93CD01DA01A4
:103C70001D92AD01B4E0EB3BFB07A9F780EB96E0AA
:103C80000E94032C03EC10E07E01E1E2EE0EF11C39
:103C90000E94EA1DD82E60E070E081E090E00E9472
:103CA0004F14EDE9AE2EE0E0BE2ECE0141964C0160
:103CB000DE0111963D01F5018081F2E0AF0EB11CED
:103CC0000E945F14D3019C91891708F48C93F4012E
:103CD0009081981708F48083C8010197F1F7FFEFEE
:103CE0006F1A7F0A3FEF831A930A8BEAA81680E0C7
:103CF000B80609F761E070E080E090E00E944F14A0
:103D00006BEA862E60E0962E77E0A72EB12CD401C8
:103D10008C91B2E08B0E911C0E945F14E1E0F0E008
:103D2000EC0FFD1FEA0DFB1D9081891708F48083BD
:103D3000E1E1F0E0EC0FFD1FEA0DFB1D908198170B
:103D400008F48083C8010197F1F7EFEFAE1ABE0ABD
:103D5000FEE0AF16B104D9F66BEA74E0CE0101962D
:103D6000FE0171963191DC014D91CD01232F30E0A0
:103D7000241B310937FF02C02F5F3F4F3595279530
:103D8000240FDB012D93BD01EE15FF0559F70E94AD
:103D90007B1A61E080E00E943E2D8EE293E00E945B
:103DA0000C2DB2E0DB1274CF60E070E080E090E0B8
:103DB0000E944F14A0960FB6F894DEBF0FBECDBF81
:103DC000DF91CF911F910F91FF90EF90DF90BF9007
:103DD000AF909F908F907F906F900C941F1CEF92EC
:103DE000FF920F931F93CF93DF938C01909349051C
:103DF0008093480560E081E00E943E2DC0E0D0E065
:103E0000E12C80E2F82E97010C2E02C03595279503
:103E10000A94E2F720233123232B11F06FEF01C026
:103E20006FE580EB96E00E94FA2B2196CE30D1050B
:103E300051F7DF91CF911F910F91FF90EF9008956F
:103E40008F929F92AF92BF92CF92DF92EF92FF92AA
:103E50000F931F93CF93DF931F92CDB7DEB78C01E3
:103E60006B0180910405B80195E68902600D711D12
:103E700011248091FD0490E00E94361CE82EF12C64
:103E800080910705B80195E68902600D711D112426
:103E90008091FD0490E00E94361C882E912C80EBCE
:103EA00096E00E94032C87E0C816D10419F460E064
:103EB00070E006C098E0C916D10431F461E070E00A
:103EC00084E090E00E94B41D60E080E00E943E2DFE
:103ED00089E891E00E940C2DC8010E940E2D60E03F
:103EE00085E00E943E2D89EC91E00E940C2D80918E
:103EF0000405B80195E68902600D711D11248091B9
:103F0000FD0490E00E94361C0E94052D61E085E0D2
:103F10000E943E2D8CEF93E00E940C2D80910705AE
:103F2000B80195E68902600D711D11248091FD0490
:103F300090E00E94361C843620F40115110509F02A
:103F40000DC180910705B80195E68902600D711DCC
:103F500011248091FD0490E00E94361C853620F0EB
:103F600001151105B9F435C084E68816910440F4B2
:103F70000115110591F183E094E00E940C2D2DC0F4
:103F800094E68916910449F101151105E9F487E0D9
:103F900094E01CC080910705B80195E68902600D88
:103FA000711D11248091FD0490E00E94361C90E068
:103FB000845691090E940E2D84E688169104D8F249
:103FC00094E68916910461F08BE094E00E940C2D38
:103FD00007C084E688169104D0F601151105B9F2E0
:103FE00084E10E94E428892BC1F482E10E94E42844
:103FF000892B99F488E0C816D10479F480914A0598
:1040000090914B05892B49F4A090CA06B090CB063D
:1040100091E0A916B10409F4B1C084E10E94E4283A
:10402000892BB1F482E10E94E428892B89F488E08D
:10403000C816D10469F480914A0590914B05019707
:1040400039F48091CA069091CB06019709F4C2C059
:104050000E94EA1D833001F597E0C916D104E1F40E
:104060008091CA069091CB060197B1F48FEFE81AC0
:10407000F80AE11491E0F90609F4D7C0809104052B
:10408000B80195E68902600D711D11248091FD042F
:104090004E2D90E00E94821D0E94EA1D863059F448
:1040A00087E0C816D10439F48091CA069091CB06F6
:1040B000019709F4BDC00E94EA1D833009F598E01C
:1040C000C916D104E9F48091CA069091CB060197F4
:1040D000B9F48FEF881A980A9FEF8916910411F0AE
:1040E00008F0B7C080910705B80195E68902600D18
:1040F000711D11248091FD04482D90E00E94821DC5
:104100000E94EA1D863009F0A7C088E0C816D104D5
:1041100009F0A2C08091CA069091CB06019709F0E0
:104120009BC080910705A40141505109B80195E653
:104130008902600D711D11248091FD0490E00F90A3
:10414000DF91CF911F910F91FF90EF90DF90CF9073
:10415000BF90AF909F908F900C94821D8091070527
:10416000B80195E68902600D711D11248091FD044E
:1041700090E00E94361C0E94052DE3CE8090C90479
:104180009090CA0494E6890E911C80EB96E00E9400
:10419000032C60E080E00E943E2D8FE094E00E94BE
:1041A0000C2DB0924B05A0924A0568EE73E080E0BA
:1041B00090E00E94D12980910705B80195E6890217
:1041C000600D711D11248091FD04482D90E00E9426
:1041D000821D23CF4091C904842E9090CA0480EBA5
:1041E00096E049830E94032C60E080E00E943E2D0F
:1041F0008DE194E00E940C2D10924B0510924A051F
:1042000068EE73E080E090E00E94D129809107057C
:10421000B80195E68902600D711D11248091FD049D
:10422000498190E00E94821D13CFE12CF12C26CF12
:1042300080910405A70141505109B80195E6890212
:10424000600D711D11248091FD0490E00E94821D7B
:1042500032CF812C912C46CF0F90DF91CF911F91BF
:104260000F91FF90EF90DF90CF90BF90AF909F9015
:104270008F900895AF92BF92CF92DF92EF92FF920C
:104280000F931F93CF93DF93CDB7DEB762970FB62F
:10429000F894DEBF0FBECDBF7C016B0188E0EAEF72
:1042A000F0E0DE011B9601900D928A95E1F78AE01D
:1042B000E2E0F1E0DE01119601900D928A95E1F7BE
:1042C00080910B05B70195E68902600D711D1124DF
:1042D0008091FD0490E00E94361CA82E082F80914A
:1042E0000C05B70195E68902600D711D11248091BE
:1042F000FD0490E00E94361CB82E182F80EB96E04B
:104300000E94032C85E0C816D10419F460E070E027
:1043100006C096E0C916D10431F461E070E084E093
:1043200090E00E94B41D60E080E00E943E2D89E88C
:1043300091E00E940C2DC7010E940E2D60E085E0E7
:104340000E943E2D89E294E00E940C2DE1E0F0E015
:10435000EC0FFD1F8B2D92E08902E00DF11D112461
:104360003297808191810E940C2D61E085E00E944E
:104370003E2D81E394E00E940C2DEA2DEE0FFF0B01
:1043800081E090E08C0F9D1FE80FF91F82859385D7
:104390000E940C2D0E94EA1D8330E9F496E0C916B4
:1043A000D104C9F48091CA069091CB06019799F483
:1043B00001E00A0D04300CF05CC080910B05B701E0
:1043C00095E68902600D711D11248091FD04402F36
:1043D00090E00E94821D0E94EA1D8630D9F486E09A
:1043E000C816D104B9F48091CA069091CB06019702
:1043F00089F44FEF400F1416F4F580910B05B701C7
:1044000095E68902600D711D11248091FD0490E0F4
:104410000E94821D0E94EA1D8330E1F485E0C816E7
:10442000D104C1F48091CA069091CB06019791F412
:1044300011E01B0D16300CF580910C05B70195E6C7
:104440008902600D711D11248091FD04412F90E0BF
:104450000E94821D0E94EA1D8630A1F585E0C816E3
:10446000D10481F58091CA069091CB06019751F550
:1044700006C001E0A2CF43E0C0CF11E0DDCF4FEF97
:10448000410F1416ECF480910C05B70195E68902F2
:10449000600D711D11248091FD0490E062960FB6AD
:1044A000F894DEBF0FBECDBFDF91CF911F910F916A
:1044B000FF90EF90DF90CF90BF90AF900C94821D53
:1044C00045E0E1CF62960FB6F894DEBF0FBECDBFD8
:1044D000DF91CF911F910F91FF90EF90DF90CF90E0
:1044E000BF90AF900895CF92DF92EF92FF920F931B
:1044F0001F93CF93DF931F92CDB7DEB76C017B0183
:1045000080910205B60195E68902600D711D1124A6
:104510008091FD0490E00E94361C182F80910305C5
:10452000B60195E68902600D711D11248091FD048C
:1045300090E00E94361C082F80EB96E00E94032C2E
:1045400083E0E816F10419F460E070E006C094E03E
:10455000E916F10431F461E070E084E090E00E943B
:10456000B41D60E080E00E943E2D89E891E00E9449
:104570000C2DC6010E940E2D60E085E00E943E2DAC
:1045800083E594E00E940C2D80910205B60195E62A
:104590008902600D711D11248091FD0490E00E943C
:1045A000361C0E94052D61E085E00E943E2D8BE5C2
:1045B00094E00E940C2D80910305B60195E68902D6
:1045C000600D711D11248091FD0490E00E94361C45
:1045D0000E94052D0E94EA1D833019F583E0E8163C
:1045E000F104F9F48091CA069091CB060197C9F4C1
:1045F0005DC083E0E816F104C9F020E01430E9F46E
:1046000080910205B60195E68902600D711D1124A5
:104610008091FD04422F90E029830E94821D298110
:10462000122F0E94EA1D863041F7E3CF8091CA061F
:104630009091CB06019709F73CC02AEF163F01F392
:104640000E94EA1D833051F494E0E916F10431F43C
:104650008091CA069091CB060197D9F10E94EA1D7C
:10466000863009F046C084E0E816F10409F041C044
:104670008091CA069091CB060197D9F580910305E8
:1046800046EF400FB60195E68902600D711D1124B9
:104690008091FD0490E00F90DF91CF911F910F91D9
:1046A000FF90EF90DF90CF900C94821D2AE0210FB5
:1046B000A7CF1A5080910205B60195E68902600DD8
:1046C000711D11248091FD04412F90E00E94821DF4
:1046D00094CF065F80910305B60195E68902600DCF
:1046E000711D11248091FD04402F90E00E94821DD5
:1046F000B5CF0F90DF91CF911F910F91FF90EF9069
:10470000DF90CF900895BF92CF92DF92EF92FF9209
:104710000F931F93CF93DF93CDB7DEB764970FB698
:10472000F894DEBF0FBECDBF8C016B0184E1ECE0DD
:10473000F1E0DE01119601900D928A95E1F78091EA
:104740000005B80195E68902600D711D1124809164
:10475000FD0490E00E94361CE82E80910105B8010E
:1047600095E68902600D711D11248091FD0490E091
:104770000E94361CB82E80EB96E00E94032CC114D8
:10478000D10451F560E070E080E090E00E94B41D3B
:1047900001151105D9F560E081E00E943E2D83E608
:1047A00094E00E940C2D61E081E00E943E2D89E89A
:1047B00091E00E940C2D80E090E00E940E2D61E0BF
:1047C00088E00E943E2D80912D05811115C082E761
:1047D00094E00E940C2D10C081E0C816D10419F499
:1047E00061E070E0D1CF92E0C916D10489F661E0B2
:1047F00070E087E090E0CACF80912D05813009F00C
:10480000E2C189E794E00E940C2DDDC18091000592
:10481000B80195E68902600D711D11248091FD0497
:1048200090E00E94361C813019F481E090E073C062
:10483000823019F480E090E26EC0833019F481E098
:1048400090E269C0843019F482E090E064C0853061
:1048500019F480E090E15FC0863019F482E090E1C5
:104860005AC08F3049F460E082E00E943E2D80E81B
:1048700094E00E940C2D51C0863119F480E090E044
:104880004AC0803119F480EE91E345C0813119F4BA
:1048900083EE91E040C0823119F48FE09CE33BC08D
:1048A000833119F483EE91E336C0843119F480EE3C
:1048B0009DE031C0853119F48CEE91E02CC0873039
:1048C00019F480E098E027C0883019F484E090E083
:1048D00022C0893019F484E098E01DC08A3019F4B0
:1048E00080E094E018C08B3019F488E090E013C0A9
:1048F0008C3019F488E094E00EC08D3019F480E01B
:1049000098E309C08E3019F487E090E004C0873145
:1049100021F48FEF9FE30E94EF1EF12C61E081E014
:104920000E943E2D89E891E00E940C2DC8010E9452
:104930000E2D61E088E00E943E2D80910105B801B6
:1049400095E68902600D711D11248091FD0490E0AF
:104950000E94361C9E012F5F3F4F280F311D280FEC
:10496000311DF9013297808191810E940C2D0E94A6
:10497000EA1D8330F9F4C114D104E1F48091CA0630
:104980009091CB060197B1F48FEFE81AF80A98E1FD
:10499000E916F1040CF0F5C080910005B80195E628
:1049A0008902600D711D11248091FD044E2D90E04F
:1049B0000E94821D0E94EA1D8630E9F4C114D104D0
:1049C000D1F48091CA069091CB060197A1F4A7017A
:1049D00041505109423051050CF4D7C08091000577
:1049E000B80195E68902600D711D11248091FD04C6
:1049F00090E00E94821DEB2CF12C0E94EA1D833076
:104A000001F582E0C816D104E1F48091CA069091C4
:104A1000CB060197B1F48FEFE81AF80A9BE0E9168C
:104A2000F1040CF0B5C080910105B80195E689024A
:104A3000600D711D11248091FD044E2D90E00E94A7
:104A4000821D0E94EA1D863061F482E0C816D104FE
:104A500009F0D8C08091CA069091CB06019731F435
:104A60009BC082E0C816D10409F0CCC08091CA0670
:104A70009091CB06019709F0C5C080910105B8015E
:104A800095E68902600D711D11248091FD0490E06E
:104A90000E94361C823071F480910005B80195E6C1
:104AA0008902600D711D11248091FD044EE090E09B
:104AB0000E94821D80910105B80195E68902600D72
:104AC000711D11248091FD0490E00E94361C8330FA
:104AD00071F480910005B80195E68902600D711DA1
:104AE00011248091FD044DE090E00E94821D809190
:104AF0000105B80195E68902600D711D11248091B0
:104B0000FD0490E00E94361C813071F48091000514
:104B1000B80195E68902600D711D11248091FD0494
:104B200043E090E00E94821D80910105B80195E666
:104B30008902600D711D11248091FD0490E00E9496
:104B4000361C843008F45EC080910005B80195E6FB
:104B50008902600D711D11248091FD044FE090E0E9
:104B600064960FB6F894DEBF0FBECDBFDF91CF9134
:104B70001F910F91FF90EF90DF90CF90BF900C941A
:104B8000821DEE24E394F12C07CF48E150E026CFBC
:104B9000EE24E394F12C47CFA7014150510914169C
:104BA000150674F480910105B80195E68902600D3F
:104BB000711D11248091FD0490E00E94821D56CF4A
:104BC0004AE050E0EFCF82E0C816D104D9F40E9449
:104BD000EA1D833031F48091CA069091CB0601978B
:104BE00069F00E94EA1D863069F48091CA069091AE
:104BF000CB06019739F410922D0504C081E0809313
:104C00002D05EFCF64960FB6F894DEBF0FBECDBF73
:104C1000DF91CF911F910F91FF90EF90DF90CF9098
:104C2000BF9008958091FE042091900430919104EA
:104C30002130310511F48091FF0490E0813091051D
:104C400021F4E0E0F5E020E004C08630910559F45D
:104C5000F8CF21932F5F2D30E1F725E320930D0549
:104C600022E620930E058230910521F4E0E0F5E084
:104C70002DE004C08730910559F4F8CF21932F5FC0
:104C80002A31E1F720E420930D052DE620930E054F
:104C90008330910521F4E0E0F5E02AE104C088309A
:104CA000910559F4F8CF21932F5F2732E1F72BE4D8
:104CB00020930D0528E720930E058430910521F4FB
:104CC000E0E0F5E027E204C08930910559F4F8CF1F
:104CD00021932F5F2433E1F726E520930D0523E888
:104CE00020930E058530910521F4E0E0F5E084E3A2
:104CF00003C00A9759F4F9CF81938F5F8134E1F7AC
:104D000081E680930D0583E880930E050895CF9288
:104D1000DF92EF92FF920F931F93CF93DF936C017B
:104D20007A018B01C0E0D0E0CE15DF0589F0D80113
:104D30006D918D01D601ED91FC910190F081E02DF6
:104D4000C6010995892B11F47E0102C02196ECCF92
:104D5000C701DF91CF911F910F91FF90EF90DF90EE
:104D6000CF900895FC01538D448D252F30E0842F82
:104D700090E0821B930B541710F0CF960895019783
:104D80000895FC01918D828D981761F0828DDF016D
:104D9000A80FB11D5D968C91928D9F5F9F73928F2E
:104DA00090E008958FEF9FEF0895FC01918D828D23
:104DB000981731F0828DE80FF11D858D90E00895F0
:104DC0008FEF9FEF0895FC01918D228D892F90E048
:104DD000805C9F4F821B91098F739927089587E00C
:104DE00096E00E94E32621E0892B09F420E0822F3F
:104DF0000895FC01848DDF01A80FB11DA35ABF4F98
:104E00002C91848D90E001968F739927848FA689C9
:104E1000B7892C93A089B1898C9180648C93938DF0
:104E2000848D981306C00288F389E02D80818F7DE0
:104E300080830895EF92FF920F931F93CF93DF9398
:104E4000EC0181E0888F9B8D8C8D981305C0E889DB
:104E5000F989808185FD24C0F62E0B8D10E00F5F4F
:104E60001F4F0F731127E02E8C8DE8120CC00FB668
:104E700007FCFACFE889F989808185FFF5CFCE015B
:104E80000E94F926F1CF8B8DFE01E80FF11DE35A48
:104E9000FF4FF0820B8FEA89FB898081806207C017
:104EA000EE89FF896083E889F98980818064808345
:104EB00081E090E0DF91CF911F910F91FF90EF90F3
:104EC0000895CF93DF93EC01888D8823C9F0EA8998
:104ED000FB89808185FD05C0A889B9898C9186FDF3
:104EE0000FC00FB607FCF5CF808185FFF2CFA889F0
:104EF000B9898C9185FFEDCFCE010E94F926E7CFCD
:104F0000DF91CF91089580E090E0892B29F00E94F5
:104F1000EF2681110C9400000895843039F086301A
:104F200049F0833051F48FB58F7702C08FB58F7DF4
:104F30008FBD089585B58F7D85BD08953FB7F894E1
:104F40008091B8059091B905A091BA05B091BB05C3
:104F500022B708B600FE05C02F3F19F00196A11D2B
:104F6000B11D3FBFBA2FA92F982F8827820F911DFF
:104F7000A11DB11DBC01CD0142E0660F771F881F46
:104F8000991F4A95D1F7089585ED86BF06B604FCB2
:104F9000FDCF1092E205089540918E05262F30E056
:104FA000240F311D21323105DCF42091E20524303B
:104FB000C9F4FC0180E090E0861758F430918E052A
:104FC0002191DC01A459BA4FA30FB11D2C93019676
:104FD000F3CF80918E05680F60938E0580E0089571
:104FE00081E0089582E008950895E091AA048091F7
:104FF000A904E81730F4F0E0E45BFA4F808190E018
:1050000008958FEF9FEF08959091AA048091A904CD
:10501000981750F4E92FF0E0E45BFA4F208130E07C
:105020009F5F9093AA0402C02FEF3FEFC90108953C
:105030008091A90490E02091AA04821B910908950F
:10504000CF92DF92EF92FF920F931F93CF93DF9354
:105050007C01262F972F8A018091E305882391F008
:10506000C62FD72F6E01C40ED51ECC15DD0571F0ED
:105070006991D701ED91FC910190F081E02DC7017C
:105080000995F3CF642F822F0E94CC27C801DF91AE
:10509000CF911F910F91FF90EF90DF90CF900895E7
:1050A000CF93DF931F92CDB7DEB769832091E305DD
:1050B0002223D1F020910606203240F021E030E09A
:1050C000FC013383228380E090E015C08091E405E9
:1050D000E82FF0E0EB51FA4F998190838F5F809336
:1050E000E4058093060605C061E0CE0101960E94AA
:1050F000CC2781E090E00F90DF91CF910895089543
:1051000080E090E008950E947038DC01ED91FC9100
:105110000190F081E02D09941F920F920FB60F922B
:1051200011242F933F934F935F936F937F938F93AC
:105130009F93AF93BF93EF93FF9387E096E00E9416
:10514000F926FF91EF91BF91AF919F918F917F9140
:105150006F915F914F913F912F910F900FBE0F90E4
:105160001F9018951F920F920FB60F9211242F9334
:105170008F939F93EF93FF93E0911706F09118069A
:105180008081E0911D06F0911E0682FD12C0908183
:10519000809120068F5F8F7320912106821751F036
:1051A000E0912006F0E0E95FF94F958F80932006AB
:1051B00001C08081FF91EF919F918F912F910F906E
:1051C0000FBE0F901F901895CF93DF93282F30E0DC
:1051D000F901EA53FF4F8491F901EA55FF4FD49149
:1051E000F901EA57FF4FC491CC2391F081110E943D
:1051F0008D27EC2FF0E0EE0FFF1FE458FF4FA59135
:10520000B491EC91ED2381E090E021F480E002C0C4
:1052100080E090E0DF91CF9108951F93CF93DF93CB
:10522000282F30E0F901EA53FF4F8491F901EA5544
:10523000FF4FD491F901EA57FF4FC491CC23C9F035
:10524000162F81110E948D27EC2FF0E0EE0FFF1F2B
:10525000EE58FF4FA591B4918FB7F894111105C086
:105260009C91ED2FE095E92302C0EC91ED2BEC939E
:105270008FBFDF91CF911F910895CF93DF93EC0102
:1052800060E08E810E940D2961E08E810E940D29CF
:1052900060E08E810E940D298BE891E00197F1F783
:1052A000DF91CF910895CF93DF9390E0FC01EA5511
:1052B000FF4F2491FC01EA57FF4F8491882361F14D
:1052C00090E0880F991FFC01E859FF4FC591D491D8
:1052D000FC01EE58FF4FA591B491611109C09FB731
:1052E000F8948881209582238883EC912E230BC02B
:1052F000623061F49FB7F8943881822F80958323C0
:105300008883EC912E2B2C939FBF06C08FB7F89407
:10531000E8812E2B28838FBFDF91CF9108951F93B3
:10532000CF93DF93182FEB0161E00E945329209760
:1053300011F460E004C0CF3FD10539F461E0812F62
:10534000DF91CF911F910C940D29E12FF0E0EA53EA
:10535000FF4FE491E33089F038F4E130D1F483B7C2
:10536000806183BFCCBF19C0E43069F0E63089F4B6
:1053700085B5806285BDC3BD10C08FB580688FBD07
:10538000DBBDCABD0AC08FB580628FBDD9BDC8BDA7
:1053900004C0C038D10594F6CCCFDF91CF911F91D6
:1053A00008958F929F92AF92BF92CF92DF92EF9229
:1053B000FF926B017C010E949E274B015C01C1148E
:1053C000D104E104F104F1F00E949E27DC01CB013D
:1053D00088199909AA09BB09883E9340A105B1051E
:1053E00070F321E0C21AD108E108F10888EE880EB6
:1053F00083E0981EA11CB11CC114D104E104F10486
:1054000019F7DDCFFF90EF90DF90CF90BF90AF9076
:105410009F908F9008951F920F920FB60F921124B4
:105420002F933F938F939F93AF93BF938091B40536
:105430009091B505A091B605B091B7053091B3052F
:1054400023E0230F2D3720F40196A11DB11D05C0C7
:1054500026E8230F0296A11DB11D2093B30580936A
:10546000B4059093B505A093B605B093B7058091A8
:10547000B8059091B905A091BA05B091BB05019608
:10548000A11DB11D8093B8059093B905A093BA05ED
:10549000B093BB05BF91AF919F918F913F912F9199
:1054A0000F900FBE0F901F9018951F920F920FB67E
:1054B0000F9211242F933F934F935F936F937F939A
:1054C0008F939F93AF93BF93EF93FF9381B1887FA7
:1054D000803609F499C068F5883209F45BC090F40D
:1054E000803109F454C038F4882309F4EEC08830C0
:1054F00009F44DC0EEC0883109F44CC0803209F483
:105500005CC0E7C0803409F466C048F4803309F415
:1055100054C0883309F0DDC08093E005D1C08035E8
:1055200009F44EC0883509F45BC0883409F0D1C055
:10553000CEC0883909F4C1C0A8F4883709F464C022
:1055400038F4883609F460C0803709F45DC0C1C002
:10555000883809F4B2C0803909F45CC0803809F099
:10556000B8C058C0803B09F481C038F4803A09F4CF
:1055700062C0883A09F47AC0ACC0803C09F4A0C08B
:10558000883C09F49DC0883B09F485C0A2C0809185
:10559000BD0510C09091DF058091DE05981758F584
:1055A000E091DF0581E08E0F8093DF05F0E0E254AB
:1055B000FA4F808183B985EC81C08093E00587C074
:1055C000E091DF0581E08E0F8093DF0583B1F0E08D
:1055D000E254FA4F80839091DF058091DE056AC026
:1055E000E091DF0581E08E0F8093DF0583B1F0E06D
:1055F000E254FA4F80838091E105811168C081E017
:105600008093BC0584EA5DC083E08093E20510923C
:10561000B205D1CF8091B205803208F04EC0E09142
:10562000B20581E08E0F8093B20583B1F0E0EE56B3
:10563000FA4F8083C0CF85EC86BF1092E20580913F
:10564000B205803230F4E091B205F0E0EE56FA4F48
:1056500010826091B20570E0E0919005F0919105A3
:1056600082E995E009951092B20533C084E08093F9
:10567000E20510928F0510928E05E0918C05F09155
:105680008D05099580918E05811105C081E080937B
:105690008E0510926C05E0918F0581E08E0F80934E
:1056A0008F05F0E0E459FA4F808183B990918F051E
:1056B00080918E05981708F47ECF85E886BF09C0D3
:1056C00085EC86BF1092E20504C01092E0050E94AE
:1056D000C427FF91EF91BF91AF919F918F917F91DF
:1056E0006F915F914F913F912F910F900FBE0F904F
:1056F0001F901895CF92DF92EF92FF920F931F9316
:10570000CF93DF937C016C0187E0C80ED11CC0E011
:10571000D0E0062F10E0B8010C2E02C075956795F9
:105720000A94E2F76170F60181916F010E940D29E0
:105730002196C430D10579F7C701DF91CF911F9130
:105740000F91FF90EF90DF90CF900C943D29CF9276
:10575000DF92EF92FF920F931F93CF93DF93EC01B1
:10576000F62E642F8C810E940D298D818F3F19F0B8
:1057700060E00E940D298F850F2D10E084FF25C069
:105780006E0187E0C80ED11CE12CF12CB8010E2C63
:1057900002C0759567950A94E2F76170F6018191F0
:1057A0006F010E940D29FFEFEF1AFF0A88E0E8164B
:1057B000F10461F7CE01DF91CF911F910F91FF901E
:1057C000EF90DF90CF900C943D29B80184E075955F
:1057D00067958A95E1F7CE010E947A2B6F2DCE0155
:1057E000DF91CF911F910F91FF90EF90DF90CF90BD
:1057F0000C947A2B41E00E94A72B81E090E0089561
:1058000040E00C94A72B61E00E94002C8BE39FE109
:105810000197F1F708950C94DE370C94D637EF9288
:10582000FF920F931F93CF93DF93EC01623018F038
:105830008F8588608F876B8B1C8A80E48D8B80E1DD
:105840008E8B80E58F8B61E08C810E9453298D8146
:105850008F3F19F061E00E94532961E08E810E9420
:1058600053297E0187E0E80EF11C00E010E08F85EF
:1058700084FD03C084E090E002C088E090E0081757
:1058800019074CF461E0F70181917F010E945329CF
:105890000F5F1F4FECCF8BE39DE00197F1F760E0C6
:1058A0008C810E940D2960E08E810E940D298D81DE
:1058B0008F3F19F060E00E940D296F8564FD1DC0C7
:1058C00063E0CE010E947A2B0BE416E4C801019735
:1058D000F1F763E0CE010E947A2BC8010197F1F73E
:1058E00063E0CE010E947A2B83E592E00197F1F705
:1058F00062E0CE010E947A2B16C06062CE010E9447
:10590000002C8BE496E40197F1F76F856062CE017D
:105910000E94002C83E592E00197F1F76F856062A9
:10592000CE010E94002C6F856062CE010E94002C87
:1059300084E0888B6CE0CE010E94002CCE010E9496
:10594000032C82E0898B66E0CE01DF91CF911F911D
:105950000F91FF90EF900C94002C009769F0FC01E0
:1059600001900020E9F73197AF01481B590BBC01AA
:1059700080EB96E00C94872680E090E008958F926B
:105980009F92AF92BF920F931F93CF93DF93CDB7A8
:10599000DEB7A1970FB6F894DEBF0FBECDBF19A238
:1059A000423008F44AE08E010F5D1F4F842E912C87
:1059B000A12CB12CA50194010E940A38E62FB9014F
:1059C000CA0101501109EA3014F4E05D01C0E95C3C
:1059D000D801EC93232B242B252B61F7C8010E94BF
:1059E000AD2CA1960FB6F894DEBF0FBECDBFDF91F0
:1059F000CF911F910F91BF90AF909F908F9008957E
:105A0000682F84EA96E00C945028682F70E080E0BC
:105A100090E04AE00C94BF2C0C94AD2CCF92DF9216
:105A2000EF92FF92CF93DF936C01990FEE08FF087E
:105A3000F7FE19C06DE280EB96E00E948528EC012C
:105A400066277727CB016C197D098E099F094AE0EB
:105A50000E94BF2C8C0F9D1FDF91CF91FF90EF9084
:105A6000DF90CF9008954AE0C701B601DF91CF9152
:105A7000FF90EF90DF90CF900C94BF2C643008F033
:105A800063E09091C306691710F06FEF690FE62F7E
:105A9000F0E0E055F94F9489682F690F606880EB5A
:105AA00096E00C94002C982F862F911109C060E08D
:105AB0000E943E2D60E280EB96E00E9485280895CA
:105AC000913029F460E00E943E2D61E00DC09230DB
:105AD00029F460E00E943E2D62E006C0933049F454
