:100000000C94A6000C94D5000C94D5000C94D5004B
:100010000C94D5000C94D5000C94D5000C94D5000C
:100020000C94D5000C94D5000C94D5000C940C0CB9
:100030000C94D5000C94D5000C94D5000C94D500EC
:100040000C94D5000C94D5000C94D4380C94D500A5
:100050000C94723C0C94A83C0C94D5000C94D500E4
:100060000C94D5000C94D5000C94A3370C94D500B7
:100070000C94D5000C94D5000C94D5000C94D500AC
:100080000C94D5000C94D5000C94D500192D1C2D82
:10009000282D2B2D382D3B2D482D4B2D582D5B2DEC
:1000A000103A153A1A3A243A523A523A2E3A363A15
:1000B0003E3A483A6F3A723A653A693A893A893A29
:1000C000763A7A3A803A843A000000010200090A3E
:1000D000000000000403080700000000000000000A
:1000E0000000000000000000010204081020408011
:1000F0000102040810204080010204081020408002
:1001000001020408102040800202020202020202E0
:1001100004040404040404040303030303030303A7
:10012000010101010101010100002000230026005E
:10013000290000002200250028002B0000002100DB
:10014000240027002A00D20CB936DC3C11241FBE43
:10015000CFEFD0E4DEBFCDBF14E0A0E0B1E0E8E037
:10016000FAE800E00BBF02C007900D92A03FB10774
:10017000D9F727E0A0EFB4E001C01D92A533B20784
:10018000E1F711E0CCE4D1E000E006C022970109DC
:10019000FE010BBF0E94F541C634D10780E008077D
:1001A000A9F70E94503F0C9402450C9400000C9457
:1001B00046440C944E44DC01ED91FC910190F08199
:1001C000E02D09940F931F93CF93DF9300EF14E07A
:1001D000C0E0D0E0F80161918F01CE010E94D9000A
:1001E0002196CF30D105B1F7DF91CF911F910F91BB
:1001F00008950F931F93CF93DF9304E615E0C2E1B8
:10020000D0E0F80161918F01CE010E94D9002196C2
:10021000C232D105B1F7DF91CF911F910F910895AF
:100220000F931F93CF93DF9304E315E0C3E2D0E075
:10023000F80161918F01CE010E94D9002196C3334C
:10024000D105B1F7DF91CF911F910F910895609182
:10025000520583E390E00C94D9006091510584E34A
:1002600090E00C94D90020917105332727FD30953B
:10027000A901480F511D87FD5A95CA010C94D90058
:1002800020917205332727FD3095A901480F511D94
:1002900087FD5A95CA010C94D9000F931F93CF93F1
:1002A000DF9300EF14E0C0E0D0E0CE010E94D70061
:1002B000F80181938F012196CF30D105B1F7DF91FD
:1002C000CF911F910F9108950F931F93CF93DF93B9
:1002D00004E615E0C2E1D0E0CE010E94D700F801AB
:1002E00081938F012196C132D105B1F7DF91CF9172
:1002F0001F910F9108950F931F93CF93DF9304E302
:1003000015E0C3E2D0E0CE010E94D700F80181934E
:100310008F012196C333D105B1F7DF91CF911F91A2
:100320000F91089583E390E00E94D70080935205D7
:10033000089584E390E00E94D700809351050895CA
:100340001092440581E080932B05109275058093EF
:100350002C051092B6051092B50510925F0510920B
:100360005E0510925D0510925C0580932105109248
:100370002E05109255050E944D010E9464010E94B5
:100380007B010E9492010E94990185E390E00E9406
:10039000D70080932A0587E390E00E94D7008093DE
:1003A00020050895AF92BF92CF92DF92EF92FF9215
:1003B0000F931F930E94CD39BC01882777FD80954C
:1003C000982F1F921F921F922FEF2F93A12CB12CC9
:1003D0006501EE24EA9413E0F12E00E010E020E045
:1003E00030E0A9010E94083F862F0F900F900F90D8
:1003F0000F901F910F91FF90EF90DF90CF90BF90E3
:10040000AF90089587E00E94D2018530E8F084E142
:100410000E94F93A892BD1F083E10E94F93A892BA5
:10042000B9F082E10E94F93A892BA1F085E10E949E
:10043000F93A892B89F08BE00E94F93A892B11F463
:1004400085E0089587E0089581E0089583E00895A8
:1004500082E0089586E0089584E00895CF93C62F42
:10046000682F87E10E94C33A6C2F86E10E94C33A4D
:1004700080E590E0CF910C947539DF92EF92FF9276
:100480000F931F93CF93DF931092B2051092B10593
:100490001092B0051092AF051092AE051092AD0506
:1004A0001092AC051092AB051092AA051092A90506
:1004B0001092A8051092A7051092A6051092A50506
:1004C0004CE9E42E44E0F42E00E010E0C0E0D0E07F
:1004D000DD24D39460E070E081E090E00E942E0281
:1004E000F7018081F2E0EF0EF11C0E94D20190E052
:1004F0000115110551F42091F00430E02817390757
:10050000C4F52196D092B20534C00130110551F4E2
:100510002091F10430E0281739075CF52296D0923B
:10052000B10527C00230110551F42091F20430E0EA
:10053000281739075CF52496D092B00527C0033000
:10054000110551F42091F30430E0281739075CF5C8
:100550002896D092AF0527C00430110551F42091A0
:10056000F40430E028173907F4F46096D092AE0511
:100570001AC00530110551F42091F50430E0281718
:1005800039078CF4A096D092AD050DC00630110548
:1005900051F42091F60430E02817390724F4C05CA8
:1005A000DF4FD092AC050F5F1F4F0730110509F0E8
:1005B00091CF3AEAE32E34E0F32E07E010E0DD2499
:1005C000D39461E070E080E090E00E942E02F70199
:1005D0008081F2E0EF0EF11C0E94D20190E0073022
:1005E000110559F42091F70430E028173907CCF5AC
:1005F000C058DF4FD092AB0534C00830110551F41C
:100600002091F80430E0281739075CF5D395D09293
:10061000AA0527C00930110551F42091F90430E0F2
:10062000281739075CF5DE5FD092A90527C00A308C
:10063000110551F42091FA0430E02817390754F5D8
:10064000DC5FD092A80526C00B30110551F4209133
:10065000FB0430E028173907ECF4D85FD092A705E7
:1006600019C00C30110551F42091FC0430E028171A
:10067000390784F4D05FD092A6050CC00D30110567
:1006800049F42091FD0430E0281739071CF4D05EAE
:10069000D092A5050F5F1F4F0E30110509F091CFC5
:1006A0008091B2058093A4058091B1058093A30544
:1006B0008091B0058093A2058091AF058093A1053C
:1006C0008091AE058093A0058091AD0580939F0534
:1006D0008091AC0580939E058091AB0580939D052C
:1006E0008091AA0580939C058091A90580939B0524
:1006F0008091A80580939A058091A705809399051C
:100700008091A605809398058091A5058093970513
:10071000D0933305C0933205CE01DF91CF911F9165
:100720000F91FF90EF90DF9008958091B205813096
:1007300019F48CEE9FEF5CC08091B105813019F403
:100740008EEE9FEF55C08091B005813019F484EF93
:100750009FEF4EC08091AF05813019F488EF9FEF75
:1007600047C08091AE05813019F48AEF9FEF40C0F9
:100770008091AD05813019F48CEF9FEF39C08091E5
:10078000AC05813019F48EEF9FEF32C08091AB053C
:10079000813019F48FEF9FEF2BC08091AA05813033
:1007A00029F41092B6051092B50508958091A90517
:1007B000813019F481E090E01BC08091A805813060
:1007C00019F482E090E014C08091A705813019F4FB
:1007D00084E090E00DC08091A605813019F486E098
:1007E00090E006C08091A505813031F488E090E06A
:1007F0009093B6058093B50508958091A505813045
:1008000019F484E190E05CC08091A605813019F470
:1008100082E190E055C08091A705813019F48CE009
:1008200090E04EC08091A805813019F488E090E0F6
:1008300047C08091A905813019F486E090E040C05E
:100840008091AA05813019F484E090E039C080914C
:10085000AB05813019F482E090E032C08091AC05A4
:10086000813019F481E090E02BC08091AD0581309A
:1008700029F41092B6051092B50508958091AE0541
:10088000813019F48FEF9FEF1BC08091AF0581304D
:1008900019F48EEF9FEF14C08091B005813019F4E8
:1008A0008CEF9FEF0DC08091B105813019F48AEF74
:1008B0009FEF06C08091B205813031F488EF9FEF41
:1008C0009093B6058093B50508950E943D029093DC
:1008D00033058093320540914305423041F0209129
:1008E0007305213009F05EC0433009F05BC02FEF83
:1008F0003FE3B901681B790BCB0121E03091A405DE
:10090000722F731B7093B2053091A305522F531BA6
:100910005093B1053091A205622F631B6093B0051F
:100920003091A105722F731B7093AF053091A00514
:10093000522F531B5093AE0530919F05622F631BBE
:100940006093AD0530919E05722F731B7093AC05BB
:1009500030919D05522F531B5093AB0530919C0550
:10096000622F631B6093AA0530919B05722F731B46
:100970007093A90530919A05522F531B5093A805E7
:1009800030919905622F631B6093A70530919805FC
:10099000722F731B7093A60530919705231B20932C
:1009A000A50502C01092730520914505213009F07C
:1009B000A5C1811528E0920709F493C10CF09BC0F2
:1009C0008833910509F473C10CF046C08C30910551
:1009D00009F464C1FCF48430910509F45CC164F449
:1009E0008230910509F454C10CF037C1019709F028
:1009F00089C18CEE9FEF7DC18730910509F445C117
:100A00008830910509F44DC1069709F07BC180EF4C
:100A10009FEF6FC18831910509F422C164F48F30D2
:100A2000910509F435C18031910509F41CC10E9777
:100A300009F068C130C18E31910509F42FC124F449
:100A40004C9709F42EC15EC18032910509F42FC183
:100A5000C09709F429C156C1803861E0960709F4AE
:100A600031C1FCF48038910509F403C164F4803489
:100A7000910509F4FBC08036910509F41BC1CC97A0
:100A800009F040C111C1803F910509F413C18115DE
:100A900021E0920709F419C1803C910509F032C1A7
:100AA0000CC1803853E0950709F40CC17CF4811522
:100AB00072E0970709F4E0C0811523E0920709F47A
:100AC00007C1803E914009F01DC1F7C0811566E065
:100AD000960709F4D4C02CF48115944009F4FBC0A6
:100AE00011C1811557E0950709F4F2C0803897408D
:100AF00009F4EBC007C181157CE3970709F4F7C03F
:100B00000CF058C08F3F5FE1950709F49DC034F5A4
:100B1000811570E1970709F4E7C07CF481155EE068
:100B2000950709F4DBC081156FE0960709F4D3C07F
:100B300081159C4009F0E6C0D1C081152CE19207D7
:100B400009F4D2C081155EE1950709F4CAC0811588
:100B5000984109F0D7C080E190E0CBC0811570E3E7
:100B6000970709F48FC08CF48F3F57E2950709F47B
:100B70006BC08F3F6FE2960709F466C08115904203
:100B800009F0C0C084E190E0B4C08F3F27E3920732
:100B900009F45AC02CF48F3F934309F455C0B2C0F6
:100BA0008F3F79E3970709F44FC08F3F9B4309F4C8
:100BB0004BC0A8C08F3C5FE3950709F445C024F5FE
:100BC0008F3F7EE3970709F43FC06CF48F3F5DE3EE
:100BD0009507D1F18F376EE39607B1F18F3F9C43B4
:100BE00009F090C031C08F372FE3920769F124F4E8
:100BF0008F339F4349F186C08F397FE3970721F1F7
:100C00008F3B9F4309F17EC0833F5FE39507E1F08F
:100C10006CF4873E7FE39707B9F08F3E2FE392078E
:100C200099F08F3D9F4309F06DC00EC0893F6FE37F
:100C3000960751F024F4873F9F4331F063C08B5FE8
:100C40009F43049708F05EC0433009F05BC0809179
:100C500073058F5F8093730555C08DEE9FEF49C07C
:100C60008AEF9FEF46C08BEF9FEF43C08FEF9FEF60
:100C700040C081E090E03DC085E090E03AC086E071
:100C800090E037C083E190E034C08BEE9FEF31C03D
:100C90008EEE9FEF2EC082EF9FEF2BC084EF9FEF71
:100CA00028C088EF9FEF25C08CEF9FEF22C08DEF0B
:100CB0009FEF1FC08EEF9FEF1CC01092B6051092E1
:100CC000B50520C082E090E014C083E090E011C040
:100CD00084E090E00EC088E090E00BC08CE090E0F3
:100CE00008C08EE090E005C082E190E002C085E19E
:100CF00090E09093B6058093B50504C0223011F4BE
:100D00000E94FD0380914505833011F40C949503F6
:100D1000089580910E0590910F0543976CF0809196
:100D20000C0590910D05019690930D0580930C058F
:100D300010920F0510920E0580910C0590910D05F3
:100D4000843691056CF080910A0590910B0501960F
:100D500090930B0580930A0510920D0510920C05D7
:100D600008951092510510922E0581E080932A0576
:100D70009FE09093340597E0909335059EE690931D
:100D8000360594E69093370592E0909338059CE8F9
:100D90009093390590933A0595E090933B059AE03E
:100DA00090933C0592E390933D059FEF90933E0511
:100DB00080933F05809340050E9410010E942D0101
:100DC00060912A0585E390E00E94D90065E087E301
:100DD00090E00C94D9000F931F93CF93DF93EB0116
:100DE0002091540530E0281739070CF4C901442735
:100DF0005527421B530B8C01841795070CF48A016D
:100E00002C173D072CF0C417D5071CF4EA0101C0CC
:100E1000E9010115110519F460E070E004C0101635
:100E200011063CF4B8018DE00E94EA3960E070E000
:100E300009C060E070E08DE00E94EA3966277727FC
:100E4000601B710B8CE00E94EA39209719F460E076
:100E500070E004C01C161D063CF4BE018EE00E942A
:100E6000EA3960E070E009C060E070E08EE00E9466
:100E7000EA39662777276C1B7D0B8FE0DF91CF91D6
:100E80001F910F910C94EA390F931F93CF93DF9327
:100E900081E08093290580912D05813009F440C0BF
:100EA00090914A05092F10E0609147058091460511
:100EB000953650F00456110970E0719561957109ED
:100EC00090E0C1E0D0E007C070E0719561957109D4
:100ED00090E0C0E0D0E00E94EB068AE0809FB00185
:100EE000819F700D1124882777FD8095982F0E948F
:100EF0003B398EEF9FEF9093B6058093B505CD2BD0
:100F000029F01092B6051092B5050AC00E9465043A
:100F10008091B5059091B60518161906BCF7F1CF6A
:100F200010922D051092290510925F0510925E0512
:100F300010925D0510925C0510925B0510925A05A7
:100F40001092590510925805DF91CF911F910F9182
:100F500008950F931F93CF93DF9381E0809329052A
:100F600080912D05813009F43FC090914A05092FE9
:100F700010E08091470560914605953650F0045683
:100F8000110990E091958195910970E0C1E0D0E060
:100F900007C090E091958195910970E0C0E0D0E0A4
:100FA0000E94EB068AE0809FB001819F700D1124A2
:100FB000882777FD8095982F0E943B3982E090E04A
:100FC0009093B6058093B505CD2B29F01092B60508
:100FD0001092B50509C00E9465048091B5059091F5
:100FE000B60597FFF8CFF2CF10922D051092290584
:100FF00010925F0510925E0510925D0510925C05DF
:1010000010925B0510925A051092590510925805DE
:10101000DF91CF911F910F91089581E080932B056F
:1010200010921305109212058093210510922F053E
:1010300010924505109244051092550510924B05EB
:1010400060E070E080E090E00E94EB0687EB95E0C6
:101050000E94733460E087E00E94C33A40E060E0A1
:1010600087EB95E00E947A3469E971E087EB95E0BF
:101070000E945D3D41E060E087EB95E00E947A349C
:101080006AEA71E087EB95E00E945D3D60910A0598
:1010900070910B054AE050E087EB95E00E94FF3D20
:1010A0006CE473E087EB95E00E945D3D60910C0578
:1010B00070910D054AE050E087EB95E00E94FF3DFE
:1010C00060EB71E087EB95E00E945D3D4AE050E007
:1010D00060912E0587EB95E00E94143E61E070E080
:1010E00081E090E00E942E0264E670E080E090E0F3
:1010F0000E943B3960E070E080E090E00E942E02A8
:1011000064E670E080E090E00E943B39A7CF6091F8
:10111000460570E07195619571098091470590E0F1
:101120009195819591090E94EB0620914A05822FA5
:1011300090E0253610F08456910925E0289FB001F3
:10114000299F700D1124882777FD8095982F0E9484
:101150003B391092B6051092B50510925F051092BA
:101160005E0510925D0510925C050895609146053C
:1011700070E08091470590E00E94EB0620914A05BF
:10118000822F90E0253610F08456910925E0289FA3
:10119000B001299F700D1124882777FD8095982F25
:1011A0000E943B391092B6051092B50510925F056A
:1011B00010925E0510925D0510925C050895809175
:1011C000250520913005309131052130310511F48C
:1011D0008091240590E08130910561F4E4E6F5E02A
:1011E00020E021932F5F2D30E1F725E32093710557
:1011F00022E60EC08230910571F4E4E6F5E02DE0C0
:1012000021932F5F2A31E1F720E4209371052DE629
:101210002093720533C08330910571F4E4E6F5E064
:101220002AE121932F5F2732E1F72BE42093710508
:1012300028E7209372052DC08430910571F4E4E60F
:10124000F5E027E221932F5F2433E1F726E5209391
:10125000710523E82093720532C08530910571F441
:10126000E4E6F5E024E321932F5F2134E1F721E662
:101270002093710523E8209372052CC086309105D8
:1012800041F4E4E6F5E081E481938F5F8E34E1F789
:1012900008958730910541F4E4E6F5E08EE481930A
:1012A0008F5F8B35E1F708958830910541F4E4E6CE
:1012B000F5E08BE581938F5F8836E1F708958930FB
:1012C000910541F4E4E6F5E088E681938F5F853788
:1012D000E1F708950A9739F4E4E6F5E085E78193AC
:1012E0008F5F8238E1F708950F931F93CF93DF93B9
:1012F000C0915205D0E084E680934D0168EC70E027
:1013000080E090E00E943B3987EB95E00E947334C7
:101310000E940202082F10E040E060E087EB95E0B9
:101320000E947A3464EB71E087EB95E00E945D3DAA
:101330004AE050E0BE0187EB95E00E94FF3D03309C
:10134000110529F42196CB30D10544F529C006308A
:10135000110529F421971C161D0614F126C0023030
:101360001105F1F4C09325050E94DF080E94F900E1
:10137000C09352050E942701109224051092250562
:1013800087EB95E00E94733460E570E080E090E0C8
:10139000DF91CF911F910F910C943B39C1E0D0E0C8
:1013A00064E670E080E090E0ADCFCAE0D0E0F8CF36
:1013B000EF92FF920F931F93CF93DF93C0E0D0E0A3
:1013C00087EB95E00E9473340E940202082F10E020
:1013D000FE01EE0FFF1FE456FB4F80810E94D201F9
:1013E000E82EF12CC730D1052CF460E070E081E0EC
:1013F00090E007C0C730D10531F061E070E080E0D7
:1014000090E00E942E0241E060E087EB95E00E94B0
:101410007A3461EB71E087EB95E00E945D3D4AE034
:1014200050E0BE0187EB95E00E94FF3D6CEB71E060
:1014300087EB95E00E945D3D4AE050E0B70187EB05
:1014400095E00E94FF3D61EC71E087EB95E00E9422
:101450005D3D4AE050E0FE01E051FB4F608187EBCB
:1014600095E00E94143E0530110511F4219604C048
:101470000430110539F4219764E670E080E090E0D3
:101480000E943B39CE30D1053CF4CF3F8FEFD807D7
:1014900029F4CDE0D0E002C0C0E0D0E00330110577
:1014A00031F4FE01E051FB4F80818F5F08C00630B0
:1014B000110531F4FE01E051FB4F808181508083A2
:1014C00064E670E080E090E00E943B390230110554
:1014D00009F076CF87EB95E00E9473340E94E2001A
:1014E0006CE271E080E090E0DF91CF911F910F916D
:1014F000FF90EF900C943B39CF92DF92EF92FF92E6
:101500000F931F93CF93DF93CDB7DEB766970FB6D8
:10151000F894DEBF0FBECDBF109225051092500586
:10152000E0907105FF24E7FCF094D09050058AE02C
:101530008D1590F00D2D10E0C701800F911F0E94B6
:10154000D700ECE0F0E0EC0FFD1FE00FF11F80830F
:10155000D394D0925005E9CF10925005E0907205D7
:10156000FF24E7FCF094D09050058AE08D1590F0B0
:101570000D2D10E0C701800F911F0E94D700E1E000
:10158000F0E0EC0FFD1FE00FF11F8083D394D092A9
:101590005005E9CFDD24D3940E940202E82EF12CFD
:1015A00087EB95E00E94733440E060E087EB95E0C4
:1015B0000E947A3466EC71E087EB95E00E945D3D15
:1015C0000D2D112707FD10954AE050E0B80187EB7B
:1015D00095E00E94FF3D41E060E087EB95E00E94CE
:1015E0007A3462ED71E087EB95E00E945D3DE1E0C9
:1015F000F0E0EC0FFD1FE00FF11FC0806C2D77278E
:1016000067FD70954AE050E087EB95E00E94FF3D52
:1016100083E0E816F10429F4D3948AE08D1594F15F
:1016200033C086E0E816F10421F4DA94D7FE2CC02A
:1016300032C082E0E816F10439F51D1444F4C0927A
:101640002E05FE01E00FF11F848580934B05D0929B
:10165000240587EB95E00E94733481E080932D058B
:1016600084E68093250566960FB6F894DEBF0FBE1C
:10167000CDBFDF91CF911F910F91FF90EF90DF9041
:10168000CF900895DD24D39464E670E080E090E08C
:101690000E943B3981CF6AE0D62EF6CF8F929F927F
:1016A000AF92BF92CF92DF92EF92FF928FE10E94B2
:1016B000CD399093090580930805BC0180E090E046
:1016C0000E94624020E030E040EA50E40E9418416D
:1016D00020E030EC4FE754E40E94C93F6B017C01ED
:1016E00060930405709305058093060590930705A4
:1016F0008090440190904501A0904601B090470130
:10170000209148013091490140914A0150914B018B
:10171000C501B4010E94613F9B01AC01C501B40148
:101720000E94C93F9B01AC01C701B6010E94C93F9D
:101730006B017C012CEE31E548EB5DE30E94C53F77
:1017400087FD09C0C0920005D0920105E092020514
:10175000F092030508C01092000510920105109246
:10176000020510920305FF90EF90DF90CF90BF909D
:10177000AF909F908F900895E1EBF0E080818160C1
:101780008083E0E7F0E08081816080837894089531
:1017900080912B0581111BC08091440590914B05D0
:1017A0008917A8F490915105913089F490912805FA
:1017B00021E0290F20932805953128F08F5F809331
:1017C00044051092280561E080E00E94C33A8091B0
:1017D00044058093550590912B0591110CC0909173
:1017E0004B05891740F080915105813021F460E06C
:1017F00080E00E94C33A80915105811104C081E0CC
:1018000080932B0508959091550580914B0598176D
:1018100010F410922B0508951F920F920FB60F929D
:1018200011240BB60F922F933F934F935F936F93B7
:101830007F938F939F93AF93BF93EF93FF93809189
:101840001E0590911F05019799F480911C059091B8
:101850001D0508974CF08091B3059091B405019651
:101860009093B4058093B30510921D0510921C054A
:101870008091120590911305019749F480910E050E
:1018800090910F05019690930F0580930E050E948D
:1018900089060E94C80B609175052091180530914A
:1018A0001905613019F021303105D9F44091160540
:1018B00050911705CA01019690931705809316055C
:1018C00080912F0590E0880F991F481759074CF019
:1018D000809174058F5F80937405109217051092A4
:1018E00016052130310529F580911A0590911B05C7
:1018F0009C012F5F3F4F30931B0520931A050E97D5
:101900006CF0809114059091150501969093150542
:101910008093140510921B0510921A0580911405EE
:10192000909115050B9724F110921505109214054E
:101930001FC0613021F460E080E00E94C33A8091D2
:101940007505813051F08091180590911905019726
:1019500041F480917405863024F061E080E00E94BB
:10196000C33A809174058B3054F01092740507C00F
:10197000613009F38091740585300CF7DCCFFF915D
:10198000EF91BF91AF919F918F917F916F915F91F7
:101990004F913F912F910F900BBE0F900FBE0F9064
:1019A0001F901895CF92EF920F93E6E0CE2EF5E0C0
:1019B000EF2E04E023E042E061E087EB95E00E9437
:1019C00032350F91EF90CF900895462F682F87EB17
:1019D00095E00E947A3468E087EB95E00C948C35B2
:1019E000CF92DF92EF92FF920F931F93CF93DF93EB
:1019F000CDB7DEB762970FB6F894DEBF0FBECDBF8E
:101A000082E1EFE4F1E0DE01119601900D928A95FA
:101A1000E1F768EC70E080E090E00E943B3900E084
:101A200010E087EB95E00E9473340E940202C82EFA
:101A3000D12C85E0C816D10419F40F5F1F4F1CC0CC
:101A400094E0C916D10419F40150110919C083E0BA
:101A5000C816D10439F4F701EC5CFA4F80818F5F2E
:101A600080830EC096E0C916D10431F4F701EC5C16
:101A7000FA4F808181508083093011050CF0AAC093
:101A80000F3F8FEF180771F00115110509F4A2C07F
:101A90000130110581F002301105A1F0033011056C
:101AA000C1F002C008E010E004301105E1F005309B
:101AB0001105E9F003C079E0E72EF12C063011059D
:101AC000D1F003C06AE0E62EF12C07301105B9F021
:101AD00003C052E0E52EF12C0830110599F486E0A0
:101AE000E82EF12C0FC043E0E42EF12C0BC037E0C0
:101AF000E32EF12C07C024E0E22EF12C03C095E088
:101B0000E92EF12C61E070E080E090E00E94E50CAD
:101B100040E061E087EB95E00E947A3469ED71E086
:101B200087EB95E00E945D3D41E061E087EB95E049
:101B30000E947A34F801EE0FFF1F81E090E08C0FD5
:101B40009D1FE80FF91F6081718187EB95E00E946E
:101B50005D3D6CE473E087EB95E00E945D3D4AE0FB
:101B600050E0F701EC5CFA4F608187EB95E00E9452
:101B7000143E64E670E080E090E00E943B3992E021
:101B8000C916D10409F04DCF0E94100187EB95E0F2
:101B90000E94733440E061E087EB95E00E947A3464
:101BA00065EE71E087EB95E00E945D3D68EC70E0CA
:101BB00080E090E062960FB6F894DEBF0FBECDBF16
:101BC000DF91CF911F910F91FF90EF90DF90CF9019
:101BD0000C943B3900E010E0A8E0EA2EF12C67CF2E
:101BE0009F92AF92BF92CF92DF92EF92FF920F93AC
:101BF0001F93CF93DF93CDB7DEB766970FB6F894F8
:101C0000DEBF0FBECDBF10925005E0907105FF24DE
:101C1000E7FCF094D09050058AE08D1590F00D2DE2
:101C200010E0C701800F911F0E94D700ECE0F0E0A8
:101C3000EC0FFD1FE00FF11F8083D394D09250056D
:101C4000E9CF10925005E0907205FF24E7FCF09474
:101C5000D0905005EAE0ED1590F00D2D10E0C70191
:101C6000800F911F0E94D700E1E0F0E0EC0FFD1F14
:101C7000E00FF11F8083D394D0925005E9CFC12C9F
:101C8000D12C01E010E0B3E6BB2EAA24AA940E9456
:101C90000202E82EF12CF1E0EF16F10429F4CA94C7
:101CA000CD2809F497C004C0CA94CD2809F092C089
:101CB00087EB95E00E94733440E060E087EB95E0AD
:101CC0000E947A346EE072E087EB95E00E945D3D01
:101CD0004AE050E0B80187EB95E00E94FF3D61E0EB
:101CE00070E086E090E00E94E50C40E067E087EB62
:101CF00095E00E947A3462E172E087EB95E00E9401
:101D00005D3DE1E0F0E0EC0FFD1FE00FF11F6081B1
:101D1000772767FD70954AE050E087EB95E00E94D9
:101D2000FF3D41E067E087EB95E00E947A3469E18E
:101D300072E087EB95E00E945D3DACE0CA2ED12CAD
:101D4000CC0EDD1EC00ED11EF6019080692D7727C6
:101D500067FD70954AE050E087EB95E00E94FF3DFB
:101D6000F5E0EF16F10431F40F5F1F4F0B30110552
:101D70005CF51BC084E0E816F10421F40150110960
:101D800031F113C0E3E0EE16F10421F461E0690DD6
:101D9000F60107C0F6E0EF16F10439F4F6016081B0
:101DA00061506083802F0E943301ECE0F0E0EC0F83
:101DB000FD1FE00FF11F808187FFD1C0A0826FEF70
:101DC000802F0E943301CBC001E010E0EECF0AE08B
:101DD00010E0EBCF87EB95E00E94733440E060E0C9
:101DE00087EB95E00E947A346EE072E087EB95E035
:101DF0000E945D3D4AE050E0B80187EB95E00E940B
:101E0000FF3D60E070E086E090E00E94E50C40E07D
:101E100067E087EB95E00E947A3462E172E087EB3D
:101E200095E00E945D3DCC24C394D12CCC0EDD1EE8
:101E3000C00ED11EF6019080692D772767FD709541
:101E40004AE050E087EB95E00E94FF3D41E067E00B
:101E500087EB95E00E947A3469E172E087EB95E0C8
:101E60000E945D3DECE0F0E0EC0FFD1FE00FF11F84
:101E70006081772767FD70954AE050E087EB95E039
:101E80000E94FF3DF5E0EF16F10439F40F5F1F4F9C
:101E90000B3011050CF067C01CC0F4E0EF16F10424
:101EA00029F40150110909F461C013C083E0E81658
:101EB000F10421F461E0690DF60107C0F6E0EF16C8
:101EC000F10439F4F601608161506083802F0E9433
:101ED0004001E1E0F0E0EC0FFD1FE00FF11F908109
:101EE00080914D0189172CF4108260E0802F0E94B0
:101EF0004001E1E0F0E0EC0FFD1FE00FF11F8081F9
:101F000087FF05C0B08263E6802F0E944001C12C8C
:101F1000D12CF2E0EF16F104D9F487EB95E00E94A2
:101F2000733468EC70E080E090E066960FB6F89449
:101F3000DEBF0FBECDBFDF91CF911F910F91FF90FC
:101F4000EF90DF90CF90BF90AF909F900C943B3973
:101F500066E970E080E090E00E943B3998CECC24A6
:101F6000C394D12CD6CF01E010E0B3CF0AE010E04B
:101F7000B0CF462F682F87EB95E00E947A3480918E
:101F800014059091150506975CF0809118059091C5
:101F90001905019729F468E087EB95E00E948C35DC
:101FA00080911405909115050597A4F4809118056A
:101FB00090911905019771F4E091B705F091B8057A
:101FC0000280F381E02D41E050E060E572E087EBB4
:101FD00095E009958091180590911905892B29F4B0
:101FE00068E087EB95E00C948C35089581110AC068
:101FF00087EB95E00E947A3460E287EB95E00E94DF
:102000005F3D0895813031F487EB95E00E947A348A
:1020100061E00FC0823031F487EB95E00E947A34A2
:1020200062E007C0833051F487EB95E00E947A3478
:1020300063E087EB95E00E948C350895843031F49D
:1020400087EB95E00E947A3464E017C0853031F464
:1020500087EB95E00E947A3465E00FC0863031F45A
:1020600087EB95E00E947A3466E007C0873049F438
:1020700087EB95E00E947A3467E087EB95E00C945B
:102080008C358830A9F30895CF92DF92EF92FF92BA
:102090000F931F93CF93DF931CE9C12E14E0D12E31
:1020A00000E010E08FE1E82EF12C60E070E081E0CC
:1020B00090E00E942E02F6018081F2E0CF0ED11C4A
:1020C0000E94D201C82FD0E00115110589F480913A
:1020D000F00490E08C179D0744F4CE01B7010E94F4
:1020E0008F41862F40E061E013C040E061E015C001
:1020F00001301105E1F48091F10490E08C179D0707
:1021000054F4CE01B7010E948F41862F40E062E077
:102110000E94F60F53C040E062E087EB95E00E941A
:102120007A3460E287EB95E00E945F3D47C0023061
:102130001105E1F48091F20490E08C179D0754F4AE
:10214000CE01B7010E948F41862F40E063E00E94DC
:10215000F60F48C040E063E087EB95E00E947A34D8
:1021600060E287EB95E00E945F3D3CC003301105C3
:1021700089F48091F30490E08C179D0744F4CE011C
:10218000B7010E948F41862F40E064E03BC040E0F1
:1021900064E03DC00430110589F48091F40490E0BE
:1021A0008C179D0744F4CE01B7010E948F41862F02
:1021B00040E065E027C040E065E029C0053011053A
:1021C00089F48091F50490E08C179D0744F4CE01CA
:1021D000B7010E948F41862F40E066E013C040E0C7
:1021E00066E015C006301105D9F48091F60490E040
:1021F0008C179D0754F4CE01B7010E948F41862FA2
:1022000040E067E00E94F60F0BC040E067E087EB1C
:1022100095E00E947A3460E287EB95E00E945F3D92
:102220000F5F1F4F0730110509F03FCFCAEACC2ED0
:10223000C4E0DC2E07E010E0DFE1ED2EF12C61E0E0
:1022400070E080E090E00E942E02F6018081F2E0D2
:10225000CF0ED11C0E94D201C82FD0E0073011054B
:1022600089F48091F70490E08C179D0744F4CE0127
:10227000B7010E948F41862F40E068E013C040E024
:1022800068E015C008301105E1F48091F80490E091
:102290008C179D0754F4CE01B7010E948F41862F01
:1022A00040E069E00E94F60F53C040E069E087EB30
:1022B00095E00E947A3460E287EB95E00E945F3DF2
:1022C00047C009301105E1F48091F90490E08C17C2
:1022D0009D0754F4CE01B7010E948F41862F40E044
:1022E0006AE00E94F60F48C040E06AE087EB95E0A4
:1022F0000E947A3460E287EB95E00E945F3D3CC02B
:102300000A30110589F48091FA0490E08C179D073A
:1023100044F4CE01B7010E948F41862F40E06BE06C
:102320003BC040E06BE03DC00B30110589F480916B
:10233000FB0490E08C179D0744F4CE01B7010E9486
:102340008F41862F40E06CE027C040E06CE029C060
:102350000C30110589F48091FC0490E08C179D07E6
:1023600044F4CE01B7010E948F41862F40E06DE01A
:1023700013C040E06DE015C00D301105D9F4809117
:10238000FD0490E08C179D0754F4CE01B7010E9424
:102390008F41862F40E06EE00E94F60F0BC040E0B8
:1023A0006EE087EB95E00E947A3460E287EB95E07F
:1023B0000E945F3D0F5F1F4F0E30110509F03FCFA8
:1023C000DF91CF911F910F91FF90EF90DF90CF9011
:1023D00008959F92AF92BF92CF92DF92EF92FF92B9
:1023E0000F931F93CF93DF93CDB7DEB7A0970FB6B0
:1023F000F894DEBF0FBECDBFAE014F5E5F4FCE0182
:102400000196E0EFF4E02FEF1192DC012D93CD0166
:10241000DA011D92AD01B5E0E030FB07A9F787EBCB
:1024200095E00E9473345E01E1E2AE0EB11C0E94A1
:102430000202982E60E070E081E090E00E942E029F
:102440000CE914E0CE0141967C01DE0111966D018C
:10245000F80180810E5F1F4F0E94D201D6019C912E
:10246000891708F48C93F7019081981708F48083FA
:1024700082E390E00E947539FFEFCF1ADF0A3FEF49
:10248000E31AF30A84E00A3A180711F761E070E0F2
:1024900080E090E00E942E020AEA14E0DE01189625
:1024A0006D01FE0178967F01D8018C910E5F1F4F60
:1024B0000E94D201F6019081891708F48083D70128
:1024C0009C91981708F48C9382E390E00E947539F0
:1024D000BFEFCB1ADB0AEFEFEE1AFE0AF4E0083B7F
:1024E0001F0711F760EF74E0CE010196FE017196AF
:1024F0002191DC014D91CD0130E0241B310937FFE2
:1025000002C02F5F3F4F35952795240FDB012D9398
:10251000BD01EA15FB0561F70E94441041E060E04F
:1025200087EB95E00E947A3460E272E087EB95E0F9
:102530000E945D3DB2E09B127ACF60E070E080E0E7
:1025400090E00E942E020E94E20087EB95E0A096A8
:102550000FB6F894DEBF0FBECDBFDF91CF911F91B4
:102560000F91FF90EF90DF90CF90BF90AF909F9032
:102570000C947334FF920F931F93CF93DF9368EC07
:1025800070E080E090E00E943B39C0E0D0E065E080
:10259000F62E0E940202082F10E00430110529F4E3
:1025A0002196C230D1055CF404C00530110509F450
:1025B0002197CF3F8FEFD80799F0CD2B89F40330C7
:1025C000110519F006301105A9F4F0922F050E94AB
:1025D000E91160E070E080E090E00E942E020AC005
:1025E0000330110519F40E94F00C41C006301105AA
:1025F000F1F5F9CF87EB95E00E94733460E070E06D
:1026000080E090E00E94E50C40E061E087EB95E01F
:102610000E947A346CE272E087EB95E00E945D3DA7
:1026200041E061E087EB95E00E947A3466E372E076
:1026300087EB95E00E945D3DC0E0D0E064E670E08D
:1026400080E090E00E943B390230110509F0A1CFF3
:1026500064E670E080E090E00E943B3989E180937D
:102660002F05DF91CF911F910F91FF90089587EB78
:1026700095E00E94733440E061E087EB95E00E94B2
:102680007A346CE272E087EB95E00E945D3D61E098
:1026900070E080E090E00E94E50C41E061E087EBB3
:1026A00095E00E947A3466E372E087EB95E00E9441
:1026B0005D3DC1E0D0E0C2CF0F931F93CF93DF9376
:1026C000909357058093560540E061E087EB95E0D5
:1026D0000E947A34C0E0D0E000E010E2C8010C2E85
:1026E00002C0959587950A94E2F72091560530919E
:1026F000570582239323892B11F06FEF01C06FE5FB
:1027000087EB95E00E948C352196CE30D10531F7CC
:10271000DF91CF911F910F910895813019F481E0DD
:1027200090E05EC0823019F480E090E259C08330BE
:1027300019F481E090E254C0843019F482E090E012
:102740004FC0853019F480E090E14AC0863019F41A
:1027500082E090E145C08F3069F440E062E087EBB1
:1027600095E00E947A3462E472E087EB95E00E9483
:102770005D3D0895863119F480E090E031C08031EC
:1027800019F480EE91E32CC0813119F483EE91E0CD
:1027900027C0823119F48FE09CE322C0833119F401
:1027A00083EE91E31DC0843119F480EE9DE018C0E2
:1027B000853119F48CEE91E013C0873019F480E074
:1027C00098E00EC0883019F484E090E009C08930A8
:1027D00019F484E098E004C08A3029F480E094E0A1
:1027E0000E945C1308958B3019F488E090E013C0C8
:1027F0008C3019F488E094E00EC08D3019F480E03C
:1028000098E309C08E3019F487E090E004C0873166
:1028100021F48FEF9FE30C945C1308950F931F93A3
:10282000CF93DF931F92CDB7DEB78B0160E570E0E9
:102830008FEC95E049830E943D36612F70E08FEC6C
:1028400095E00E94DB00B80177278FEC95E00E94AD
:10285000DB004981642F8FEC95E00E94EA358FEC14
:1028600095E00E94B63665E070E080E090E00F9061
:10287000DF91CF911F910F910C943B39CF92DF9252
:10288000EF92FF920F931F93CF93DF9388E0809393
:102890002F0587EB95E00E94733440E060E087EB02
:1028A00095E00E947A3462E572E087EB95E00E9441
:1028B0005D3D0E940202C82FD0E041E060E087EB5E
:1028C00095E00E947A3460E672E087EB95E00E9422
:1028D0005D3DC130D10559F487EB95E00E9473341A
:1028E000D0931905C0931805C0E0D0E00EC024971E
:1028F00001F768EE73E080E090E00E943B3987EBDF
:1029000095E00E947334C0E079C000E010E09E01C1
:102910002C593A4F6901CE018C5C9A4F7C01909101
:102920004C01F6018081B8019802600D711D1124DF
:1029300080915205F701408190E00E940E140F5FD4
:102940001F4F0536110559F740E060E087EB95E031
:102950000E947A3462E572E087EB95E00E945D3D6B
:1029600041E06C2F87EB95E00E947A346FEF87EBA4
:1029700095E00E948C352196CE30D10531F66091DC
:102980004C0180916B056802B001112480915205C1
:1029900044E190E00E940E1461E18CE390E00E941B
:1029A000D90060E18DE390E00E94D9006FE08EE3F2
:1029B00090E00E94D900C0E0D0E08091710560E015
:1029C000FE01E80FF11D87FDFA95CF010E94D900A5
:1029D0002196CB30D10589F7C0E0D0E08091720517
:1029E00060E09E01280F311D87FD3A95C9010E94C4
:1029F000D9002196CB30D10589F77BCF41E06C2FF0
:102A000087EB95E00E947A346FEF87EB95E00E94A8
:102A10008C356CE370E080E090E00E943B39CF5F42
:102A2000C03161F710922F05109219051092180508
:102A300060E080E0DF91CF911F910F91FF90EF90C8
:102A4000DF90CF900C94C33ACF93DF93EB0160E516
:102A500070E08FEC95E00E943D366D2F70E08FECBA
:102A600095E00E94DB00BE0177278FEC95E00E9485
:102A7000DB008FEC95E00E94B63641E050E060E567
:102A800070E08FEC95E00E94B3368FEC95E00E94E9
:102A90009235892B29F08FEC95E00E949A3501C080
:102AA00080E0DF91CF91089560914C0180916405A1
:102AB0006802B00111246F5F7F4F80912E05680F6F
:102AC000711D8091520590E00E9424158093480565
:102AD00060914C01809165056802B00111246F5F1F
:102AE0007F4F80912E05680F711D8091520590E0F7
:102AF0000E9424158093490590914C0180916605B0
:102B000060912E0570E09802600D711D1124809176
:102B1000520590E00E94241580934D0590914C0140
:102B20008091670560912E0570E09802600D711D1F
:102B300011248091520590E00E94241580934C0549
:102B400090914C018091680560912E0570E098028B
:102B5000600D711D11248091520590E00E94241592
:102B600080934B0590914C018091690560912E05F1
:102B700070E09802600D711D11248091520590E063
:102B80000E9424158093470590914C0180916A051D
:102B900060912E0570E09802600D711D11248091E6
:102BA000520590E00E9424158093460590914C01B7
:102BB00080916B0560912E0570E09802600D711D8B
:102BC00011248091520590E00E94241580934A05BB
:102BD00090914C0180916C0560912E0570E09802F7
:102BE000600D711D11248091520590E00E94241502
:102BF00080934F0590914C0180916D0560912E0559
:102C000070E09802600D711D11248091520590E0D2
:102C10000E94241580934E0590914C0180916E0581
:102C200060912E0570E09802600D711D1124809155
:102C3000520590E00E9424158093540590914C0118
:102C400080916F0560912E0570E09802600D711DF6
:102C500011248091520590E00E9424158093430531
:102C600090914C018091700560912E0570E0980262
:102C7000600D711D11248091520590E00E94241571
:102C80008093450508950F931F93CF93DF93CDB79E
:102C9000DEB7C053D1400FB6F894DEBF0FBECDBF34
:102CA000809127058093500501E010E09091500538
:102CB000809126051092310510923005981708F082
:102CC00049C00E94DF0860914C019091700580918D
:102CD00050056902B0011124680F711D809125050E
:102CE00090E00E942415282F30E0109331050093C6
:102CF00030052230310589F40E94DF0860914C01D3
:102D000090917005809150056902B0011124680FFF
:102D1000711D8091240543E014C02330310509F072
:102D2000DFC00E94DF0860914C0190917005809196
:102D300050056902B0011124680F711D80912405AE
:102D400042E090E00E940E14809150058F5F8093C6
:102D50005005ACCF0E94DF08809127058093500575
:102D60000091500580912605081708F04AC010E030
:102D700090914C0180916505B8019802600D711D1C
:102D800011248091250590E00E942415E1E0F0E0F7
:102D9000EC0FFD1FE00FF11F80830091500510E044
:102DA00090914C0180916905B8019802600D711DE8
:102DB00011248091250590E00E942415EBECF0E0B1
:102DC000EC0FFD1FE00FF11F80830091500510E014
:102DD00090914C0180916A05B8019802600D711DB7
:102DE00011248091250590E00E942415E6E6F0E08C
:102DF000EC0FFD1FE00FF11F8083809150058F5F66
:102E0000ADCF81E090E090933105809330050E9432
:102E1000DF088091270580935005609150058091CF
:102E20002605681708F076C070E0E1E0F0E0EC0FEE
:102E3000FD1FE60FF71F80818230F1F490914C0165
:102E400080916905EBECF0E0EC0FFD1FE60FF71F3A
:102E50009802600D711D112480912405408190E03D
:102E60000E940E146091500570E090914C01809189
:102E70006A05E6E6F0E022C0833019F08550823022
:102E800058F590914C0180916905E6E6F0E0EC0F71
:102E9000FD1FE60FF71F9802600D711D1124809130
:102EA0002405408190E00E940E146091500570E06E
:102EB00090914C0180916A05EBECF0E0EC0FFD1F66
:102EC000E60FF71F9802600D711D112480912405F3
:102ED000408190E00E940E14809150058F5F9BCF3F
:102EE000C05DDE4F8883C053D1400E94DF086091EF
:102EF0004C0190917005809150056902B001112438
:102F0000680F711D80912405C05DDE4F4881C0535C
:102F1000D14017CFC05DDE4F0FB6F894DEBF0FBEB5
:102F2000CDBFDF91CF911F910F9108959F92AF92E6
:102F3000BF92CF92DF92EF92FF920F931F93CF93A6
:102F4000DF938C0174E6A72E75E0B72EC12CD12C2F
:102F5000EE24E394F12C8091270580935005909105
:102F6000500580912605981708F019C21092310576
:102F7000109230050E94DF0860914C01F5019081AC
:102F8000809150056902B0011124680F711D809174
:102F9000250590E00E942415982EC82FD0E0C1147A
:102FA000D10409F090C10130110509F0DAC1C13036
:102FB000D105A9F410933105009330050E94DF0874
:102FC00060914C0190916405809150056902B001B7
:102FD0001124680F711D8091240542E017C0C23092
:102FE000D105D1F410933105009330050E94DF081C
:102FF00060914C0190916405809150056902B00187
:103000001124680F711D8091240541E090E00E9419
:103010000E1421E030E059C0C430D105D1F4109332
:103020003105009330050E94DF0860914C019091BA
:103030006405809150056902B0011124680F711D6B
:103040008091240545E090E00E940E1421E030E0DC
:1030500059C0C530D105D1F4109331050093300526
:103060000E94DF0860914C019091640580915005A9
:103070006902B0011124680F711D8091240544E09C
:1030800090E00E940E1421E030E076C0C730D105F8
:10309000D1F410933105009330050E94DF08609150
:1030A0004C0190916405809150056902B001112492
:1030B000680F711D8091240548E090E00E940E1475
:1030C00021E030E076C020E030E0C830D105D1F416
:1030D000F0923105E09230050E94DF0860914C01CA
:1030E00090916405809150056902B0011124680F28
:1030F000711D8091240547E090E00E940E1421E0AC
:1031000030E074C0CA30D105D1F4F0923105E092BC
:1031100030050E94DF0860914C0190916405809118
:1031200050056902B0011124680F711D80912405BA
:103130004BE090E00E940E1421E030E06FC0CB30F5
:10314000D105D1F4F0923105E09230050E94DF08FC
:1031500060914C0190916405809150056902B00125
:103160001124680F711D809124054AE090E00E94AF
:103170000E1421E030E06AC0CD30D105D1F4F092D8
:103180003105E09230050E94DF0860914C0190917A
:103190006405809150056902B0011124680F711D0A
:1031A000809124054EE090E00E940E1421E030E072
:1031B00065C0CE30D105D1F4F0923105E0923005F2
:1031C0000E94DF0860914C01909164058091500548
:1031D0006902B0011124680F711D809124054DE032
:1031E00090E00E940E1421E030E05FC0C031D105B4
:1031F000A9F4F0923105E09230050E94DF08609159
:103200004C0190916405809150056902B001112430
:10321000680F711D8091240541E1A0C0C131D10525
:10322000A9F4F0923105E09230050E94DF08609128
:103230004C0190916405809150056902B001112400
:10324000680F711D8091240540E188C0C431D1050B
:10325000A9F4F0923105E09230050E94DF086091F8
:103260004C0190916405809150056902B0011124D0
:10327000680F711D8091240545E170C06597A9F420
:10328000F0923105E09230050E94DF0860914C0118
:1032900090916405809150056902B0011124680F76
:1032A000711D8091240544E159C0232B09F059C0B8
:1032B000F0923105E09230050E94DF0860914C01E8
:1032C0009091640541C0F1E0CF16D10479F5013049
:1032D000110509F046C01093310500933005C23046
:1032E000D10589F40E94DF0860914C019091650539
:1032F000809150056902B0011124680F711D809101
:10330000240543E02BC02397C9F40E94DF08609195
:103310004C0190916505809150056902B00111241E
:10332000680F711D8091240542E018C0013011051D
:10333000C1F410933105009330051AC00E94DF08D4
:1033400060914C0190916505809150056902B00132
:103350001124680F711D80912405492D90E00E9471
:103360000E1401151105B9F4F0923105E092300503
:103370000E94DF0860914C01F50190818091500519
:103380006902B0011124680F711D80912405492D37
:1033900090E00E940E14809150058F5FDECDFFEF0C
:1033A000CF1ADF0A8FEFA81AB80AEDE0CE16D104C3
:1033B00009F0D1CD87EB95E00E94733440E060E0E6
:1033C00087EB95E00E947A3460E772E087EB95E046
:1033D0000E945D3D68EC70E080E090E00E943B3927
:1033E0000130110511F40E944316DF91CF911F9116
:1033F0000F91FF90EF90DF90CF90BF90AF909F9094
:103400000C9492016F927F928F929F92AF92BF9293
:10341000CF92DF92EF92FF920F931F93CF93DF93A0
:10342000109226051092270581E080932405809351
:10343000250501E010E077247394FAE06F2EAEE7E3
:10344000CA2EA2E0DA2EC6E7D5E0B1E9AB2EB2E093
:10345000BB2E80E9882E82E0982E0E940202E82E80
:10346000F12C81E0E816F10419F40F5F1F4F07C239
:1034700094E0E916F10409F002C20150110909F4BF
:1034800003C201301105B1F48091250593E0E916DE
:10349000F10411F48F5F05C096E0E916F10419F408
:1034A000815080932505809125058536A8F11092DD
:1034B000250532C002301105B1F48091240593E056
:1034C000E916F10411F48F5F05C096E0E916F104E6
:1034D00019F4815080932405809124058536B0F13C
:1034E0001092240533C003301105C1F480912705E3
:1034F00093E0E916F10411F48F5F05C096E0E91638
:10350000F10419F4815080932705809127058536B1
:10351000E8F0109227051AC001E010E00430110510
:10352000A9F48091260593E0E916F10411F48F5F68
:1035300005C096E0E916F10419F481508093260540
:1035400080912605853610F010922605809125057C
:103550008B3010F07092250580912505811102C0F5
:1035600060922505809124058B3010F0709224051F
:1035700080912605843610F010922605809127054B
:10358000843610F0109227050130110509F047C06C
:1035900087EB95E00E94733440E061E087EB95E0B3
:1035A0000E947A34809124051F928F938091250583
:1035B0001F928F93DF92CF92DF93CF930E941C4292
:1035C00066E775E087EB95E00E945D3D60E070E0A6
:1035D00080E090E00E94E50C41E060E087EB95E040
:1035E0000E947A34809126051F928F93809127053F
:1035F0001F928F939F928F92DF93CF930E941C42D2
:1036000066E775E087EB95E00E945D3D8DB79EB75C
:1036100040960FB6F8949EBF0FBE8DBFE0C002303B
:10362000110509F047C087EB95E00E94733440E034
:1036300061E087EB95E00E947A34809124051F9227
:103640008F93809125051F928F93DF92CF92DF9306
:10365000CF930E941C4266E775E087EB95E00E94DD
:103660005D3D60E070E089E090E00E94E50C41E0A3
:1036700060E087EB95E00E947A34809126051F92E6
:103680008F93809127051F928F939F928F92DF9344
:10369000CF930E941C4266E775E087EB95E00E949D
:1036A0005D3D8DB79EB740960FB6F8949EBF0FBE96
:1036B0008DBF95C00330110509F047C087EB95E039
:1036C0000E94733440E061E087EB95E00E947A3419
:1036D000809124051F928F93809125051F928F93CF
:1036E000DF92CF92DF93CF930E941C4266E775E092
:1036F00087EB95E00E945D3D61E070E080E090E046
:103700000E94E50C41E061E087EB95E00E947A348D
:10371000809126051F928F93809127051F928F938A
:10372000BF92AF92DF93CF930E941C4266E775E091
:1037300087EB95E00E945D3D8DB79EB740960FB632
:10374000F8949EBF0FBE8DBF4AC00430110509F02A
:1037500046C087EB95E00E94733440E061E087EB60
:1037600095E00E947A34809124051F928F93809176
:1037700025051F928F93DF92CF92DF93CF930E9404
:103780001C4266E775E087EB95E00E945D3D41E0F5
:1037900061E087EB95E00E947A34809126051F92C4
:1037A0008F93809127051F928F93BF92AF92DF93E3
:1037B000CF930E941C4266E775E087EB95E00E947C
:1037C0005D3D61E070E089E090E00E94E50C8DB71E
:1037D0009EB740960FB6F8949EBF0FBE8DBF64E6AD
:1037E00070E080E090E00E943B3992E0E916F1043D
:1037F00009F033CE87EB95E00E9473340E940202F9
:10380000C82FD0E041E060E087EB95E00E947A3479
:1038100063EA72E087EB95E00E945D3DC130D1051F
:1038200029F0249759F7C0E0D0E002C0C1E0D0E011
:1038300087EB95E00E94733440E060E087EB95E011
:103840000E947A3462EB72E087EB95E00E945D3D66
:10385000CE010E94961764E670E080E090E0DF9170
:10386000CF911F910F91FF90EF90DF90CF90BF907D
:10387000AF909F908F907F906F900C943B39053064
:1038800011050CF001CEFDCD04E010E047CE6F92A3
:103890007F928F929F92AF92BF92CF92DF92EF92E0
:1038A000FF920F931F93CF93DF938FE080932F05A9
:1038B00064E670E080E090E00E943B39C12CD12C9E
:1038C00000E010E0C0E0D0E052E0E52EF12C6624EC
:1038D0006394712C0E940202A82EB12C87EB95E014
:1038E0000E94733482E0E816F10411F4012B01F513
:1038F00090914C0180916C05BE019802600D711D84
:1039000011248091520590E00E94241580934F0568
:1039100090914C0180916D05BE019802600D711D62
:1039200011248091520590E00E94241580934E0549
:1039300085E0A816B10421F48FEFE81AF80AC8C18F
:1039400084E0A816B10421F481E0E81AF108C0C1AE
:1039500083E0A816B10429F4C114D10411F521960D
:10396000B7C186E0A816B10429F4C114D104C9F482
:103970002197AEC181E0A816B10499F462E370E02A
:1039800080E090E00E943B3901E010E0CA94CD282D
:1039900069F07092190560921805CC24C394D12C5B
:1039A0000FC001E010E0CA94CD2899F310921905D8
:1039B0001092180560E080E00E94C33AC12CD12C1F
:1039C00083E0E816F10441F0F7FE0AC000E010E0E1
:1039D00032E0E32EF12C04C000E010E0E12CF12CE9
:1039E000CF3F8FEFD80741F0C436D1054CF000E04F
:1039F00010E0C0E0D0E004C000E010E0C3E6D0E09A
:103A000040E060E087EB95E00E947A346FEB72E073
:103A100087EB95E00E945D3D4AE050E0BE0187EBF8
:103A200095E00E94FF3DE114F10439F561E070E09A
:103A300080E090E00E94B90F83E0A816B10449F439
:103A400081E0C816D10409F0F9C040914F054F5FDD
:103A50000DC086E0A816B10409F0F0C081E0C816D8
:103A6000D10409F0EBC040914F05415040934F0500
:103A700090914C0180916C052AC081E0E816F10418
:103A800099F561E070E088E090E00E94B90F83E072
:103A9000A816B10449F481E0C816D10409F0CEC0DB
:103AA00040914E054F5F0DC086E0A816B10409F0A5
:103AB000C5C081E0C816D10409F0C0C040914E05D0
:103AC000415040934E0590914C0180916D05BE018F
:103AD0009802600D711D11248091520590E00E94A2
:103AE0000E1400E010E0AAC082E0E816F10409F02C
:103AF00084C060E070E088E090E00E94B90F40E090
:103B000069E087EB95E00E947A3465EC72E087EB20
:103B100095E00E945D3D90914C0180916E05BE0143
:103B20009802600D711D11248091520590E00E9451
:103B300024154AE050E0682F87EB95E00E94143E80
:103B400041E061E087EB95E00E947A346AEC72E034
:103B500087EB95E00E945D3D4AE050E060914F05A3
:103B600087EB95E00E94143E41E069E087EB95E029
:103B70000E947A346EEC72E087EB95E00E945D3D26
:103B80004AE050E060914E0587EB95E00E94143EBC
:103B900083E0A816B10481F481E0C816D10469F568
:103BA00085E0880E911C8FEF88169104B9F0B4F06F
:103BB00025E0822E912C12C086E0A816B104E9F40B
:103BC00081E0C816D104C9F485E0881A910885E01F
:103BD000881691041CF488248A94912C90914C01AD
:103BE00080916E05BE019802600D711D11248091B7
:103BF0005205482D90E00E940E1464E670E080E0CB
:103C000090E00E943B3982E0A816B10409F062CE30
:103C1000109219051092180560E080E0DF91CF91B5
:103C20001F910F91FF90EF90DF90CF90BF90AF90DA
:103C30009F908F907F906F900C94C33A40E069E022
:103C400087EB95E00E947A3465EC72E087EB95E0B3
:103C50000E945D3D90914C0180916E05BE019802DD
:103C6000600D711D11248091520590E00E94241571
:103C70004AE050E0682F87EB95E00E94143E41E057
:103C800061E087EB95E00E947A346AEC72E087EBA2
:103C900095E00E945D3D4AE050E060914F0587EB62
:103CA00095E00E94143E41E069E087EB95E00E94B8
:103CB0007A346EEC72E087EB95E00E945D3D4AE05D
:103CC00050E060914E0587EB95E00E94143E95CF41
:103CD00000E010E068CEBF92CF92DF92EF92FF92A9
:103CE0000F931F93CF93DF93CDB7DEB764970FB6D3
:103CF000F894DEBF0FBECDBF8C017B0184E1E1E60D
:103D0000F1E0DE01119601900D928A95E1F7909114
:103D10004C0180916405B8019802600D711D112459
:103D20008091520590E00E942415C82E90914C017C
:103D300080916505B8019802600D711D1124809174
:103D4000520590E00E942415B82E87EB95E00E9462
:103D50007334E114F10419F460E070E006C081E00E
:103D6000E816F10429F461E070E080E090E008C01A
:103D700082E0E816F10431F461E070E087E090E061
:103D80000E94B90F01151105E1F540E061E087EBF4
:103D900095E00E947A3463ED72E087EB95E00E9433
:103DA0005D3D41E061E087EB95E00E947A3467EB8E
:103DB00073E087EB95E00E945D3D4AE050E060E0F3
:103DC00070E087EB95E00E94FF3D41E068E087EB03
:103DD00095E00E947A3480915105811106C062EE0F
:103DE00072E087EB95E00E945D3D80915105813046
:103DF00009F07DC169EE72E087EB95E00E945D3DC0
:103E000076C1D12C90914C0180916405B801980243
:103E1000600D711D11248091520590E00E942415BF
:103E20000E948D1341E061E087EB95E00E947A34B7
:103E300067EB73E087EB95E00E945D3D4AE050E060
:103E4000B80187EB95E00E94FF3D41E068E087EB19
:103E500095E00E947A3490914C0180916505B801FB
:103E60009802600D711D11248091520590E00E940E
:103E70002415FE013196E80FF11DE80FF11D329770
:103E80006081718187EB95E00E945D3D0E94020296
:103E9000833011F5E114F104F9F480911805909143
:103EA00019050197C9F48FEFC81AD80A88E1C81616
:103EB000D1041CF0CC24C394D12C90914C0180915E
:103EC0006405B8019802600D711D1124809152059E
:103ED0004C2D90E00E940E140E9402028630F9F4EC
:103EE000E114F104E1F4809118059091190501970E
:103EF000B1F4A601415051094230510514F448E192
:103F000050E090914C0180916405B8019802600DD9
:103F1000711D11248091520590E00E940E14CB2C4B
:103F2000D12C0E940202833019F582E0E816F104D8
:103F3000F9F480911805909119050197C9F48FEF54
:103F4000C81AD80A8BE0C816D1041CF0CC24C3943C
:103F5000D12C90914C0180916505B8019802600DBB
:103F6000711D1124809152054C2D90E00E940E1479
:103F70000E940202863061F482E0E816F10409F042
:103F8000D5C08091180590911905019731F498C01A
:103F900082E0E816F10409F0C9C0809118059091FB
:103FA0001905019709F0C2C090914C0180916505F7
:103FB000B8019802600D711D11248091520590E0A6
:103FC0000E942415823079F490914C01809164050F
:103FD000B8019802600D711D1124809152054EE0C8
:103FE00090E00E940E1490914C0180916505B801FB
:103FF0009802600D711D11248091520590E00E947D
:104000002415833079F490914C0180916405B801B6
:104010009802600D711D1124809152054DE090E0D1
:104020000E940E1490914C0180916505B801980290
:10403000600D711D11248091520590E00E9424159D
:10404000813079F490914C0180916405B801980217
:10405000600D711D11248091520543E090E00E9493
:104060000E1490914C0180916505B8019802600D85
:10407000711D11248091520590E00E942415843016
:1040800008F454C090914C0180916405B8019802E5
:10409000600D711D1124809152054FE090E06496EF
:1040A0000FB6F894DEBF0FBECDBFDF91CF911F9149
:1040B0000F91FF90EF90DF90CF90BF900C940E1473
:1040C000A601415051091416150614F04AE050E0BB
:1040D00090914C0180916505B8019802600D711DA9
:1040E00011248091520590E00E940E1456CF82E078
:1040F000E816F104D9F40E940202833031F4809171
:10410000180590911905019769F00E940202863006
:1041100069F48091180590911905019739F410926E
:10412000510504C081E080935105EFCF64960FB62E
:10413000F894DEBF0FBECDBFDF91CF911F910F91DD
:10414000FF90EF90DF90CF90BF900895CF92DF92D5
:10415000EF92FF920F931F93CF93DF931F92CDB7F0
:10416000DEB76C018B0190914C0180916605B60120
:104170009802600D711D11248091520590E00E94FB
:104180002415E82E90914C0180916705B6019802A4
:10419000600D711D11248091520590E00E9424153C
:1041A000F82E87EB95E00E9473340330110519F463
:1041B00060E070E005C00430110531F461E070E0AA
:1041C00084E090E00E94B90F40E060E087EB95E06A
:1041D0000E947A3467EB73E087EB95E00E945D3DC7
:1041E0004AE050E0B60187EB95E00E94FF3D40E0D9
:1041F00065E087EB95E00E947A346EE273E087EB2E
:1042000095E00E945D3D90914C0180916605B6015C
:104210009802600D711D11248091520590E00E945A
:1042200024154AE050E0682F87EB95E00E94143E89
:1042300041E065E087EB95E00E947A3466E373E045
:1042400087EB95E00E945D3D90914C018091670560
:10425000B6019802600D711D11248091520590E005
:104260000E9424154AE050E0682F87EB95E00E94F9
:10427000143E0E940202833021F50330110509F536
:10428000209118053091190521303105D1F463C012
:1042900003301105D9F020E084E0E8121FC09091AE
:1042A0004C0180916605B6019802600D711D1124C4
:1042B00080915205422F90E029830E940E1429819B
:1042C000E22E0E940202863031F7E2CF20911805DB
:1042D0003091190521303105F1F640C02AEFE6EFA3
:1042E000EE16E9F20E940202833059F404301105FF
:1042F00041F420911805309119052130310509F458
:104300003FC00E940202863009F04CC00430110503
:1043100009F048C020911805309119052130310568
:1043200009F040C090914C018091670546EF4F0D18
:10433000B6019802600D711D11248091520590E024
:104340000F90DF91CF911F910F91FF90EF90DF9031
:10435000CF900C940E142AE02E0DA1CFF6EFEF0EA5
:1043600090914C0180916605B6019802600D711D17
:104370001124809152054E2D90E00E940E148BCF97
:104380008AE0F80E90914C0180916705B601980281
:10439000600D711D1124809152054F2D90E00E94F7
:1043A0000E14AFCF0F90DF91CF911F910F91FF901F
:1043B000EF90DF90CF900895AF92BF92CF92DF92AF
:1043C000EF92FF920F931F93CF93DF93CDB7DEB79A
:1043D0002E970FB6F894DEBF0FBECDBF8C017B01C8
:1043E00088E0E5E7F1E0DE01119601900D928A95F3
:1043F000E1F786E0EDE7F1E0DE01199601900D921C
:104400008A95E1F790914C0180916F05B80198026F
:10441000600D711D11248091520590E00E942415B9
:10442000A82EB82E90914C0180917005B801980289
:10443000600D711D11248091520590E00E94241599
:10444000C82ED82E87EB95E00E94733485E0E816DD
:10445000F10419F460E070E006C096E0E916F1049A
:1044600031F461E070E084E090E00E94B90F40E038
:1044700060E087EB95E00E947A3467EB73E087EBAE
:1044800095E00E945D3D4AE050E0B80187EB95E081
:104490000E94FF3D40E065E087EB95E00E947A34A2
:1044A0006EE373E087EB95E00E945D3DE1E0F0E0B4
:1044B000EC0FFD1F8C2D92E08902E00DF11D1124FF
:1044C0006681778187EB95E00E945D3D41E065E084
:1044D00087EB95E00E947A3466E473E087EB95E021
:1044E0000E945D3DEA2DEE0FFF0B81E090E08C0F06
:1044F0009D1FE80FF91F6081718187EB95E00E9495
:104500005D3D0E940202833011F596E0E916F10448
:10451000F1F4209118053091190521303105B9F4D5
:10452000BB24B394BA0C93E09B1514F4BB24B3944E
:1045300090914C0180916F05B8019802600D711D3A
:104540001124809152054B2D90E00E940E140E9480
:1045500002028630F1F486E0E816F104D1F42091ED
:104560001805309119052130310599F44FEF4B0DA5
:1045700014160CF043E090914C0180916F05B80146
:104580009802600D711D11248091520590E00E94E7
:104590000E140E940202833011F595E0E916F10431
:1045A000F1F4209118053091190521303105B9F445
:1045B000DD24D394DC0C83E08D1514F4DD24D39436
:1045C00090914C0180917005B8019802600D711DA9
:1045D0001124809152054D2D90E00E940E140E94EE
:1045E0000202863069F585E0E816F10449F580910C
:1045F000180590911905019719F54FEF4D0D1416F7
:104600000CF043E090914C0180917005B801980244
:10461000600D711D11248091520590E02E960FB609
:10462000F894DEBF0FBECDBFDF91CF911F910F91E8
:10463000FF90EF90DF90CF90BF90AF900C940E144E
:104640002E960FB6F894DEBF0FBECDBFDF91CF918F
:104650001F910F91FF90EF90DF90CF90BF90AF90A0
:104660000895AF92BF92CF92DF92EF92FF920F9395
:104670001F93CF93DF93EC017B0190914C018091CC
:104680006805BE019802600D711D112480915205CC
:1046900090E00E942415C82ED12C90914C0180915D
:1046A0006B05BE019802600D711D112480915205A9
:1046B00090E00E942415082F10E087EB95E00E94FF
:1046C000733487E0E816F10419F460E070E006C086
:1046D00088E0E816F10431F461E070E084E090E0F5
:1046E0000E94B90F40E060E087EB95E00E947A34C9
:1046F00067EB73E087EB95E00E945D3D4AE050E098
:10470000BE0187EB95E00E94FF3D40E065E087EB4E
:1047100095E00E947A3469E172E087EB95E00E94AF
:104720005D3D90914C0180916805BE019802600D3D
:10473000711D11248091520590E00E9424154AE0D9
:1047400050E0682F87EB95E00E94143E41E065E061
:1047500087EB95E00E947A342097D1F462E673E00B
:1047600087EB95E00E945D3D60914C0180916B0567
:104770006802B00111248091520590E00E94241536
:104780004AE050E0682F87EB95E00E94143E49C054
:1047900069E673E087EB95E00E945D3D90914C01E6
:1047A00080916B05BE019802600D711D11248091EE
:1047B000520590E00E942415843608F4F0C09091D0
:1047C0004C0180916B05BE019802600D711D112492
:1047D0008091520590E00E9424158536C0F090919A
:1047E0004C0180916B05BE019802600D711D112472
:1047F0008091520590E00E942415682F70E0645665
:1048000071094AE050E087EB95E00E94FF3D0436D5
:10481000110508F049C160E773E087EB95E00E945D
:104820005D3D84E10E94F93A892BC1F482E10E9446
:10483000F93A892B99F488E0E816F10479F480912B
:10484000100590911105892B49F4A0901805B0909E
:10485000190581E0A816B10409F4B7C084E10E94EB
:10486000F93A892BB1F482E10E94F93A892B89F453
:1048700088E0E816F10469F4809110059091110523
:10488000019739F48091180590911905019709F461
:10489000CBC00E940202833011F587E0E816F104D4
:1048A000F1F480911805909119050197C1F48FEFEB
:1048B000C81AD80AC11481E0D80611F4C12CD12C31
:1048C00090914C0180916805BE019802600D711DA8
:1048D0001124809152054C2D90E00E940E140E94EC
:1048E0000202863059F487E0E816F10439F4809129
:1048F000180590911905019709F4C4C00E9402029D
:10490000833009F588E0E816F104E9F48091180590
:10491000909119050197B9F40F5F1F4F0F3F1105D3
:1049200019F010F000E010E090914C0180916B05BF
:10493000BE019802600D711D112480915205402F17
:1049400090E00E940E140E940202863009F0B3C06B
:1049500088E0E816F10409F0AEC080911805909146
:104960001905019709F0A7C090914C0180916B0542
:10497000A80141505109BE019802600D711D11241A
:104980008091520590E0DF91CF911F910F91FF90A0
:10499000EF90DF90CF90BF90AF900C940E14909159
:1049A0004C0180916B05BE019802600D711D1124B0
:1049B0008091520590E00E9424154AE050E0682F53
:1049C00087EB95E00E94143EFACE00913B0510E083
:1049D0000C591F4F87EB95E00E94733440E060E074
:1049E00087EB95E00E947A3468E773E087EB95E007
:1049F0000E945D3DB0921105A092100568EE73E033
:104A000080E090E00E943B3990914C0180916B05D1
:104A1000BE019802600D711D112480915205402F36
:104A200090E00E940E141ACFB0903B050B2D10E0C1
:104A300087EB95E00E94733440E060E087EB95E0FF
:104A40000E947A3466E873E087EB95E00E945D3D52
:104A5000109211051092100568EE73E080E090E06E
:104A60000E943B3990914C0180916B05BE019802E8
:104A7000600D711D1124809152054B2D90E00E9414
:104A80000E1407CF90914C0180916805A60141500A
:104A90005109BE019802600D711D112480915205CB
:104AA00090E00E940E142ACF0536110508F4B9CE05
:104AB00064E773E0B2CEDF91CF911F910F91FF9029
:104AC000EF90DF90CF90BF90AF900895CF92DF929C
:104AD000EF92FF920F931F93CF93DF938FE080931A
:104AE0002F056CE271E080E090E00E943B39E12C00
:104AF000F12C00E010E0C0E0D0E0CC24C394D12C35
:104B00000E940202853039F48091180590911905B0
:104B1000892B09F4BAC00E940202843039F48091D2
:104B2000180590911905892B09F4B2C009301105B7
:104B30003CF40F3F8FEF180729F408E010E002C0A3
:104B400000E010E00E940202813021F4EA94EF2894
:104B500061F003C0EA94EF2841F4D0921905C092A5
:104B60001805EE24E394F12C0AC010921905109256
:104B7000180560E080E00E94C33AE12CF12C0E940D
:104B80000202833039F48091180590911905892B20
:104B900009F481C00E940202863039F48091180520
:104BA00090911905892B09F478C0C436D1053CF4DD
:104BB000CF3F8FEFD80729F4C3E6D0E002C0C0E0B2
:104BC000D0E00115110519F460E070E005C0013076
:104BD000110531F461E070E0CE010E946B1E1BC034
:104BE0000230110531F462E070E0CE010E946B1ECC
:104BF00018C00330110531F463E070E0CE010E946B
:104C0000A6201EC00430110531F464E070E0CE012E
:104C10000E94A6201DC00530110519F465E070E062
:104C200005C00630110531F466E070E0CE010E9447
:104C3000DC210EC00730110519F467E070E005C0F3
:104C40000830110529F468E070E0CE010E9431239C
:104C500068EC70E080E090E00E943B390E94020224
:104C6000823009F04DCF0E942D011092190510924B
:104C7000180560E080E0DF91CF911F910F91FF90C8
:104C8000EF90DF90CF900C94C33A0150110943CFBD
:104C90000F5F1F4F4BCF21967DCF219786CF2F924D
:104CA0003F924F925F926F927F928F929F92AF92BC
:104CB000BF92CF92DF92EF92FF920F931F93CF9309
:104CC000DF93CDB7DEB765970FB6F894DEBF0FBEA2
:104CD000CDBF84E1E1E6F1E0DE01119601900D9295
:104CE0008A95E1F784E680934D0168EC70E080E0FE
:104CF00090E00E943B39EE24E394F12C612C712C5E
:104D000001E010E026E7222E25E0322E0E9402026A
:104D1000C82ED12C81E0C816D10449F46A946728C2
:104D200021F066246394712C02C0612C712C909147
:104D30004C0180916505B8019802600D711D112428
:104D40008091520590E00E9424158D8B823049F5A8
:104D5000EA94EF28F1F490914C0180916905B80133
:104D60009802600D711D11248091520590E00E94FF
:104D70002415582E90914C0180916A05B801980233
:104D8000600D711D11248091520590E00E94241540
:104D9000482EA42CB12C852C912C919481949108AF
:104DA00014C2BD89B33049F5EA94EF28F1F490912B
:104DB0004C0180916905B8019802600D711D1124A4
:104DC0008091520590E00E942415582E90914C013C
:104DD00080916A05B8019802600D711D11248091BF
:104DE000520590E00E942415482EA52CB12CB194B8
:104DF000A194B108842C912CE8C19D89953031F59E
:104E0000EA94EF28F1F490914C0180916905B80182
:104E10009802600D711D11248091520590E00E944E
:104E20002415582E90914C0180916A05B801980282
:104E3000600D711D11248091520590E00E9424158F
:104E4000482EA52CB12C842C912C60C0BD89B63085
:104E500091F5EA94EF28F1F490914C018091690565
:104E6000B8019802600D711D11248091520590E0E7
:104E70000E942415582E90914C0180916A05B8012A
:104E80009802600D711D11248091520590E00E94DE
:104E90002415482EA52CB12CB194A194B108842CD2
:104EA000912C919481949108E12CF12C611471045E
:104EB00009F459C09FC09D89913019F0AD89A73080
:104EC00039F5EA94EF28F1F490914C01809169054D
:104ED000B8019802600D711D11248091520590E077
:104EE0000E942415582E90914C0180916A05B801BA
:104EF0009802600D711D11248091520590E00E946E
:104F00002415482E812C912CA12CB12CE12CF12CB4
:104F10008D896114710409F04FC0823021F595E04C
:104F2000C916D10409F46AC0A4E0CA16D10429F450
:104F30000150110908F045C177C083E0C816D104BB
:104F400011F495E08BC0B6E0CB16D10409F095C002
:104F50008BEF480E80916A05B80195E68902600DD5
:104F6000711D112484C0A5E0CA16D10409F446C0FD
:104F7000B4E0CB16D10409F453C093E0C916D104B0
:104F800059F4A5E05A0E80916905B801B5E68B0287
:104F9000600D711D11242AC086E0C816D10409F0E5
:104FA0006CC09BEF590E80916905B801A5E68A0295
:104FB000600D711D11241AC08230E1F4B5E0CB16EA
:104FC000D104E1F084E0C816D10409F4EFC0A3E0F5
:104FD000CA16D10409F0EEC0B5E05B0E80916905F8
:104FE000B80195E68902600D711D1124809152056A
:104FF000452D40C0A5E0CA16D10471F40F5F1F4FC4
:1050000080914D01992787FD9095801791070CF0AD
:10501000D8C001E010E0D5C0B4E0CB16D10451F403
:105020000150110908F0CDC000914D01112707FD75
:105030001095C7C093E0C916D10459F4A5E04A0EF3
:1050400080916A05B801B5E68B02600D711D1124CF
:105050000EC086E0C816D10481F49BEF490E809102
:105060006A05B801A5E68A02600D711D11248091C0
:105070005205442D90E00E940E1487EB95E00E94AB
:10508000733440E060E087EB95E00E947A341F9330
:105090000F93A2E9B3E0BF93AF933F922F920E9488
:1050A0001C4266E775E087EB95E00E945D3DFE01DE
:1050B00031969D89E90FF11DE90FF11D329760814D
:1050C000718187EB95E00E945D3D41E061E087EBF7
:1050D00095E00E947A340F900F900F900F900F90F0
:1050E0000F90A1E06A167104B9F49F928F92BF925B
:1050F000AF92ADE9B3E0BF93AF933F922F920E947E
:105100001C4266E775E087EB95E00E945D3D61E03B
:1051100070E088E090E016C09F928F92BF92AF92AD
:10512000ADE9B3E0BF93AF933F922F920E941C4230
:1051300066E775E087EB95E00E945D3D61E070E019
:1051400080E090E00E94E50C0FB6F894DEBF0FBE41
:10515000CDBFB2E0CB16D10411F587EB95E00E94EC
:10516000733460E570E080E090E065960FB6F894E7
:10517000DEBF0FBECDBFDF91CF911F910F91FF908A
:10518000EF90DF90CF90BF90AF909F908F907F90E7
:105190006F905F904F903F902F900C943B3964E656
:1051A00070E080E090E00E943B39B0CD01501109E1
:1051B00040F43ACFA6E0CA16D10409F05ECFBBEFA7
:1051C0000CCFEE24E394F12C58CFE12CF12C76CEC9
:1051D000AF92BF92CF92DF92EF92FF920F931F9305
:1051E000CF93DF93CDB7DEB7C556D1090FB6F8948C
:1051F000DEBF0FBECDBF85E680934D0104E615E00E
:1052000034E3E32E35E0F32EB0902305A090220581
:10521000A39410925005C0905005D12C80914D015F
:10522000992787FD9095C816D906DCF490914C011A
:10523000F8018081B6019802600D711D11248091E2
:10524000520590E00E942415E1E0F0E0EC0FFD1F14
:10525000EC0DFD1D8083809150058F5F809350057C
:10526000DACFB0925005809150058A15B0F4609164
:105270004C01F80190816902B0011124680F711D81
:1052800080915205F701408190E00E940E148091B8
:1052900050058F5F80935005E6CFA0925005609136
:1052A000500570E080914D01992787FD9095681712
:1052B0007907DCF490914C01F8018081E1E0F0E0A5
:1052C000EC0FFD1FEB0DF11D9802600D711D1124F7
:1052D00080915205408190E00E940E14B394809119
:1052E00050058F5F80935005DACF0F5F1F4FFFEFA0
:1052F000EF1AFF0A85E00137180709F085CFCB596F
:10530000DF4F0FB6F894DEBF0FBECDBFDF91CF9158
:105310001F910F91FF90EF90DF90CF90BF90AF90D3
:105320000895CF92DF92EF92FF920F931F93CF9346
:10533000DF93CDB7DEB7C556D1090FB6F894DEBFFF
:105340000FBECDBF85E680934D0104E615E0D090F9
:105350002205D394C090230510925005E09050058B
:10536000F12C80914D01992787FD9095E816F9065B
:10537000DCF490914C01F8018081B7019802600D36
:10538000711D11248091520590E00E942415E1E0E6
:10539000F0E0EC0FFD1FEE0DFF1D808380915005A6
:1053A0008F5F80935005DACFC09250056091500511
:1053B00070E080914D01992787FD909568177907D6
:1053C000DCF490914C01F8018081E1E0F0E0EC0F19
:1053D000FD1FED0DF11D9802600D711D11248091CE
:1053E0005205408190E00E940E14D39480915005A4
:1053F0008F5F80935005DACF0F5F1F4FF5E00137C5
:105400001F0709F0A4CFCB59DF4F0FB6F894DEBFCA
:105410000FBECDBFDF91CF911F910F91FF90EF9005
:10542000DF90CF900895EF92FF920F931F93CF9349
:10543000DF9381E0809323058093220584E68093A7
:105440004D01E12CF12CC1E0D0E00E940202082FB6
:1054500010E00130110521F4EA94EF2821F0B7C0E3
:10546000EF2809F0B4C087EB95E00E9473344091B7
:105470004D01842F992787FD90952091230530E0D9
:10548000821793071CF421E0209323058C179D07B6
:1054900014F4C1E0D0E020912305822F90E0C817DA
:1054A000D9070CF4EC01211102C04093230580912F
:1054B00023050330110511F48F5F04C00630110578
:1054C00021F481508093230509C00530110511F4A2
:1054D000219604C00430110509F421978091230519
:1054E00090E0C817D90719F08C2F815001C08C2F7C
:1054F0008093220540E061E087EB95E00E947A34DA
:105500006EEA73E087EB95E00E945D3D4AE050E073
:105510006091230587EB95E00E94143E63EB73E0F6
:1055200087EB95E00E945D3D4AE050E0BE0187EBCD
:1055300095E00E94FF3D60E070E080E090E00E9416
:10554000E50C41E061E087EB95E00E947A3469EB7D
:1055500073E087EB95E00E945D3D4AE050E060918A
:10556000230587EB95E00E94143E63EB73E087EB25
:1055700095E00E945D3D4AE050E0BE0187EB95E07A
:105580000E94FF3D64E670E080E090E00E943B39BD
:105590000230110599F487EB95E00E94733440E0E6
:1055A00060E087EB95E00E947A3462EB72E087EB73
:1055B00095E00E945D3D0E94E8289BC064E670E093
:1055C00080E090E00E943B39E12CF12CB7C0409183
:1055D0004D01842F992787FD90952091230530E078
:1055E000821793071CF421E0209323058C179D0755
:1055F00014F4C1E0D0E020912305822F90E0C81779
:10560000D9070CF4EC01211102C0409323050330AB
:10561000110509F09AC0809123058F5F80932305BF
:1056200087EB95E00E947334C093220540E061E06F
:1056300087EB95E00E947A346EEA73E087EB95E0A1
:105640000E945D3D4AE050E06091230587EB95E0C4
:105650000E94143E63EB73E087EB95E00E945D3D92
:105660004AE050E0BE0187EB95E00E94FF3D41E03B
:1056700061E087EB95E00E947A3469EB73E087EB99
:1056800095E00E945D3D4AE050E06091230587EB84
:1056900095E00E94143E63EB73E087EB95E00E9477
:1056A0005D3D4AE050E0BE0187EB95E00E94FF3D82
:1056B00061E070E080E090E00E94E50C64E670E05C
:1056C00080E090E00E943B390230110571F587EBD4
:1056D00095E00E94733440E060E087EB95E00E9423
:1056E0007A3462EB72E087EB95E00E945D3D0E94A8
:1056F000912987EB95E00E94733440E060E087EBEE
:1057000095E00E947A346EEB73E087EB95E00E949F
:105710005D3D68EC70E080E090E0DF91CF911F91FB
:105720000F91FF90EF900C943B3964E670E080E0BD
:1057300090E00E943B39EE24E394F12C64E670E0A3
:1057400080E090E00E943B3980CE0630110521F4C4
:1057500080912305815062CF0530110511F4219607
:105760005FCF0430110509F05BCF219759CFCF935C
:10577000DF93EC018130910551F40E9402028630E2
:10578000D9F10E940202833009F042C035C000976F
:1057900051F40E940202863009F4A4C00E94020261
:1057A0008330B1F59FC08230910551F40E9402020E
:1057B0008630E1F10E940202833009F043C036C016
:1057C0008330910559F40E940202863009F456C0D4
:1057D0000E940202833009F05DC050C08430910500
:1057E000B9F40E940202863009F462C00E940202EB
:1057F000833009F069C05CC062E370E080E090E053
:105800000E943B3987EB95E00E9473340E94471C4D
:10581000C530D105B9F40E940202863009F46FC088
:105820000E940202833009F0B0C069C062E370E0F8
:1058300080E090E00E943B3987EB95E00E94733452
:105840000E944F26C630D10559F40E9402028630CC
:1058500009F463C00E940202833009F096C05DC063
:10586000C730D105B9F40E940202863009F463C042
:105870000E940202833009F088C05DC062E370E0DC
:1058800080E090E00E943B3987EB95E00E94733402
:105890000E94132AC830D105B9F40E940202863052
:1058A00009F457C00E940202833009F06EC051C053
:1058B00062E370E080E090E00E943B3987EB95E086
:1058C0000E9473340E943E14299709F05EC00E9422
:1058D0000202863009F44BC00E940202833009F0B4
:1058E00054C045C062E370E080E090E00E943B3924
:1058F00087EB95E00E9473340E94662589CF62E3AE
:1059000070E080E090E00E943B3987EB95E00E94D8
:105910007334DF91CF910C94F00D62E370E080E07E
:1059200090E00E943B3987EB95E00E947334DF9151
:10593000CF910C94740962E370E080E090E00E94E3
:105940003B3987EB95E00E947334DF91CF910C9443
:10595000D80962E370E080E090E00E943B3987EB79
:1059600095E00E947334DF91CF910C94021A62E3A8
:1059700070E080E090E00E943B3987EB95E00E9468
:105980007334DF91CF910C94BA12DF91CF910895C7
:10599000CF92DF92EF92FF920F931F93CF93DF93FB
:1059A000CDB7DEB766970FB6F894DEBF0FBECDBF9A
:1059B00086E1E3E8F1E0DE01119601900D928A950F
:1059C000E1F766E970E080E090E00E943B3960E03A
:1059D00070E080E090E00E942E0260E080E00E9493
:1059E000C33A0BE010E087EB95E00E9473340E940D
:1059F0000202843011F40F5F1F4F17FF02C009E04D
:105A000010E00E940202853011F4015011090A30A1
:105A1000110514F000E010E087EB95E00E9473346C
:105A20000A30110508F053C0F801EA5BFF4F0C94EF
:105A3000E44160E070E002C061E070E080E090E08E
:105A40000E94E50CEE24E394F12CC12CD12C3FC034
:105A500060E070E002C061E070E080E090E00E94F1
:105A6000E50C93E0E92EF12C22E0C22ED12C2FC0C0
:105A700060E070E002C061E070E080E090E00E94D1
:105A8000E50CB5E0EB2EF12C84E0C82ED12C1FC024
:105A900060E070E002C061E070E080E090E00E94B1
:105AA000E50CF7E0EF2EF12CA6E0CA2ED12C0FC0AA
:105AB00060E070E002C061E070E080E090E00E9491
:105AC000E50C79E0E72EF12CE8E0CE2ED12C40E079
:105AD00061E087EB95E00E947A34F601EE0FFF1F3C
