:100000000C9476000C949E000C949E000C949E0020
:100010000C949E000C949E000C949E000C949E00E8
:100020000C949E000C949E000C94810A0C94D83081
:100030000C949E000C9409340C943B340C949E0058
:100040000C949E000C949E000C949E000C94B32F74
:100050000C949E005C255F256B256E257B257E25F7
:100060008B258E259B259E250000000200000000A8
:100070000000000005040007000000000000000070
:100080000000000000000000010204081020408071
:100090000102040810204080010204081020408062
:1000A0000102040810204080020202020202020241
:1000B0000404040404040404030303030303030308
:1000C0000101010101010101000039003600330086
:1000D000300000003B0038003500320000003A00DC
:1000E000370034003100430BDA2E6B3411241FBE6D
:1000F000CFE5D8E0DEBFCDBF14E0A0E6B0E0E6E09B
:10010000F3E702C005900D92A833B107D9F726E0B6
:10011000A8E3B4E001C01D92A137B207E1F710E0F7
:10012000CCEED0E004C02297FE010E946936C63EA4
:10013000D107C9F70E94F2350C9481390C94000064
:100140000C948F380C949738DC01ED91FC91019060
:10015000F081E02D09940F931F93CF93DF9308E371
:1001600014E0C0E0D0E0F80161918F01CE010E945F
:10017000A2002196CF30D105B1F7DF91CF911F9129
:100180000F9108950F931F93CF93DF9300EA14E02C
:10019000C2E1D0E0F80161918F01CE010E94A2007E
:1001A0002196C232D105B1F7DF91CF911F910F9106
:1001B00008950F931F93CF93DF9300E714E0C3E2FA
:1001C000D0E0F80161918F01CE010E94A20021963A
:1001D000C333D105B1F7DF91CF911F910F910895EE
:1001E00060918E0483E390E00C94A20060918D04F2
:1001F00084E390E00C94A2002091AD04332727FD06
:100200003095A901480F511D87FD5A95CA010C94DC
:10021000A2002091AE04332727FD3095A901480F95
:10022000511D87FD5A95CA010C94A2000F931F938C
:10023000CF93DF9308E314E0C0E0D0E0CE010E944A
:10024000A000F80181938F012196CF30D105B1F73D
:10025000DF91CF911F910F9108950F931F93CF932B
:10026000DF9300EA14E0C2E1D0E0CE010E94A000DA
:10027000F80181938F012196C132D105B1F7DF9149
:10028000CF911F910F9108950F931F93CF93DF93F9
:1002900000E714E0C3E2D0E0CE010E94A000F80124
:1002A00081938F012196C333D105B1F7DF91CF91AF
:1002B0001F910F91089583E390E00E94A000809326
:1002C0008E04089584E390E00E94A00080938D0442
:1002D00008951092800481E0809367041092B10425
:1002E000809368041092F2041092F10410929B041F
:1002F00010929A04109299041092980480935F04CB
:1003000010926A04109291040E9416010E942D011D
:100310000E9444010E945B010E94620185E390E01B
:100320000E94A0008093660487E390E00E94A000F2
:1003300080935E040895AF92BF92CF92DF92EF92C6
:10034000FF920F931F930E94B131BC01882777FD64
:100350008095982F1F921F921F922FEF2F93A12C01
:10036000B12C6501EE24EA9413E0F12E00E010E0D8
:1003700020E030E0A9010E94AA35862F0F900F904F
:100380000F900F901F910F91FF90EF90DF90CF9003
:10039000BF90AF90089587E00E949B018530E8F000
:1003A00084E10E949932892BD1F083E10E94993235
:1003B000892BB9F082E10E949932892BA1F085E165
:1003C0000E949932892B89F08BE00E949932892B07
:1003D00011F485E0089587E0089581E0089583E0B1
:1003E000089582E0089586E0089584E00895CF930B
:1003F000C62F682F87E10E9463326C2F86E10E942E
:10040000633280E590E0CF910C948031DF92EF92DF
:10041000FF920F931F93CF93DF931092EE041092ED
:10042000ED041092EC041092EB041092EA04109286
:10043000E9041092E8041092E7041092E604109286
:10044000E5041092E4041092E3041092E204109286
:10045000E10443EFE42E43E0F42E00E010E0C0E0BE
:10046000D0E0DD24D39460E070E081E090E00E9471
:10047000F701F7018081F2E0EF0EF11C0E949B0171
:1004800090E00115110551F42091380430E028174F
:100490003907C4F52196D092EE0434C0013011051D
:1004A00051F42091390430E0281739075CF5229681
:1004B000D092ED0427C00230110551F420913A0486
:1004C00030E0281739075CF52496D092EC0427C059
:1004D0000330110551F420913B0430E0281739070F
:1004E0005CF52896D092EB0427C00430110551F436
:1004F00020913C0430E028173907F4F46096D0923C
:10050000EA041AC00530110551F420913D0430E091
:10051000281739078CF4A096D092E9040DC0063054
:10052000110551F420913E0430E02817390724F4D6
:10053000C05CDF4FD092E8040F5F1F4F07301105FA
:1005400009F091CF31E0E32E34E0F32E07E010E024
:10055000DD24D39461E070E080E090E00E94F70138
:10056000F7018081F2E0EF0EF11C0E949B0190E008
:100570000730110559F420913F0430E0281739075E
:10058000CCF5C058DF4FD092E70434C008301105D5
:1005900051F42091400430E0281739075CF5D395D9
:1005A000D092E60427C00930110551F4209141048E
:1005B00030E0281739075CF5DE5FD092E50427C0EC
:1005C0000A30110551F42091420430E02817390710
:1005D00054F5DC5FD092E40426C00B30110551F4D1
:1005E0002091430430E028173907ECF4D85FD0920B
:1005F000E30419C00C30110551F42091440430E09B
:100600002817390784F4D05FD092E2040CC00D3073
:10061000110549F42091450430E0281739071CF4EE
:10062000D05ED092E1040F5F1F4F0E30110509F02C
:1006300091CF8091EE048093E0048091ED0480934B
:10064000DF048091EC048093DE048091EB048093BE
:10065000DD048091EA048093DC048091E9048093B6
:10066000DB048091E8048093DA048091E7048093AE
:10067000D9048091E6048093D8048091E5048093A6
:10068000D7048091E4048093D6048091E30480939E
:10069000D5048091E2048093D4048091E104809396
:1006A000D304D0936F04C0936E04CE01DF91CF9139
:1006B0001F910F91FF90EF90DF9008958091EE04CD
:1006C000813019F48CEE9FEF5CC08091ED04813095
:1006D00019F48EEE9FEF55C08091EC04813019F42F
:1006E00084EF9FEF4EC08091EB04813019F488EFC6
:1006F0009FEF47C08091EA04813019F48AEF9FEFA1
:1007000040C08091E904813019F48CEF9FEF39C02B
:100710008091E804813019F48EEF9FEF32C0809110
:10072000E704813019F48FEF9FEF2BC08091E6042E
:10073000813029F41092F2041092F104089580910E
:10074000E504813019F481E090E01BC08091E4045D
:10075000813019F482E090E014C08091E30481308C
:1007600019F484E090E00DC08091E204813019F426
:1007700086E090E006C08091E104813031F488E0A9
:1007800090E09093F2048093F10408958091E10445
:10079000813019F484E190E05CC08091E204813002
:1007A00019F482E190E055C08091E304813019F49E
:1007B0008CE090E04EC08091E404813019F488E030
:1007C00090E047C08091E504813019F486E090E024
:1007D00040C08091E604813019F484E090E039C093
:1007E0008091E704813019F482E090E032C080917A
:1007F000E804813019F481E090E02BC08091E90495
:10080000813029F41092F2041092F104089580913D
:10081000EA04813019F48FEF9FEF1BC08091EB0445
:10082000813019F48EEF9FEF14C08091EC04813079
:1008300019F48CEF9FEF0DC08091ED04813019F415
:100840008AEF9FEF06C08091EE04813031F488EF8B
:100850009FEF9093F2048093F10408950E940602A2
:1008600090936F0480936E0440917F04423041F076
:100870002091AF04213009F05EC0433009F05BC025
:100880002FEF3FE3B901681B790BCB0121E03091D9
:10089000E004722F731B7093EE043091DF04522F2B
:1008A000531B5093ED043091DE04622F631B609361
:1008B000EC043091DD04722F731B7093EB043091C4
:1008C000DC04522F531B5093EA043091DB04622F57
:1008D000631B6093E9043091DA04722F731B7093E9
:1008E000E8043091D904522F531B5093E704309100
:1008F000D804622F631B6093E6043091D704722FF3
:10090000731B7093E5043091D604522F531B509300
:10091000E4043091D504622F631B6093E3043091AB
:10092000D404722F731B7093E2043091D304231B01
:100930002093E10402C01092AF0420918104213081
:1009400009F0A5C1811528E0920709F493C10CF0C4
:100950009BC08833910509F473C10CF046C08C30FC
:10096000910509F464C1FCF48430910509F45CC17B
:1009700064F48230910509F454C10CF037C1019739
:1009800009F089C18CEE9FEF7DC18730910509F494
:1009900045C18830910509F44DC1069709F07BC126
:1009A00080EF9FEF6FC18831910509F422C164F493
:1009B0008F30910509F435C18031910509F41CC1CE
:1009C0000E9709F068C130C18E31910509F42FC12D
:1009D00024F44C9709F42EC15EC18032910509F4CC
:1009E0002FC1C09709F429C156C1803861E096072C
:1009F00009F431C1FCF48038910509F403C164F4B1
:100A00008034910509F4FBC08036910509F41BC1BF
:100A1000CC9709F040C111C1803F910509F413C181
:100A2000811521E0920709F419C1803C910509F074
:100A300032C10CC1803853E0950709F40CC17CF435
:100A4000811572E0970709F4E0C0811523E0920751
:100A500009F407C1803E914009F01DC1F7C081151E
:100A600066E0960709F4D4C02CF48115944009F48B
:100A7000FBC011C1811557E0950709F4F2C0803819
:100A8000974009F4EBC007C181157CE3970709F48F
:100A9000F7C00CF058C08F3F5FE1950709F49DC087
:100AA00034F5811570E1970709F4E7C07CF48115EE
:100AB0005EE0950709F4DBC081156FE0960709F445
:100AC000D3C081159C4009F0E6C0D1C081152CE14E
:100AD000920709F4D2C081155EE1950709F4CAC0F6
:100AE0008115984109F0D7C080E190E0CBC0811515
:100AF00070E3970709F48FC08CF48F3F57E2950796
:100B000009F46BC08F3F6FE2960709F466C0811548
:100B1000904209F0C0C084E190E0B4C08F3F27E369
:100B2000920709F45AC02CF48F3F934309F455C03F
:100B3000B2C08F3F79E3970709F44FC08F3F9B43C3
:100B400009F44BC0A8C08F3C5FE3950709F445C08A
:100B500024F58F3F7EE3970709F43FC06CF48F3F85
:100B60005DE39507D1F18F376EE39607B1F18F3FC3
:100B70009C4309F090C031C08F372FE3920769F191
:100B800024F48F339F4349F186C08F397FE3970761
:100B900021F18F3B9F4309F17EC0833F5FE39507BF
:100BA000E1F06CF4873E7FE39707B9F08F3E2FE3C7
:100BB000920799F08F3D9F4309F06DC00EC0893FA9
:100BC0006FE3960751F024F4873F9F4331F063C0F1
:100BD0008B5F9F43049708F05EC0433009F05BC011
:100BE0008091AF048F5F8093AF0455C08DEE9FEF6F
:100BF00049C08AEF9FEF46C08BEF9FEF43C08FEF56
:100C00009FEF40C081E090E03DC085E090E03AC0B9
:100C100086E090E037C083E190E034C08BEE9FEF38
:100C200031C08EEE9FEF2EC082EF9FEF2BC084EF7E
:100C30009FEF28C088EF9FEF25C08CEF9FEF22C069
:100C40008DEF9FEF1FC08EEF9FEF1CC01092F2043C
:100C50001092F10420C082E090E014C083E090E0A4
:100C600011C084E090E00EC088E090E00BC08CE002
:100C700090E008C08EE090E005C082E190E002C004
:100C800085E190E09093F2048093F10404C0223057
:100C900011F40E94C60380918104833011F40C94F6
:100CA0005E03089580914C0490914D0449976CF037
:100CB00080914A0490914B04019690934B04809349
:100CC0004A0410924D0410924C0480914A04909171
:100CD0004B04843691056CF080914804909149044E
:100CE0000196909349048093480410924B0410920B
:100CF0004A04089510928D0410926A0481E0809352
:100D000066049FE09093700497E0909371049EE6D0
:100D10009093720494E69093730492E09093740419
:100D20009CE8909375049093760495E090937704F3
:100D30009AE09093780492E3909379049FEF9093D4
:100D40007A0480937B0480937C040E94D9000E94E3
:100D5000F6006091660485E390E00E94A20065E0E1
:100D600087E390E00C94A200CF93DF93EB012091F6
:100D7000900430E0281739070CF4C901442755279F
:100D8000421B530BBC01841795070CF4BA012C17B6
:100D90003D072CF0C417D5071CF4EA0101C0E90196
:100DA0006115710521F460E070E08CE004C08CE016
:100DB0001616170624F40E94C93160E003C00E9491
:100DC000C93161E08EE00E946332209721F460E037
:100DD00070E08DE005C0BE018DE01C161D0624F4F8
:100DE0000E94C93160E003C00E94C93161E08FE018
:100DF000DF91CF910C9463320F931F93CF93DF93C6
:100E000081E08093650480916904813009F440C0D9
:100E100090918604092F10E06091830480918204F0
:100E2000953650F00456110970E07195619571097D
:100E300090E0C1E0D0E007C070E071956195710964
:100E400090E0C0E0D0E00E94B4068AE0809FB0014C
:100E5000819F700D1124882777FD8095982F0E941F
:100E600046318EEF9FEF9093F2048093F104CD2BE7
:100E700029F01092F2041092F1040AC00E942E048C
:100E80008091F1049091F20418161906BCF7F1CF85
:100E9000109269041092650410929B0410929A04B7
:100EA000109299041092980410929704109296044C
:100EB0001092950410929404DF91CF911F910F919D
:100EC00008950F931F93CF93DF9381E08093650480
:100ED00080916904813009F43FC090918604092F04
:100EE00010E08091830460918204953650F004569E
:100EF000110990E091958195910970E0C1E0D0E0F1
:100F000007C090E091958195910970E0C0E0D0E034
:100F10000E94B4068AE0809FB001819F700D112469
:100F2000882777FD8095982F0E94463182E090E0D7
:100F30009093F2048093F104CD2B29F01092F204E7
:100F40001092F10409C00E942E048091F104909146
:100F5000F20497FFF8CFF2CF109269041092650463
:100F600010929B0410929A04109299041092980483
:100F70001092970410929604109295041092940483
:100F8000DF91CF911F910F91089581E080936704C5
:100F9000109251041092500480935F0410926B04DD
:100FA0001092810410928004109291041092870490
:100FB00060E070E080E090E00E94B40683EF94E08F
:100FC0000E94942C60E087E00E94633240E060E081
:100FD00083EF94E00E949B2C61EF70E083EF94E03C
:100FE0000E94F23441E060E083EF94E00E949B2C89
:100FF00062E071E083EF94E00E94F2346091480473
:10100000709149044AE050E083EF94E00E949435E7
:1010100064EA72E083EF94E00E94F23460914A0443
:1010200070914B044AE050E083EF94E00E949435C5
:1010300068E071E083EF94E00E94F2344AE050E00F
:1010400060916A0483EF94E00E94A33561E070E050
:1010500081E090E00E94F70164E670E080E090E0BB
:101060000E94463160E070E080E090E00E94F7016D
:1010700064E670E080E090E00E944631A7CF609186
:10108000820470E07195619571098091830490E00C
:101090009195819591090E94B40620918604822F32
:1010A00090E0253610F08456910925E0289FB00184
:1010B000299F700D1124882777FD8095982F0E9415
:1010C00046311092F2041092F10410929B04109297
:1010D0009A041092990410929804089560918204E1
:1010E00070E08091830490E00E94B4062091860411
:1010F000822F90E0253610F08456910925E0289F34
:10110000B001299F700D1124882777FD8095982FB5
:101110000E9446311092F2041092F10410929B0446
:1011200010929A0410929904109298040895809154
:10113000630420916C0430916D042130310511F469
:101140008091620490E08130910519F0863091051C
:1011500069F4E0EAF4E020E021932F5F2D30E1F71D
:1011600025E32093AD0422E62093AE04823091055E
:1011700019F08730910569F4E0EAF4E02DE021935D
:101180002F5F2A31E1F720E42093AD042DE6209370
:10119000AE048330910519F08830910569F4E0EAD6
:1011A000F4E02AE121932F5F2732E1F72BE420932B
:1011B000AD0428E72093AE048430910519F08930FE
:1011C000910569F4E0EAF4E027E221932F5F2433EC
:1011D000E1F726E52093AD0423E82093AE048530A3
:1011E000910511F00A9769F4E0EAF4E084E3819351
:1011F0008F5F8134E1F781E68093AD0483E88093CB
:10120000AE0408950F931F93CF93DF93C0918E0484
:10121000D0E084E68093A50068EC70E080E090E088
:101220000E94463183EF94E00E94942C0E94CB01EF
:10123000082F10E040E060E083EF94E00E949B2CD8
:101240006CE071E083EF94E00E94F2344AE050E0F9
:10125000BE0183EF94E00E9494350330110529F418
:101260002196CB30D10544F529C00630110529F46B
:1012700021971C161D0614F126C002301105F1F449
:10128000C09363040E9497080E94C200C0938E041A
:101290000E94F000109262041092630483EF94E0C5
:1012A0000E94942C60E570E080E090E0DF91CF91A7
:1012B0001F910F910C944631C1E0D0E064E670E0DC
:1012C00080E090E0ADCFCAE0D0E0F8CFCF92DF92DF
:1012D000EF92FF920F931F93CF93DF93CDB7DEB7BB
:1012E00066970FB6F894DEBF0FBECDBF10926304B1
:1012F00010928C04E090AD04FF24E7FCF094D090B1
:101300008C048AE08D1590F00D2D10E0C701800F40
:10131000911F0E94A000ECE0F0E0EC0FFD1FE00F39
:10132000F11F8083D394D0928C04E9CF10928C0467
:10133000E090AE04FF24E7FCF094D0908C048AE0A7
:101340008D1590F00D2D10E0C701800F911F0E94A8
:10135000A000E1E0F0E0EC0FFD1FE00FF11F808343
:10136000D394D0928C04E9CFDD24D3940E94CB0196
:10137000E82EF12C83EF94E00E94942C40E060E092
:1013800083EF94E00E949B2C6EE171E083EF94E088
:101390000E94F2340D2D112707FD10954AE050E010
:1013A000B80183EF94E00E94943541E060E083EF60
:1013B00094E00E949B2C6AE271E083EF94E00E942B
:1013C000F234E1E0F0E0EC0FFD1FE00FF11FC08010
:1013D0006C2D772767FD70954AE050E083EF94E02D
:1013E0000E94943583E0E816F10429F4D3948AE04E
:1013F0008D1594F133C086E0E816F10421F4DA94F7
:10140000D7FE2CC032C082E0E816F10439F51D1475
:1014100044F4C0926A04FE01E00FF11F84858093BA
:101420008704D092620483EF94E00E94942C81E0C0
:101430008093690484E68093630466960FB6F894FB
:10144000DEBF0FBECDBFDF91CF911F910F91FF90F7
:10145000EF90DF90CF900895DD24D39464E670E0A0
:1014600080E090E00E94463181CF6AE0D62EF6CF30
:1014700012BC12BE83E089BF089580916704811178
:101480001BC080918004909187048917A8F49091E3
:101490008D04913089F49091640421E0290F209308
:1014A0006404943628F08F5F809380041092640463
:1014B00061E080E00E946332809180048093910417
:1014C0009091670491110CC090918704891740F0A6
:1014D00080918D04813021F460E080E00E946332CD
:1014E00080918D04811104C081E080936704089588
:1014F0009091910480918704981710F410926704DA
:1015000008951F920F920FB60F9211242F933F93BD
:101510004F935F936F937F938F939F93AF93BF93FB
:10152000EF93FF9380915C0490915D04019799F48F
:1015300080915A0490915B04C2974CF08091EF0423
:101540009091F00401969093F0048093EF04109230
:101550005B0410925A0480915004909151040197B9
:1015600049F480914C0490914D04019690934D0460
:1015700080934C040E9452060E943D0A6091B1047F
:101580002091560430915704613019F02130310513
:10159000D9F44091540450915504CA010196909396
:1015A00055048093540480916B0490E0880F991F38
:1015B000481759074CF08091B0048F5F8093B004B6
:1015C00010925504109254042130310529F5809170
:1015D0005804909159049C012F5F3F4F3093590458
:1015E000209358040E976CF080915204909153040C
:1015F00001969093530480935204109259041092D0
:10160000580480915204909153040B9724F1109246
:101610005304109252041FC0613021F460E080E056
:101620000E9463328091B104813051F08091560460
:1016300090915704019741F48091B004863024F0D2
:1016400061E080E00E9463328091B0048B3054F0FE
:101650001092B00407C0613009F38091B004853066
:101660000CF7DCCFFF91EF91BF91AF919F918F91DC
:101670007F916F915F914F913F912F910F900FBE8E
:101680000F901F901895CF92EF920F93E6E0CE2E19
:10169000F5E0EF2E04E023E042E061E083EF94E028
:1016A0000E94532D0F91EF90CF900895462F682FF1
:1016B00083EF94E00E949B2C68E083EF94E00C940D
:1016C000AD2DCF92DF92EF92FF920F931F93CF93A6
:1016D000DF93CDB7DEB762970FB6F894DEBF0FBECB
:1016E000CDBF82E1E7EAF0E0DE01119601900D92B4
:1016F0008A95E1F768EC70E080E090E00E94463166
:1017000000E010E083EF94E00E94942C0E94CB0153
:10171000C82ED12C85E0C816D10419F40F5F1F4FD5
:101720001CC094E0C916D10419F40150110919C064
:1017300083E0C816D10439F4F701E059FB4F8081EA
:101740008F5F80830EC096E0C916D10431F4F70193
:10175000E059FB4F808181508083093011050CF0E6
:10176000AAC00F3F8FEF180771F00115110509F49A
:10177000A2C00130110581F002301105A1F0033043
:101780001105C1F002C008E010E004301105E1F0DD
:1017900005301105E9F003C079E0E72EF12C0630A1
:1017A0001105D1F003C06AE0E62EF12C07301105D7
:1017B000B9F003C052E0E52EF12C0830110599F480
:1017C00086E0E82EF12C0FC043E0E42EF12C0BC094
:1017D00037E0E32EF12C07C024E0E22EF12C03C009
:1017E00095E0E92EF12C61E070E080E090E00E944D
:1017F000560B40E061E083EF94E00E949B2C61E394
:1018000071E083EF94E00E94F23441E061E083EF05
:1018100094E00E949B2CF801EE0FFF1F81E090E006
:101820008C0F9D1FE80FF91F6081718183EF94E099
:101830000E94F23464EA72E083EF94E00E94F23492
:101840004AE050E0F701E059FB4F608183EF94E0FC
:101850000E94A33564E670E080E090E00E9446318B
:1018600092E0C916D10409F04DCF0E94D90083EF50
:1018700094E00E94942C40E061E083EF94E00E94A9
:101880009B2C6DE371E083EF94E00E94F23468ECEE
:1018900070E080E090E062960FB6F894DEBF0FBE75
:1018A000CDBFDF91CF911F910F91FF90EF90DF900F
:1018B000CF900C94463100E010E0A8E0EA2EF12C25
:1018C00067CF9F92AF92BF92CF92DF92EF92FF923B
:1018D0000F931F93CF93DF93CDB7DEB766970FB605
:1018E000F894DEBF0FBECDBF10928C04E090AD0423
:1018F000FF24E7FCF094D0908C048AE08D1590F0E2
:101900000D2D10E0C701800F911F0E94A000ECE098
:10191000F0E0EC0FFD1FE00FF11F8083D394D09215
:101920008C04E9CF10928C04E090AE04FF24E7FC15
:10193000F094D0908C04EAE0ED1590F00D2D10E0BD
:10194000C701800F911F0E94A000E1E0F0E0EC0FC2
:10195000FD1FE00FF11F8083D394D0928C04E9CF58
:10196000C12CD12C01E010E0B3E6BB2EAA24AA942E
:101970000E94CB01E82EF12CF1E0EF16F10429F4DE
:10198000CA94CD2809F497C004C0CA94CD2809F0A0
:1019900092C083EF94E00E94942C40E060E083EFDB
:1019A00094E00E949B2C66E671E083EF94E00E9435
:1019B000F2344AE050E0B80183EF94E00E9494359D
:1019C00061E070E086E090E00E94560B40E067E046
:1019D00083EF94E00E949B2C6AE671E083EF94E031
:1019E0000E94F234E1E0F0E0EC0FFD1FE00FF11F88
:1019F0006081772767FD70954AE050E083EF94E0BF
:101A00000E94943541E067E083EF94E00E949B2CB4
:101A100061E771E083EF94E00E94F234ACE0CA2EFB
:101A2000D12CCC0EDD1EC00ED11EF6019080692D8A
:101A3000772767FD70954AE050E083EF94E00E94BD
:101A40009435F5E0EF16F10431F40F5F1F4F0B30C2
:101A500011055CF51BC084E0E816F10421F4015087
:101A6000110931F113C0E3E0EE16F10421F461E055
:101A7000690DF60107C0F6E0EF16F10439F4F6013E
:101A8000608161506083802F0E94FC00ECE0F0E0F8
:101A9000EC0FFD1FE00FF11F808187FFD1C0A082F6
:101AA0006FEF802F0E94FC00CBC001E010E0EECF72
:101AB0000AE010E0EBCF83EF94E00E94942C40E02A
:101AC00060E083EF94E00E949B2C66E671E083EF78
:101AD00094E00E94F2344AE050E0B80183EF94E0D1
:101AE0000E94943560E070E086E090E00E94560B22
:101AF00040E067E083EF94E00E949B2C6AE671E08F
:101B000083EF94E00E94F234CC24C394D12CCC0E09
:101B1000DD1EC00ED11EF6019080692D772767FD6E
:101B200070954AE050E083EF94E00E94943541E0E4
:101B300067E083EF94E00E949B2C61E771E083EF04
:101B400094E00E94F234ECE0F0E0EC0FFD1FE00FB7
:101B5000F11F6081772767FD70954AE050E083EFC1
:101B600094E00E949435F5E0EF16F10439F40F5F2C
:101B70001F4F0B3011050CF067C01CC0F4E0EF16CE
:101B8000F10429F40150110909F461C013C083E084
:101B9000E816F10421F461E0690DF60107C0F6E0F2
:101BA000EF16F10439F4F601608161506083802FF3
:101BB0000E940901E1E0F0E0EC0FFD1FE00FF11FD2
:101BC00090818091A50089172CF4108260E0802F0D
:101BD0000E940901E1E0F0E0EC0FFD1FE00FF11FB2
:101BE000808187FF05C0B08263E6802F0E940901D3
:101BF000C12CD12CF2E0EF16F104D9F483EF94E07C
:101C00000E94942C68EC70E080E090E066960FB63D
:101C1000F894DEBF0FBECDBFDF91CF911F910F9122
:101C2000FF90EF90DF90CF90BF90AF909F900C947B
:101C3000463166E970E080E090E00E94463198CE3F
:101C4000CC24C394D12CD6CF01E010E0B3CF0AE06E
:101C500010E0B0CF462F682F83EF94E00E949B2CBA
:101C6000809152049091530406975CF08091560441
:101C700090915704019729F468E083EF94E00E9463
:101C8000AD2D80915204909153040597A4F4809156
:101C9000560490915704019771F4E091F304F09188
:101CA000F4040280F381E02D41E050E068EA71E045
:101CB00083EF94E009958091560490915704892B05
:101CC00029F468E083EF94E00C94AD2D0895811120
:101CD0000AC083EF94E00E949B2C60E283EF94E0C3
:101CE0000E94F4340895813031F483EF94E00E942F
:101CF0009B2C61E00FC0823031F483EF94E00E94AE
:101D00009B2C62E007C0833051F483EF94E00E9483
:101D10009B2C63E083EF94E00E94AD2D0895843006
:101D200031F483EF94E00E949B2C64E017C085306F
:101D300031F483EF94E00E949B2C65E00FC0863065
:101D400031F483EF94E00E949B2C66E007C087305B
:101D500049F483EF94E00E949B2C67E083EF94E0CA
:101D60000C94AD2D8830A9F30895CF92DF92EF92B5
:101D7000FF920F931F93CF93DF9313EFC12E13E0C6
:101D8000D12E00E010E08FE1E82EF12C60E070E051
:101D900081E090E00E94F701F6018081F2E0CF0E31
:101DA000D11C0E949B01C82FD0E00115110589F4B8
:101DB0008091380490E08C179D0744F4CE01B70160
:101DC0000E941236862F40E061E013C040E061E0DF
:101DD00015C001301105E1F48091390490E08C17B1
:101DE0009D0754F4CE01B7010E941236862F40E0C1
:101DF00062E00E94670E53C040E062E083EF94E02F
:101E00000E949B2C60E283EF94E00E94F43447C070
:101E100002301105E1F480913A0490E08C179D079F
:101E200054F4CE01B7010E941236862F40E063E0E1
:101E30000E94670E48C040E063E083EF94E00E9498
:101E40009B2C60E283EF94E00E94F4343CC00330AA
:101E5000110589F480913B0490E08C179D0744F4B0
:101E6000CE01B7010E941236862F40E064E03BC0ED
:101E700040E064E03DC00430110589F480913C04E9
:101E800090E08C179D0744F4CE01B7010E941236F2
:101E9000862F40E065E027C040E065E029C00530BE
:101EA000110589F480913D0490E08C179D0744F45E
:101EB000CE01B7010E941236862F40E066E013C0C3
:101EC00040E066E015C006301105D9F480913E046B
:101ED00090E08C179D0754F4CE01B7010E94123692
:101EE000862F40E067E00E94670E0BC040E067E08D
:101EF00083EF94E00E949B2C60E283EF94E00E94C9
:101F0000F4340F5F1F4F0730110509F03FCFC1E0D8
:101F1000CC2EC4E0DC2E07E010E0DFE1ED2EF12C4A
:101F200061E070E080E090E00E94F701F6018081BE
:101F3000F2E0CF0ED11C0E949B01C82FD0E00730E9
:101F4000110589F480913F0490E08C179D0744F4BB
:101F5000CE01B7010E941236862F40E068E013C020
:101F600040E068E015C008301105E1F480914004BC
:101F700090E08C179D0754F4CE01B7010E941236F1
:101F8000862F40E069E00E94670E53C040E069E0A0
:101F900083EF94E00E949B2C60E283EF94E00E9428
:101FA000F43447C009301105E1F48091410490E018
:101FB0008C179D0754F4CE01B7010E941236862F6C
:101FC00040E06AE00E94670E48C040E06AE083EFAC
:101FD00094E00E949B2C60E283EF94E00E94F43432
:101FE0003CC00A30110589F48091420490E08C17BE
:101FF0009D0744F4CE01B7010E941236862F40E0BF
:102000006BE03BC040E06BE03DC00B30110589F454
:102010008091430490E08C179D0744F4CE01B701F2
:102020000E941236862F40E06CE027C040E06CE052
:1020300029C00C30110589F48091440490E08C177C
:102040009D0744F4CE01B7010E941236862F40E06E
:102050006DE013C040E06DE015C00D301105D9F4FE
:102060008091450490E08C179D0754F4CE01B70190
:102070000E941236862F40E06EE00E94670E0BC071
:1020800040E06EE083EF94E00E949B2C60E283EFDF
:1020900094E00E94F4340F5F1F4F0E30110509F0D9
:1020A0003FCFDF91CF911F910F91FF90EF90DF9085
:1020B000CF9008959F92AF92BF92CF92DF92EF920E
:1020C000FF920F931F93CF93DF93CDB7DEB7A09707
:1020D0000FB6F894DEBF0FBECDBFAE014F5E5F4FAF
:1020E000CE010196E8E3F4E02FEF1192DC012D938D
:1020F000CD01DA011D92AD01B4E0E834FB07A9F788
:1021000083EF94E00E94942C5E01E1E2AE0EB11CDC
:102110000E94CB01982E60E070E081E090E00E9488
:10212000F70103EF13E0CE0141967C01DE01119629
:102130006D01F80180810E5F1F4F0E949B01D60147
:102140009C91891708F48C93F7019081981708F4F3
:10215000808382E390E00E948031FFEFCF1ADF0A94
:102160003FEFE31AF30A84E00130180711F761E04A
:1021700070E080E090E00E94F70101E014E0DE01F1
:1021800018966D01FE0178967F01D8018C910E5F43
:102190001F4F0E949B01F6019081891708F48083EC
:1021A000D7019C91981708F48C9382E390E00E94E9
:1021B0008031BFEFCB1ADB0AEFEFEE1AFE0AF4E034
:1021C0000F301F0711F768E374E0CE010196FE019E
:1021D00071962191DC014D91CD0130E0241B310934
:1021E00037FF02C02F5F3F4F35952795240FDB0146
:1021F0002D93BD01EA15FB0561F70E94B50E41E084
:1022000060E083EF94E00E949B2C68E771E083EF2D
:1022100094E00E94F234B2E09B127ACF60E070E06A
:1022200080E090E00E94F701A0960FB6F894DEBF20
:102230000FBECDBFDF91CF911F910F91FF90EF9017
:10224000DF90CF90BF90AF909F900C94AB00FF9227
:102250000F931F93CF93DF9368EC70E080E090E0E2
:102260000E944631C0E0D0E065E0F62E0E94CB012E
:10227000082F10E00430110529F42196C230D10551
:102280005CF404C00530110509F42197CF3F8FEFAE
:10229000D80799F0CD2B89F40330110519F00630D9
:1022A0001105A9F4F0926B040E945A1060E070E0EE
:1022B00080E090E00E94F7010AC00330110519F494
:1022C0000E94610B41C006301105F1F5F9CF83EF93
:1022D00094E00E94942C60E070E080E090E00E9426
:1022E000560B40E061E083EF94E00E949B2C64E891
:1022F00071E083EF94E00E94F23441E061E083EF0B
:1023000094E00E949B2C6EE871E083EF94E00E94C1
:10231000F234C0E0D0E064E670E080E090E00E943B
:1023200046310230110509F0A1CF64E670E080E08B
:1023300090E00E94463189E180936B04DF91CF9158
:102340001F910F91FF90089583EF94E00E94942CC9
:1023500040E061E083EF94E00E949B2C64E871E030
:1023600083EF94E00E94F23461E070E080E090E05E
:102370000E94560B41E061E083EF94E00E949B2CA9
:102380006EE871E083EF94E00E94F234C1E0D0E0A7
:10239000C2CF0F931F93CF93DF93909393048093B7
:1023A000920440E061E083EF94E00E949B2CC0E047
:1023B000D0E000E010E2C8010C2E02C09595879590
:1023C0000A94E2F72091920430919304822393239C
:1023D000892B11F06FEF01C06FE583EF94E00E944D
:1023E000AD2D2196CE30D10531F7DF91CF911F91E0
:1023F0000F910895813019F481E090E05EC0823041
:1024000019F480E090E259C0833019F481E090E241
:1024100054C0843019F482E090E04FC0853019F444
:1024200080E090E14AC0863019F482E090E145C036
:102430008F3069F440E062E083EF94E00E949B2CCF
:102440006AE971E083EF94E00E94F23408958631E6
:1024500019F480E090E031C0803119F480EE91E30E
:102460002CC0813119F483EE91E027C0823119F438
:102470008FE09CE322C0833119F483EE91E31DC009
:10248000843119F480EE9DE018C0853119F48CEE8A
:1024900091E013C0873019F480E098E00EC08830D6
:1024A00019F484E090E009C0893019F484E098E0E0
:1024B00004C08A3029F480E094E00E94C911089594
:1024C0008B3019F488E090E013C08C3019F488E068
:1024D00094E00EC08D3019F480E098E309C08E308E
:1024E00019F487E090E004C0873121F48FEF9FE377
:1024F0000C94C91108950F931F93CF93DF931F92EC
:10250000CDB7DEB78B0106971CF061E570E002C025
:1025100060E570E08BE095E049830E945E2E612FBC
:1025200070E08BE095E00E94A400B80177278BE073
:1025300095E00E94A4004981642F8BE095E00E9401
:102540000B2E8BE095E00E94D72E65E070E080E0D6
:1025500090E00F90DF91CF911F910F910C94463135
:10256000CF92DF92EF92FF920F931F93CF93DF935F
:1025700088E080936B0483EF94E00E94942C40E009
:1025800060E083EF94E00E949B2C6AEA71E083EFA5
:1025900094E00E94F2340E94CB01C82FD0E041E0C9
:1025A00060E083EF94E00E949B2C68EB71E083EF86
:1025B00094E00E94F234C130D10559F483EF94E0E5
:1025C0000E94942CD0935704C0935604C0E0D0E0EE
:1025D0000EC0249701F768EE73E080E090E00E945F
:1025E000463183EF94E00E94942CC0E079C000E073
:1025F00010E09E0120563B4F6901CE0180599B4F50
:102600007C019091A400F6018081B8019802600DD0
:10261000711D112480918E04F701408190E00E9489
:102620007B120F5F1F4F0536110559F740E060E040
:1026300083EF94E00E949B2C6AEA71E083EF94E0C0
:102640000E94F23441E06C2F83EF94E00E949B2CB7
:102650006FEF83EF94E00E94AD2D2196CE30D1052F
:1026600031F66091A4008091A7046802B0011124A2
:1026700080918E0444E190E00E947B1261E18CE342
:1026800090E00E94A20060E18DE390E00E94A20031
:102690006FE08EE390E00E94A200C0E0D0E0809165
:1026A000AD0460E0FE01E80FF11D87FDFA95CF0152
:1026B0000E94A2002196CB30D10589F7C0E0D0E07E
:1026C0008091AE0460E09E01280F311D87FD3A9590
:1026D000C9010E94A2002196CB30D10589F77BCF9A
:1026E00041E06C2F83EF94E00E949B2C6FEF83EF0F
:1026F00094E00E94AD2D6CE370E080E090E00E94D9
:102700004631CF5FC03161F710926B0410925704CD
:102710001092560460E080E0DF91CF911F910F91FD
:10272000FF90EF90DF90CF900C9463320F931F9344
:10273000CF93DF938B0106971CF0C1E5D0E002C078
:10274000C0E5D0E0BE018BE095E00E945E2E612FD7
:1027500070E08BE095E00E94A400B80177278BE041
:1027600095E00E94A4008BE095E00E94D72E41E006
:1027700050E0BE018BE095E00E94D42E8BE095E006
:102780000E94B32D892B29F08BE095E00E94BB2D90
:1027900001C080E0DF91CF911F910F91089560916A
:1027A000A4008091A0046802B00111246F5F7F4FE4
:1027B00080916A04680F711D80918E0490E00E94E0
:1027C0009613809384046091A4008091A104680210
:1027D000B00111246F5F7F4F80916A04680F711DF3
:1027E00080918E0490E00E949613809385049091CE
:1027F000A4008091A20460916A0470E09802600DC8
:10280000711D112480918E0490E00E949613809394
:1028100089049091A4008091A30460916A0470E0FF
:102820009802600D711D112480918E0490E00E9429
:102830009613809388049091A4008091A4046091E1
:102840006A0470E09802600D711D112480918E045D
:1028500090E00E949613809387049091A400809149
:10286000A50460916A0470E09802600D711D112446
:1028700080918E0490E00E9496138093830490913F
:10288000A4008091A60460916A0470E09802600D33
:10289000711D112480918E0490E00E949613809304
:1028A00082049091A4008091A70460916A0470E072
:1028B0009802600D711D112480918E0490E00E9499
:1028C0009613809386049091A4008091A80460914F
:1028D0006A0470E09802600D711D112480918E04CD
:1028E00090E00E94961380938B049091A4008091B5
:1028F000A90460916A0470E09802600D711D1124B2
:1029000080918E0490E00E94961380938A049091A7
:10291000A4008091AA0460916A0470E09802600D9E
:10292000711D112480918E0490E00E949613809373
:1029300090049091A4008091AB0460916A0470E0CF
:102940009802600D711D112480918E0490E00E9408
:10295000961380937F049091A4008091AC046091C1
:102960006A0470E09802600D711D112480918E043C
:1029700090E00E9496138093810408956F927F9255
:102980008F929F92AF92BF92CF92DF92EF92FF927F
:102990000F931F93CF93DF938FE080936B0464E6D4
:1029A00070E080E090E00E944631C12CD12C00E024
:1029B00010E0C0E0D0E052E0E52EF12C66246394F4
:1029C000712C0E94CB01A82EB12C83EF94E00E94C1
:1029D000942C82E0E816F10411F4012B01F590919A
:1029E000A4008091A804BE019802600D711D1124FD
:1029F00080918E0490E00E94961380938B049091B6
:102A0000A4008091A904BE019802600D711D1124DB
:102A100080918E0490E00E94961380938A0485E052
:102A2000A816B10421F48FEFE81AF80AC8C184E0AF
:102A3000A816B10421F481E0E81AF108C0C183E0CE
:102A4000A816B10429F4C114D10411F52196B7C117
:102A500086E0A816B10429F4C114D104C9F4219761
:102A6000AEC181E0A816B10499F462E370E080E0A1
:102A700090E00E94463101E010E0CA94CD2869F050
:102A80007092570460925604CC24C394D12C0FC08A
:102A900001E010E0CA94CD2899F3109257041092E7
:102AA000560460E080E00E946332C12CD12C83E0A8
:102AB000E816F10441F0F7FE0AC000E010E032E051
:102AC000E32EF12C04C000E010E0E12CF12CCF3F0C
:102AD0008FEFD80741F0C436D1054CF000E010E08C
:102AE000C0E0D0E004C000E010E0C3E6D0E040E089
:102AF00060E083EF94E00E949B2C67E172E083EF3B
:102B000094E00E94F2344AE050E0BE0183EF94E08A
:102B10000E949435E114F10439F561E070E080E041
:102B200090E00E942A0E83E0A816B10449F481E0E7
:102B3000C816D10409F0F9C040918B044F5F0DC055
:102B400086E0A816B10409F0F0C081E0C816D104EF
:102B500009F0EBC040918B04415040938B0490915D
:102B6000A4008091A8042AC081E0E816F10499F538
:102B700061E070E088E090E00E942A0E83E0A816F1
:102B8000B10449F481E0C816D10409F0CEC04091E7
:102B90008A044F5F0DC086E0A816B10409F0C5C0D5
:102BA00081E0C816D10409F0C0C040918A044150A8
:102BB00040938A049091A4008091A904BE019802D8
:102BC000600D711D112480918E0490E00E947B1293
:102BD00000E010E0AAC082E0E816F10409F084C029
:102BE00060E070E088E090E00E942A0E40E069E03A
:102BF00083EF94E00E949B2C6DE172E083EF94E000
:102C00000E94F2349091A4008091AA04BE0198021F
:102C1000600D711D112480918E0490E00E94961326
:102C20004AE050E0682F83EF94E00E94A33541E032
:102C300061E083EF94E00E949B2C62E272E083EFFC
:102C400094E00E94F2344AE050E060918B0483EFFC
:102C500094E00E94A33541E069E083EF94E00E9494
:102C60009B2C66E272E083EF94E00E94F2344AE02B
:102C700050E060918A0483EF94E00E94A33583E0E2
:102C8000A816B10481F481E0C816D10469F585E085
:102C9000880E911C8FEF88169104B9F0B4F025E0EE
:102CA000822E912C12C086E0A816B104E9F481E0CE
:102CB000C816D104C9F485E0881A910885E0881601
:102CC00091041CF488248A94912C9091A400809102
:102CD000AA04BE019802600D711D112480918E041A
:102CE000482D90E00E947B1264E670E080E090E066
:102CF0000E94463182E0A816B10409F062CE10921B
:102D000057041092560460E080E0DF91CF911F914C
:102D10000F91FF90EF90DF90CF90BF90AF909F907A
:102D20008F907F906F900C94633240E069E083EF66
:102D300094E00E949B2C6DE172E083EF94E00E948E
:102D4000F2349091A4008091AA04BE019802600D13
:102D5000711D112480918E0490E00E9496134AE028
:102D600050E0682F83EF94E00E94A33541E061E0DA
:102D700083EF94E00E949B2C62E272E083EF94E088
:102D80000E94F2344AE050E060918B0483EF94E0BB
:102D90000E94A33541E069E083EF94E00E949B2C00
:102DA00066E272E083EF94E00E94F2344AE050E081
:102DB00060918A0483EF94E00E94A33595CF00E0F0
:102DC00010E068CEBF92CF92DF92EF92FF920F9306
:102DD0001F93CF93DF93CDB7DEB764970FB6F89408
:102DE000DEBF0FBECDBF8C017B0184E1E9EBF0E0DB
:102DF000DE01119601900D928A95E1F79091A40061
:102E00008091A004B8019802600D711D1124809179
:102E10008E0490E00E949613C82E9091A400809199
:102E2000A104B8019802600D711D112480918E04D7
:102E300090E00E949613B82E83EF94E00E94942CA9
:102E4000E114F10419F460E070E006C081E0E816D6
:102E5000F10429F461E070E080E090E008C082E0D5
:102E6000E816F10431F461E070E087E090E00E9440
:102E70002A0E01151105E1F540E061E083EF94E0D1
:102E80000E949B2C6BE272E083EF94E00E94F2348C
:102E900041E061E083EF94E00E949B2C6FE073E0DF
:102EA00083EF94E00E94F2344AE050E060E070E08A
:102EB00083EF94E00E94943541E068E083EF94E072
:102EC0000E949B2C80918D04811106C06AE372E000
:102ED00083EF94E00E94F23480918D04813009F0F8
:102EE0007DC161E472E083EF94E00E94F23476C128
:102EF000D12C9091A4008091A004B8019802600D9B
:102F0000711D112480918E0490E00E9496130E94FE
:102F1000FA1141E061E083EF94E00E949B2C6FE0A6
:102F200073E083EF94E00E94F2344AE050E0B8018D
:102F300083EF94E00E94943541E068E083EF94E0F1
:102F40000E949B2C9091A4008091A104B80198024A
:102F5000600D711D112480918E0490E00E949613E3
:102F6000FE013196E80FF11DE80FF11D32976081E7
:102F7000718183EF94E00E94F2340E94CB01833090
:102F800011F5E114F104F9F480915604909157047D
:102F90000197C9F48FEFC81AD80A88E1C816D1047E
:102FA0001CF0CC24C394D12C9091A4008091A00457
:102FB000B8019802600D711D112480918E044C2D72
:102FC00090E00E947B120E94CB018630F9F4E1145C
:102FD000F104E1F480915604909157040197B1F403
:102FE000A601415051094230510514F448E150E026
:102FF0009091A4008091A004B8019802600D711D09
:10300000112480918E0490E00E947B12CB2CD12C55
:103010000E94CB01833019F582E0E816F104F9F43F
:1030200080915604909157040197C9F48FEFC81A04
:10303000D80A8BE0C816D1041CF0CC24C394D12C40
:103040009091A4008091A104B8019802600D711DB7
:10305000112480918E044C2D90E00E947B120E94DE
:10306000CB01863061F482E0E816F10409F0D5C0A6
:103070008091560490915704019731F498C082E0F2
:10308000E816F10409F0C9C08091560490915704E4
:10309000019709F0C2C09091A4008091A104B801E9
:1030A0009802600D711D112480918E0490E00E94A1
:1030B0009613823079F49091A4008091A004B80115
:1030C0009802600D711D112480918E044EE090E0F5
:1030D0000E947B129091A4008091A104B8019802F3
:1030E000600D711D112480918E0490E00E94961352
:1030F000833079F49091A4008091A004B8019802E3
:10310000600D711D112480918E044DE090E00E94AD
:103110007B129091A4008091A104B8019802600DE7
:10312000711D112480918E0490E00E9496138130CD
:1031300079F49091A4008091A004B8019802600DE8
:10314000711D112480918E0443E090E00E947B1257
:103150009091A4008091A104B8019802600D711DA6
:10316000112480918E0490E00E949613843008F41C
:1031700054C09091A4008091A004B8019802600D01
:10318000711D112480918E044FE090E064960FB67B
:10319000F894DEBF0FBECDBFDF91CF911F910F918D
:1031A000FF90EF90DF90CF90BF900C947B12A60120
:1031B000415051091416150614F04AE050E0909160
:1031C000A4008091A104B8019802600D711D112422
:1031D00080918E0490E00E947B1256CF82E0E81628
:1031E000F104D9F40E94CB01833031F4809156046C
:1031F00090915704019769F00E94CB01863069F4E1
:103200008091560490915704019739F410928D04DF
:1032100004C081E080938D04EFCF64960FB6F894DC
:10322000DEBF0FBECDBFDF91CF911F910F91FF90F9
:10323000EF90DF90CF90BF900895CF92DF92EF9202
:10324000FF920F931F93CF93DF931F92CDB7DEB7FB
:103250006C018B019091A4008091A204B6019802A8
:10326000600D711D112480918E0490E00E949613D0
:10327000E82E9091A4008091A304B6019802600DFD
:10328000711D112480918E0490E00E949613F82EF7
:1032900083EF94E00E94942C0330110519F460E050
:1032A00070E005C00430110531F461E070E084E0A5
:1032B00090E00E942A0E40E060E083EF94E00E94DC
:1032C0009B2C6FE073E083EF94E00E94F2344AE0BD
:1032D00050E0B60183EF94E00E94943540E065E051
:1032E00083EF94E00E949B2C66E872E083EF94E009
:1032F0000E94F2349091A4008091A204B601980239
:10330000600D711D112480918E0490E00E9496132F
:103310004AE050E0682F83EF94E00E94A33541E03B
:1033200065E083EF94E00E949B2C6EE872E083EFEF
:1033300094E00E94F2349091A4008091A304B6011D
:103340009802600D711D112480918E0490E00E94FE
:1033500096134AE050E0682F83EF94E00E94A33573
:103360000E94CB01833021F50330110509F520912E
:1033700056043091570421303105D1F463C0033035
:103380001105D9F020E084E0E8121FC09091A4005C
:103390008091A204B6019802600D711D11248091E4
:1033A0008E04422F90E029830E947B122981E22E15
:1033B0000E94CB01863031F7E2CF20915604309144
:1033C000570421303105F1F640C02AEFE6EFEE1642
:1033D000E9F20E94CB01833059F40430110541F425
:1033E00020915604309157042130310509F43FC033
:1033F0000E94CB01863009F04CC00430110509F061
:1034000048C020915604309157042130310509F00D
:1034100040C09091A4008091A30446EF4F0DB601E7
:103420009802600D711D112480918E0490E00F9020
:10343000DF91CF911F910F91FF90EF90DF90CF9090
:103440000C947B122AE02E0DA1CFF6EFEF0E909197
:10345000A4008091A204B6019802600D711D112490
:1034600080918E044E2D90E00E947B128BCF8AE0DB
:10347000F80E9091A4008091A304B6019802600D0B
:10348000711D112480918E044F2D90E00E947B12BB
:10349000AFCF0F90DF91CF911F910F91FF90EF90E1
:1034A000DF90CF900895AF92BF92CF92DF92EF92CC
:1034B000FF920F931F93CF93DF93CDB7DEB72E9775
:1034C0000FB6F894DEBF0FBECDBF8C017B0188E044
:1034D000EDECF0E0DE01119601900D928A95E1F796
:1034E00086E0E5EDF0E0DE01199601900D928A95F7
:1034F000E1F79091A4008091AB04B8019802600DAF
:10350000711D112480918E0490E00E949613A82EC4
:10351000B82E9091A4008091AC04B8019802600D7F
:10352000711D112480918E0490E00E949613C82E84
:10353000D82E83EF94E00E94942C85E0E816F104E5
:1035400019F460E070E006C096E0E916F10431F489
:1035500061E070E084E090E00E942A0E40E060E0CC
:1035600083EF94E00E949B2C6FE073E083EF94E084
:103570000E94F2344AE050E0B80183EF94E00E94E8
:10358000943540E065E083EF94E00E949B2C66E96F
:1035900072E083EF94E00E94F234E1E0F0E0EC0F9F
:1035A000FD1F8C2D92E08902E00DF11D1124668132
:1035B000778183EF94E00E94F23441E065E083EF8D
:1035C00094E00E949B2C6EE972E083EF94E00E94ED
:1035D000F234EA2DEE0FFF0B81E090E08C0F9D1F7F
:1035E000E80FF91F6081718183EF94E00E94F2344B
:1035F0000E94CB01833011F596E0E916F104F1F455
:10360000209156043091570421303105B9F4BB2480
:10361000B394BA0C93E09B1514F4BB24B39490912B
:10362000A4008091AB04B8019802600D711D1124B3
:1036300080918E044B2D90E00E947B120E94CB0162
:103640008630F1F486E0E816F104D1F420915604B6
:10365000309157042130310599F44FEF4B0D14167A
:103660000CF043E09091A4008091AB04B801980263
:10367000600D711D112480918E0490E00E947B12D8
:103680000E94CB01833011F595E0E916F104F1F4C5
:10369000209156043091570421303105B9F4DD24CE
:1036A000D394DC0C83E08D1514F4DD24D394909135
:1036B000A4008091AC04B8019802600D711D112422
:1036C00080918E044D2D90E00E947B120E94CB01D0
:1036D000863069F585E0E816F10449F580915604D5
:1036E00090915704019719F54FEF4D0D14160CF0FA
:1036F00043E09091A4008091AC04B8019802600D61
:10370000711D112480918E0490E02E960FB6F894CE
:10371000DEBF0FBECDBFDF91CF911F910F91FF9004
:10372000EF90DF90CF90BF90AF900C947B122E96CD
:103730000FB6F894DEBF0FBECDBFDF91CF911F91C2
:103740000F91FF90EF90DF90CF90BF90AF900895D2
:10375000AF92BF92CF92DF92EF92FF920F931F939F
:10376000CF93DF93EC017B019091A4008091A4049E
:10377000BE019802600D711D112480918E0490E0AD
:103780000E949613C82ED12C9091A4008091A7047A
:10379000BE019802600D711D112480918E0490E08D
:1037A0000E949613082F10E083EF94E00E94942C5F
:1037B00087E0E816F10419F460E070E006C088E0E4
:1037C000E816F10431F461E070E084E090E00E94DA
:1037D0002A0E40E060E083EF94E00E949B2C6FE0B3
:1037E00073E083EF94E00E94F2344AE050E0BE01BF
:1037F00083EF94E00E94943540E065E083EF94E02D
:103800000E949B2C61E771E083EF94E00E94F23408
:103810009091A4008091A404BE019802600D711DD6
:10382000112480918E0490E00E9496134AE050E0AB
:10383000682F83EF94E00E94A33541E065E083EFB9
:1038400094E00E949B2C2097D1F46AEB72E083EF06
:1038500094E00E94F2346091A4008091A704680271
:10386000B001112480918E0490E00E9496134AE0EA
:1038700050E0682F83EF94E00E94A33549C061ECCB
:1038800072E083EF94E00E94F2349091A400809162
:10389000A704BE019802600D711D112480918E0451
:1038A00090E00E949613843608F4F0C09091A40032
:1038B0008091A704BE019802600D711D11248091B2
:1038C0008E0490E00E9496138536C0F09091A4007B
:1038D0008091A704BE019802600D711D1124809192
:1038E0008E0490E00E949613682F70E06456710970
:1038F0004AE050E083EF94E00E94943504361105CD
:1039000008F049C168EC72E083EF94E00E94F23461
:1039100084E10E949932892BC1F482E10E9499329C
:10392000892B99F488E0E816F10479F480914E042B
:1039300090914F04892B49F4A0905604B0905704FD
:1039400081E0A816B10409F4B7C084E10E9499325D
:10395000892BB1F482E10E949932892B89F488E0A5
:10396000E816F10469F480914E0490914F04019798
:1039700039F48091560490915704019709F4CBC013
:103980000E94CB01833011F587E0E816F104F1F4D1
:1039900080915604909157040197C1F48FEFC81A93
:1039A000D80AC11481E0D80611F4C12CD12C909111
:1039B000A4008091A404BE019802600D711D112421
:1039C00080918E044C2D90E00E947B120E94CB01CE
:1039D000863059F487E0E816F10439F480915604F2
:1039E00090915704019709F4C4C00E94CB01833021
:1039F00009F588E0E816F104E9F480915604909105
:103A000057040197B9F40F5F1F4F0F3F110519F0CD
:103A100010F000E010E09091A4008091A704BE0196
:103A20009802600D711D112480918E04402F90E04A
:103A30000E947B120E94CB01863009F0B3C088E05F
:103A4000E816F10409F0AEC0809156049091570435
:103A5000019709F0A7C09091A4008091A704A80144
:103A600041505109BE019802600D711D11248091D1
:103A70008E0490E0DF91CF911F910F91FF90EF9016
:103A8000DF90CF90BF90AF900C947B129091A400E8
:103A90008091A704BE019802600D711D11248091D0
:103AA0008E0490E00E9496134AE050E0682F83EF66
:103AB00094E00E94A335FACE0091770410E00C59EF
:103AC0001F4F83EF94E00E94942C40E060E083EF6E
:103AD00094E00E949B2C60ED72E083EF94E00E94E2
:103AE000F234B0924F04A0924E0468EE73E080E08E
:103AF00090E00E9446319091A4008091A704BE01FD
:103B00009802600D711D112480918E04402F90E069
:103B10000E947B121ACFB09077040B2D10E083EF38
:103B200094E00E94942C40E060E083EF94E00E94D7
:103B30009B2C6EED72E083EF94E00E94F2341092C1
:103B40004F0410924E0468EE73E080E090E00E9413
:103B500046319091A4008091A704BE019802600DA7
:103B6000711D112480918E044B2D90E00E947B12D8
:103B700007CF9091A4008091A404A601415051095F
:103B8000BE019802600D711D112480918E0490E099
:103B90000E947B122ACF0536110508F4B9CE6CECD1
:103BA00072E0B2CEDF91CF911F910F91FF90EF9015
:103BB000DF90CF90BF90AF900895CF92DF92EF92B9
:103BC000FF920F931F93CF93DF938FE080936B044B
:103BD0006CE271E080E090E00E944631E12CF12C33
:103BE00000E010E0C0E0D0E0CC24C394D12C0E94CF
:103BF000CB01853039F48091560490915704892B7C
:103C000009F4BAC00E94CB01843039F48091560483
:103C100090915704892B09F4B2C0093011053CF486
:103C20000F3F8FEF180729F408E010E002C000E012
:103C300010E00E94CB01813021F4EA94EF2861F07A
:103C400003C0EA94EF2841F4D0925704C09256047E
:103C5000EE24E394F12C0AC01092570410925604FB
:103C600060E080E00E946332E12CF12C0E94CB01E5
:103C7000833039F48091560490915704892B09F4CC
:103C800081C00E94CB01863039F480915604909116
:103C90005704892B09F478C0C436D1053CF4CF3FD2
:103CA0008FEFD80729F4C3E6D0E002C0C0E0D0E02F
:103CB0000115110519F460E070E005C0013011052F
:103CC00031F461E070E0CE010E94E2161BC00230C8
:103CD000110531F462E070E0CE010E94E21618C0D6
:103CE0000330110531F463E070E0CE010E941D192C
:103CF0001EC00430110531F464E070E0CE010E9472
:103D00001D191DC00530110519F465E070E005C0EE
:103D10000630110531F466E070E0CE010E94531ABE
:103D20000EC00730110519F467E070E005C00830D7
:103D3000110529F468E070E0CE010E94A81B68EC30
:103D400070E080E090E00E9446310E94CB0182301A
:103D500009F04DCF0E94F6001092570410925604BD
:103D600060E080E0DF91CF911F910F91FF90EF9085
:103D7000DF90CF900C9463320150110943CF0F5F55
:103D80001F4F4BCF21967DCF219786CF2F923F9209
:103D90004F925F926F927F928F929F92AF92BF925B
:103DA000CF92DF92EF92FF920F931F93CF93DF9307
:103DB000CDB7DEB765970FB6F894DEBF0FBECDBFA7
:103DC00084E1E9EBF0E0DE01119601900D928A9515
:103DD000E1F784E68093A50068EC70E080E090E075
:103DE0000E944631EE24E394F12C612C712C01E009
:103DF00010E022EB222E24E0322E0E94CB01C82EAE
:103E0000D12C81E0C816D10449F46A94672821F0C6
:103E100066246394712C02C0612C712C9091A400D3
:103E20008091A104B8019802600D711D1124809148
:103E30008E0490E00E9496138D8B823049F5EA94AF
:103E4000EF28F1F49091A4008091A504B8019802A4
:103E5000600D711D112480918E0490E00E949613D4
:103E6000582E9091A4008091A604B8019802600D8C
:103E7000711D112480918E0490E00E949613482EAB
:103E8000A42CB12C852C912C91948194910814C26E
:103E9000BD89B33049F5EA94EF28F1F49091A4007C
:103EA0008091A504B8019802600D711D11248091C4
:103EB0008E0490E00E949613582E9091A400809159
:103EC000A604B8019802600D711D112480918E0422
:103ED00090E00E949613482EA52CB12CB194A19489
:103EE000B108842C912CE8C19D89953031F5EA9474
:103EF000EF28F1F49091A4008091A504B8019802F4
:103F0000600D711D112480918E0490E00E94961323
:103F1000582E9091A4008091A604B8019802600DDB
:103F2000711D112480918E0490E00E949613482EFA
:103F3000A52CB12C842C912C60C0BD89B63091F594
:103F4000EA94EF28F1F49091A4008091A504B801BF
:103F50009802600D711D112480918E0490E00E94E2
:103F60009613582E9091A4008091A604B80198024F
:103F7000600D711D112480918E0490E00E949613B3
:103F8000482EA52CB12CB194A194B108842C912C6D
:103F9000919481949108E12CF12C6114710409F43D
:103FA00059C09FC09D89913019F0AD89A73039F56E
:103FB000EA94EF28F1F49091A4008091A504B8014F
:103FC0009802600D711D112480918E0490E00E9472
:103FD0009613582E9091A4008091A604B8019802DF
:103FE000600D711D112480918E0490E00E94961343
:103FF000482E812C912CA12CB12CE12CF12C8D89F7
:104000006114710409F04FC0823021F595E0C916A2
:10401000D10409F46AC0A4E0CA16D10429F40150FD
:10402000110908F045C177C083E0C816D10411F426
:1040300095E08BC0B6E0CB16D10409F095C08BEFAC
:10404000480E8091A604B80195E68902600D711DA5
:10405000112484C0A5E0CA16D10409F446C0B4E016
:10406000CB16D10409F453C093E0C916D10459F416
:10407000A5E05A0E8091A504B801B5E68B02600D4B
:10408000711D11242AC086E0C816D10409F06CC045
:104090009BEF590E8091A504B801A5E68A02600D38
:1040A000711D11241AC08230E1F4B5E0CB16D104A1
:1040B000E1F084E0C816D10409F4EFC0A3E0CA1609
:1040C000D10409F0EEC0B5E05B0E8091A504B80103
:1040D00095E68902600D711D112480918E04452D95
:1040E00040C0A5E0CA16D10471F40F5F1F4F809144
:1040F000A500992787FD9095801791070CF0D8C0EF
:1041000001E010E0D5C0B4E0CB16D10451F4015069
:10411000110908F0CDC00091A500112707FD1095E9
:10412000C7C093E0C916D10459F4A5E04A0E8091A6
:10413000A604B801B5E68B02600D711D11240EC0F6
:1041400086E0C816D10481F49BEF490E8091A60445
:10415000B801A5E68A02600D711D112480918E04BC
:10416000442D90E00E947B1283EF94E00E94942CF7
:1041700040E060E083EF94E00E949B2C1F930F933C
:10418000AAEEB2E0BF93AF933F922F920E949B366C
:1041900062EB74E083EF94E00E94F234FE0131960A
:1041A0009D89E90FF11DE90FF11D32976081718141
:1041B00083EF94E00E94F23441E061E083EF94E009
:1041C0000E949B2C0F900F900F900F900F900F90CC
:1041D000A1E06A167104B9F49F928F92BF92AF92D8
:1041E000A5EFB2E0BF93AF933F922F920E949B3610
:1041F00062EB74E083EF94E00E94F23461E070E0DF
:1042000088E090E016C09F928F92BF92AF92A5EF88
:10421000B2E0BF93AF933F922F920E949B3662EB26
:1042200074E083EF94E00E94F23461E070E080E09B
:1042300090E00E94560B0FB6F894DEBF0FBECDBFC4
:10424000B2E0CB16D10411F583EF94E00E94942CD8
:1042500060E570E080E090E065960FB6F894DEBF10
:104260000FBECDBFDF91CF911F910F91FF90EF90C7
:10427000DF90CF90BF90AF909F908F907F906F9086
:104280005F904F903F902F900C94463164E670E021
:1042900080E090E00E944631B0CD0150110940F419
:1042A0003ACFA6E0CA16D10409F05ECFBBEF0CCF1F
:1042B000EE24E394F12C58CFE12CF12C76CEAF9282
:1042C000BF92CF92DF92EF92FF920F931F93CF9303
:1042D000DF93CDB7DEB7C556D1090FB6F894DEBF70
:1042E0000FBECDBF85E68093A50000EA14E030E75D
:1042F000E32E34E0F32EB0906104A0906004A39408
:1043000010928C04C0908C04D12C8091A500992728
:1043100087FD9095C816D906DCF49091A400F801A9
:104320008081B6019802600D711D112480918E0468
:1043300090E00E949613E1E0F0E0EC0FFD1FEC0D21
:10434000FD1D808380918C048F5F80938C04DACF75
:10435000B0928C0480918C048A15B0F46091A40012
:10436000F80190816902B0011124680F711D8091DC
:104370008E04F701408190E00E947B1280918C04B2
:104380008F5F80938C04E6CFA0928C0460918C04A4
:1043900070E08091A500992787FD909568177907AF
:1043A000DCF49091A400F8018081E1E0F0E0EC0FF2
:1043B000FD1FEB0DF11D9802600D711D1124809100
:1043C0008E04408190E00E947B12B39480918C0413
:1043D0008F5F80938C04DACF0F5F1F4FFFEFEF1AD0
:1043E000FF0A84E00D3A180709F085CFCB59DF4F5B
:1043F0000FB6F894DEBF0FBECDBFDF91CF911F91F6
:104400000F91FF90EF90DF90CF90BF90AF90089505
:10441000CF92DF92EF92FF920F931F93CF93DF9390
:10442000CDB7DEB7C556D1090FB6F894DEBF0FBEC3
:10443000CDBF85E68093A50000EA14E0D09060042B
:10444000D394C090610410928C04E0908C04F12C01
:104450008091A500992787FD9095E816F906DCF470
:104460009091A400F8018081B7019802600D711D40
:10447000112480918E0490E00E949613E1E0F0E018
:10448000EC0FFD1FEE0DFF1D808380918C048F5F6C
:1044900080938C04DACFC0928C0460918C0470E01D
:1044A0008091A500992787FD909568177907DCF41E
:1044B0009091A400F8018081E1E0F0E0EC0FFD1F95
:1044C000ED0DF11D9802600D711D112480918E0477
:1044D000408190E00E947B12D39480918C048F5F86
:1044E00080938C04DACF0F5F1F4FF4E00D3A1F0763
:1044F00009F0A4CFCB59DF4F0FB6F894DEBF0FBE43
:10450000CDBFDF91CF911F910F91FF90EF90DF9082
:10451000CF900895EF92FF920F931F93CF93DF9365
:1045200081E0809361048093600484E68093A50019
:10453000E12CF12CC1E0D0E00E94CB01082F10E06B
:104540000130110521F4EA94EF2821F0B7C0EF28DB
:1045500009F0B4C083EF94E00E94942C4091A50030
:10456000842F992787FD90952091610430E0821770
:1045700093071CF421E0209361048C179D0714F429
:10458000C1E0D0E020916104822F90E0C817D907E4
:104590000CF4EC01211102C040936104809161048C
:1045A0000330110511F48F5F04C00630110521F4AA
:1045B00081508093610409C00530110511F42196E2
:1045C00004C00430110509F421978091610490E042
:1045D000C817D90719F08C2F815001C08C2F8093F8
:1045E000600440E061E083EF94E00E949B2C66E071
:1045F00073E083EF94E00E94F2344AE050E060916F
:10460000610483EF94E00E94A3356BE073E083EFD5
:1046100094E00E94F2344AE050E0BE0183EF94E05F
:104620000E94943560E070E080E090E00E94560BBC
:1046300041E061E083EF94E00E949B2C61E173E034
:1046400083EF94E00E94F2344AE050E0609161040C
:1046500083EF94E00E94A3356BE073E083EF94E076
:104660000E94F2344AE050E0BE0183EF94E00E94E1
:10467000943564E670E080E090E00E9446310230BC
:10468000110599F483EF94E00E94942C40E060E0DF
:1046900083EF94E00E949B2C6AE072E083EF94E049
:1046A0000E94F2340E945F219BC064E670E080E0CB
:1046B00090E00E944631E12CF12CB7C04091A5005A
:1046C000842F992787FD90952091610430E082170F
:1046D00093071CF421E0209361048C179D0714F4C8
:1046E000C1E0D0E020916104822F90E0C817D90783
:1046F0000CF4EC01211102C0409361040330110558
:1047000009F09AC0809161048F5F8093610483EF08
:1047100094E00E94942CC093600440E061E083EF39
:1047200094E00E949B2C66E073E083EF94E00E948B
:10473000F2344AE050E06091610483EF94E00E941B
:10474000A3356BE073E083EF94E00E94F2344AE01B
:1047500050E0BE0183EF94E00E94943541E061E0B7
:1047600083EF94E00E949B2C61E173E083EF94E07F
:104770000E94F2344AE050E06091610483EF94E0DB
:104780000E94A3356BE073E083EF94E00E94F23463
:104790004AE050E0BE0183EF94E00E94943561E06E
:1047A00070E080E090E00E94560B64E670E080E0EC
:1047B00090E00E9446310230110571F583EF94E0DC
:1047C0000E94942C40E060E083EF94E00E949B2CD8
:1047D0006AE072E083EF94E00E94F2340E940822C3
:1047E00083EF94E00E94942C40E060E083EF94E03B
:1047F0000E949B2C66E173E083EF94E00E94F23408
:1048000068EC70E080E090E0DF91CF911F910F9114
:10481000FF90EF900C94463164E670E080E090E009
:104820000E944631EE24E394F12C64E670E080E0CF
:1048300090E00E94463180CE0630110521F480912F
:104840006104815062CF0530110511F421965FCFCC
:104850000430110509F05BCF219759CFCF93DF9337
:10486000EC018130910551F40E94CB018630D9F1E1
:104870000E94CB01833009F042C035C0009751F44B
:104880000E94CB01863009F470C00E94CB018330B6
:10489000B1F56BC08230910551F40E94CB01863096
:1048A000E1F10E94CB01833009F043C036C0833070
:1048B000910559F40E94CB01863009F463C00E942F
:1048C000CB01833009F0A4C05DC084309105B9F4F8
:1048D0000E94CB01863009F463C00E94CB01833073
:1048E00009F096C05DC062E370E080E090E00E9455
:1048F000463183EF94E00E94942C0E94BE14C53090
:10490000D105B9F40E94CB01863009F457C00E944A
:10491000CB01833009F07CC051C062E370E080E0DD
:1049200090E00E94463183EF94E00E94942C0E9414
:10493000C61EC630D10559F40E94CB01863009F459
:104940004BC00E94CB01833009F062C045C029975B
:1049500009F05EC00E94CB01863009F44BC00E9472
:10496000CB01833009F054C045C062E370E080E0C1
:1049700090E00E94463183EF94E00E94942C0E94C4
:10498000DD1DBDCF62E370E080E090E00E94463123
:1049900083EF94E00E94942CDF91CF910C948A22B3
:1049A00062E370E080E090E00E94463183EF94E0A3
:1049B0000E94942CDF91CF910C94B01262E370E0CE
:1049C00080E090E00E94463183EF94E00E94942CB6
:1049D000DF91CF910C94610C62E370E080E090E095
:1049E0000E94463183EF94E00E94942CDF91CF9196
:1049F0000C94020962E370E080E090E00E9446318E
:104A000083EF94E00E94942CDF91CF910C942711B6
:104A1000DF91CF910895CF92DF92EF92FF920F93A3
:104A20001F93CF93DF93CDB7DEB766970FB6F89499
:104A3000DEBF0FBECDBF86E1EBEDF0E0DE011196EB
:104A400001900D928A95E1F766E970E080E090E0D0
:104A50000E94463160E070E080E090E00E94F70143
:104A600060E080E00E9463320BE010E083EF94E0AE
:104A70000E94942C0E94CB01843011F40F5F1F4FD1
:104A800017FF02C009E010E00E94CB01853011F44D
:104A9000015011090A30110514F000E010E083EF15
:104AA00094E00E94942C0A30110508F053C0F801DC
:104AB000E65DFF4F0C94673660E070E002C061E095
:104AC00070E080E090E00E94560BEE24E394F12C1D
:104AD000C12CD12C3FC060E070E002C061E070E00A
:104AE00080E090E00E94560B93E0E92EF12C22E04A
:104AF000C22ED12C2FC060E070E002C061E070E0F7
:104B000080E090E00E94560BB5E0EB2EF12C84E0A3
:104B1000C82ED12C1FC060E070E002C061E070E0E0
:104B200080E090E00E94560BF7E0EF2EF12CA6E01B
:104B3000CA2ED12C0FC060E070E002C061E070E0CE
:104B400080E090E00E94560B79E0E72EF12CE8E03F
:104B5000CE2ED12C40E061E083EF94E00E949B2CAC
:104B6000F601EE0FFF1F81E090E08C0F9D1FE80F14
:104B7000F91F6081718183EF94E00E94F23441E07B
:104B800061E083EF94E00E949B2CF701EE0FFF1F82
:104B900081E090E08C0F9D1FE80FF91F608171810B
:104BA00083EF94E00E94F234C8010E942E2466E94B
:104BB00070E080E090E00E9446310E94CB0182309C
:104BC00009F054CF83EF94E00E94942C64E670E0E7
:104BD00080E090E00E9446311092B10460E080E0F5
:104BE0000E94633283EF94E066960FB6F894DEBFBE
:104BF0000FBECDBFDF91CF911F910F91FF90EF902E
:104C0000DF90CF900C94942CCF92DF92EF92FF9292
:104C10000F931F93CF93DF9368EC70E080E090E0F8
:104C20000E9446311092B10460E080E00E9463323D
:104C30004AE7E42E43E0F42E52EBC52E54E0D52E85
:104C4000C0E0D0E00E94CB01082F10E00E94B50E1A
:104C500041E060E083EF94E00E949B2C80918E0401
:104C60001F928F93FF92EF92DF92CF920E949B361A
:104C700062EB74E083EF94E00E94F2340F900F90A7
:104C80000F900F900F900F900530110519F40E94AE
:104C90000B2505C00430110529F40E946609C0E007
:104CA000D0E003C00230110529F1809163048436FD
:104CB00009F10130110539F464E170E080E090E021
:104CC0000E9446312196C031D1050CF4BBCF83EF51
:104CD00094E00E94942C0E945A1060E070E080E002
:104CE00090E00E94F70168EE73E080E090E00E949F
:104CF0004631A6CFDF91CF911F910F91FF90EF909A
:104D0000DF90CF900895CF9367EA79E181E090E05A
:104D10000E949613C82F67EA79E182E090E00E9432
:104D20009613C23711F4823719F183EF94E00E9491
:104D3000942C40E060E083EF94E00E949B2C6AEAB0
:104D400073E083EF94E00E94F23441E060E083EF8F
:104D500094E00E949B2C6BE873E083EF94E00E9448
:104D6000F23464E670E080E090E00E944631DDCFEE
:104D7000CF910895CF938BE095E00E944A2E20E0DA
:104D800042E060E183EF94E00E94B52C26E040E829
:104D900055E260E070E084ED95E00E94A53361E0AB
:104DA00087E00E942A3260E087E00E94633260E080
:104DB00084E10E942A3260E082E10E942A3260E0AF
:104DC00083E10E942A3260E08BE00E942A3260E098
:104DD00085E10E942A3261E080E00E942A3260E090
:104DE00080E00E94633261E084E10E94633261E00E
:104DF00082E10E94633261E083E10E94633261E0FC
:104E00008BE00E94633261E085E10E94633261E0E1
:104E10008AE00E942A3260E08AE00E94633261E008
:104E20008EE00E942A3261E08CE00E942A3261E02A
:104E30008DE00E942A3261E08FE00E942A3260E019
:104E40008EE00E94633260E08CE00E94633260E09A
:104E50008DE00E94633260E08FE00E94633244E99B
:104E600050E061E083EF94E00E94732D4CE850E045
:104E700062E083EF94E00E94732D44E850E063E029
:104E800083EF94E00E94732D4CE750E064E083EFE1
:104E900094E00E94732D44E750E065E083EF94E0D6
:104EA0000E94732D4CE650E066E083EF94E00E9490
:104EB000732D44E650E067E083EF94E00E94732D89
:104EC0004CE950E068E083EF94E00E94732D61E0CC
:104ED00087E10E942A3261E086E10E942A3260E086
:104EE00087E10E94633260E086E10E94633240E025
:104EF00061E083EF94E00E949B2C6CE973E083EF08
:104F000094E00E94F23441E060E083EF94E00E947C
:104F10009B2C68EA73E083EF94E00E94F2346CE229
:104F200071E080E090E00E94463183EF94E00E94BF
:104F3000942C0E94380A789482E290E00E94A000AB
:104F400080938E040E94690184E10E949932892B2A
:104F500029F482E10E949932892B81F00E948326F4
:104F60000E94042683EF94E00E94942C0E94CF13A9
:104F70001092650410925F04CF910895C1E0C09330
:104F8000660410925104109250040E947A06C09355
:104F900063040E9497081092630483EF94E00E94D8
:104FA000942C40E060E083EF94E00E949B2C65EB42
:104FB00073E083EF94E00E94F23441E060E083EF1D
:104FC00094E00E949B2C63EC73E083EF94E00E94DA
:104FD000F23464E670E080E090E00E944631DDCF7C
:104FE000CF930E94BA2680916904813079F4209190
:104FF000AD048091620490E0820F911D27FD9A9587
:105000000E94A000809387041092690410926204A9
:105010001092630481E090E09093510480935004D7
:105020006091A4008091A7046802B00111248091CE
:105030008E0490E00E949613C82F6CE370E08CE31E
:1050400090E00E94B4068AE0C89FB001112488272E
:1050500077FD8095982FCF910C94463160E570E0F4
:1050600080E590E00E94B40620918604822F90E0B3
:10507000253610F0845691092AE0289FB001299F17
:10508000700D1124882777FD8095982F0E94463156
:1050900060E070E080E090E00E94B40668E584ED96
:1050A00095E00E94F43483EF94E00E94942C62ED2A
:1050B00073E083EF94E00E94F23484ED95E00E9467
:1050C000DB328234D1F764E670E080E090E00C944B
:1050D000463160EB7FEF80EB9FEF0E94B40620919A
:1050E0008604822F90E0253610F0845691092AE03C
:1050F000289FB001299F700D1124882777FD809586
:10510000982F0E94463160E070E080E090E00E94BD
:10511000B40669E584ED95E00E94F43483EF94E0F1
:105120000E94942C6AED73E083EF94E00E94F234C5
:1051300084ED95E00E94DB328234D1F764E670E0C2
:1051400080E090E00E94463163E584ED95E00E94A6
:10515000F43464E670E080E090E00C9446315091C5
:1051600091044091870480918D04541738F4813064
:1051700029F48091890480938F0407C0909188045A
:1051800090938F04813009F033C280918404813080
:1051900009F4CAC0823019F48091EE04C7C083308C
:1051A00019F48091EE04BEC0843059F0853019F4B2
:1051B0008091ED04BBC0863039F48091ED048111FB
:1051C000C1C08091E204B2C08F3009F4BBC0863107
:1051D00061F480916E0490916F04009709F4B2C05D
:1051E0008636964009F0B7C0ADC0803129F4809171
:1051F000ED049091EE0433C0813129F48091E104F3
:105200009091E2042CC08231F1F48091ED049091F0
:10521000EE04892B9091EC04892B9091EB04892B5F
:1052200009F499C02091E4048091E604282B809130
:10523000E304282B8091E204282B30E081E090E009
:105240006091E1041CC0833121F58091ED049091BF
:10525000EE04892B9091E204892B9091E104892B33
:1052600009F479C02091E8048091E904282B809109
:10527000E704282B30E081E090E06091E6046130A3
:1052800011F080E090E0822B932B892B09F463C00E
:1052900059C0843129F48091EB049091EC0406C04C
:1052A000853191F48091E3049091E404892B09F411
:1052B00052C08091E8049091E904892B9091E70411
:1052C000892B09F448C03EC0873009F1883091F03D
:1052D000893019F48091EC040BC08A3019F4809164
:1052E000EB0424C08B3031F08C3039F48091EB0426
:1052F000811128C08091E30419C08D3059F4809148
:10530000EE0481111FC08091ED0481111BC08091BA
:10531000EC040CC08E3069F48091E304811112C05A
:105320008091E20481110EC08091E104813099F4F2
:1053300009C0873181F480916E0490916F048F3F92
:105340009F4049F4541738F080916A048F5F80932E
:105350006A0410926804809185048130D9F48091A8
:105360006904813021F080916804811113C00E948A
:10537000CF1360E087E00E94633261E087E00E9423
:1053800063321092800481E0809367041092690474
:1053900080936804809185048230B9F48091680418
:1053A000811113C00E94CF1360E087E00E94633236
:1053B0000E94FC0661E087E00E9463321092800444
:1053C00081E0809367048093680480918504833032
:1053D000B9F480916804811113C00E94CF1360E07A
:1053E00087E00E9463320E94610761E087E00E94CB
:1053F00063321092800481E0809367048093680494
:10540000809185048430B9F480916804811113C0BF
:1054100010926A0460E087E00E9463320E94CF131A
:1054200061E087E00E9463321092800481E0809303
:1054300067048093680480918504853019F5809114
:10544000680481111FC010925D0410925C041092D8
:10545000F0041092EF0410925B0410925A040E9420
:10546000CF1360E087E00E9463320E946E0861E023
:1054700087E00E9463321092800481E08093670489
:105480008093680480918504863019F580916804C2
:1054900081111FC010925D0410925C041092F00400
:1054A0001092EF0410925B0410925A040E94CF13E2
:1054B00060E087E00E9463320E943F0861E087E07D
:1054C0000E9463321092800481E08093670480938D
:1054D000680480918504873041F4809168048111CB
:1054E00029C00E94CF130E94C507883019F580910A
:1054F000680481111FC010925D0410925C04109228
:10550000F0041092EF0410925B0410925A040E946F
:10551000CF1360E087E00E9463320E942E2861E092
:1055200087E00E9463321092800481E080936704D8
:105530008093680480918504893019F5809168040E
:1055400081111FC010925D0410925C041092F0044F
:105550001092EF0410925B0410925A040E94CF1331
:1055600060E087E00E9463320E94692861E087E082
:105570000E9463321092800481E0809367048093DC
:105580006804809185048A3099F5809168048111BE
:105590002FC00E94CF1360E087E00E94633260E07A
:1055A00070E080E090E00E94B40661E08AE00E9432
:1055B00063326091860484E1689FB00111248827DA
:1055C00077FD8095982F0E94463160E08AE00E9426
:1055D00063321092F2041092F10461E087E00E94BD
:1055E00063321092800481E08093670480936804A2
:1055F00008950E942E0480916E0490916F0400978C
:1056000039F481E090E090935D0480935C040FC0D6
:105610001816190664F410925D0410925C0410923E
:10562000F0041092EF0410925B0410925A049091CF
:10563000910480918704981708F440C08091EF048A
:105640009091F0040A97D4F181E08093670410925E
:1056500051041092500480935F0410926B041092D6
:10566000810410928004109291041092870460E0EB
:1056700070E080E090E00E94B40660E070E080E0BE
:1056800090E00E94F70160E087E00E94633283EFC0
:1056900094E00E94942C40E060E083EF94E00E944C
:1056A0009B2C64EE73E083EF94E00E94F23468EC8C
:1056B00070E080E090E00E944631E5CF0E94AF2884
:1056C0008091F1049091F2049195819591099093C4
:1056D0009B0480939A0420918B04289FB001299FFA
:1056E000700D112470939F0460939E042091980480
:1056F00030919904AC01421B530B9A01E0918A044A
:10570000E29FA001E39F500D112450939D0440930C
:105710009C04909399048093980420918F0430E026
:10572000C901860F971F840F951F9093950480934E
:105730009404261B370B241B350B2F3F310519F022
:1057400014F02FEF30E030939704209396042091CB
:1057500096043091970421303F4F34F421E03FEF1D
:1057600030939704209396048F3F910539F034F0DD
:105770008FEF90E09093950480939404809194042B
:105780009091950481309F4F34F481E09FEF909386
:105790009504809394046091940470919504809191
:1057A0009604909197040E94B40641E060E083EF74
:1057B00094E00E949B2C69EE73E083EF94E00E94DA
:1057C000F2344AE050E060916A0483EF94E00E9472
:1057D000A33567EA71E083EF94E00E94F2346FEE44
:1057E00073E083EF94E00E94F2344AE050E060916D
:1057F000910483EF94E00C94A3350C94F92ACF9391
:10580000DF93EC0160E08E810E94633281E090E0E2
:105810000E94803161E08E810E94633281E090E0DD
:105820000E94803160E08E810E94633284E690E0C5
:10583000DF91CF910C948031EF92FF920F931F93E1
:10584000CF93DF938C01C0E0D0E0E62EF12CB701BE
:105850000C2E02C0759567950A94E2F76170F80105
:10586000EC0FFD1F87810E9463322196C430D10561
:1058700071F7C801DF91CF911F910F91FF90EF90C9
:105880000C94FF2BEF92FF920F931F93CF93DF9314
:105890008C01C0E0D0E0E62EF12CB7010C2E02C046
:1058A000759567950A94E2F76170F801EC0FFD1F9A
:1058B00087810E9463322196C830D10571F7C801F3
:1058C000DF91CF911F910F91FF90EF900C94FF2BE0
:1058D0001F93CF93DF93EC01162F642F8C810E94CE
:1058E00063328D818F3F19F060E00E9463328F85B3
:1058F000612F84FF06C0CE01DF91CF911F910C94E0
:10590000422C70E084E0759567958A95E1F7CE01A9
:105910000E941C2C612FCE01DF91CF911F910C941E
:105920001C2C40E00C94682C61E00E94912C80EDCE
:1059300097E00C948031443008F043E0FC01238967
:10594000421710F04FEF420FFC01E40FF11D2489C4
:10595000260F2068622F0C94912CFC016089262F61
:105960002460208B6C600C94912C0F931F93CF9329
:10597000DF93EC01423018F08F8588608F874B8B66
:105980001C8A80E48D8B6E8B70E0605C7F4F6F8B28
:10599000222329F0413019F48F8584608F8761E0DC
:1059A0008C810E942A328D818F3F19F061E00E9424
:1059B0002A3261E08E810E942A3200E010E08F8559
:1059C00084FF03C088E090E002C084E090E0081704
:1059D000190754F4FE01E00FF11F61E087810E9476
:1059E0002A320F5F1F4FEBCF80E593EC0E9480318E
:1059F00060E08C810E94633260E08E810E9463329D
:105A00008D818F3F19F060E00E9463326F8564FDE5
:105A10001DC063E0CE010E941C2C84E991E10E942C
:105A2000803163E0CE010E941C2C84E991E10E9448
:105A3000803163E0CE010E941C2C86E990E00E9438
:105A4000803162E0CE010E941C2C16C06062CE0143
:105A50000E94912C84E991E10E9480316F856062FF
:105A6000CE010E94912C86E990E00E9480316F85E2
:105A70006062CE010E94912C6F856062CE010E940F
:105A8000912C84E0888BCE010E94AD2CCE010E9427
:105A9000942C82E0898B66E0CE01DF91CF911F913B
:105AA0000F910C94912CCF92EF920F93FC011382E3
:105AB000128283E194E09183808364838FEF8583F6
:105AC000468327830087E186C2861386148615865F
:105AD0001686178620E041E060E1CF010F91EF903C
