:100000000C9474000C949C000C949C000C949C0028
:100010000C949C000C949C000C949C000C949C00F0
:100020000C949C000C949C000C94F91C0C94F51AF4
:100030000C949C000C949C190C9476190C949C00C4
:100040000C949C000C949C000C949C000C943F1B02
:100050000C949C000101040119011C012D013001C7
:10006000410144015501580100003A0037003400B5
:10007000310000003B00380035003200000039003C
:1000800036003300300002020202020202020404BF
:10009000040404040404030303030303030301012E
:1000A0000101010101010102040810204080010248
:1000B0000408102040800102040810204080804085
:1000C00020100804020100000001000000000000F0
:1000D0000000040300060000000000000000000013
:1000E000000000000000CA3611241FBECFE5D8E092
:1000F000DEBFCDBF14E0A0E6B0E0E0E3F5E702C06C
:1001000005900D92A635B107D9F726E0A6E5B4E033
:1001100001C01D92A139B207E1F710E0C4E7D0E0B9
:1001200004C02197FE010E949837C337D107C9F751
:100130000E94292E0C94963A0C9400002F923F9224
:100140004F925F926F927F928F929F92AF92BF92E7
:10015000CF92DF92EF92FF920F931F93CF93DF9393
:10016000CDB7DEB7CD58D1090FB6F894DEBF0FBEBC
:10017000CDBF86E1E1EAF0E0DE01AA59BF4F019070
:100180000D928A95E1F766E970E080E090E00E94C8
:10019000BB1A60E070E080E090E00E94D80F60E061
:1001A00080E00E94F7196BE0262E312C89E796E05B
:1001B0000E94ED1C0E944517843019F42FEF221A7B
:1001C000320A37FE03C059E0252E312C0E94451714
:1001D000853019F431E0231A31088AE028163104F9
:1001E00014F0212C312C89E796E00E94ED1C9AE056
:1001F0002916310408F072C0F101E65DFF4F0C943E
:10020000983760E070E002C061E070E080E090E06C
:100210000E943E1721E030E0C757DF4F3983288323
:10022000C958D040C957DF4F19821882C758D040EB
:1002300055C060E070E002C061E070E080E090E0F6
:100240000E943E1723E030E0C757DF4F39832883F1
:10025000C958D04022E030E03BC060E070E002C00E
:1002600061E070E080E090E00E943E1725E030E021
:10027000C757DF4F39832883C958D04024E030E086
:1002800027C060E070E002C061E070E080E090E0D4
:100290000E943E1727E030E0C757DF4F398328839D
:1002A000C958D04026E030E013C060E070E002C0E2
:1002B00061E070E080E090E00E943E1729E030E0CD
:1002C000C757DF4F39832883C958D04028E030E032
:1002D000C957DF4F39832883C758D04060E081E099
:1002E0000E94442DC957DF4FE881F981C758D0409B
:1002F000EE0FFF1F86E690E08C0F9D1FE80FF91FA1
:10030000808191810E94122D61E081E00E94442D44
:10031000C757DF4FE881F981C958D040EE0FFF1F62
:10032000A6E6B0E0AC0FBD1FEA0FFB1F80819181F4
:100330000E94122DB1E02B16310459F40E9445178A
:10034000863009F4FCC30E944517833009F0E9C0E8
:10035000F6C32114310459F40E944517863009F47C
:1003600042C50E944517833009F0A9C03CC522E070
:100370002216310409F0A3C00E944517863009F403
:100380000CC60E944517833009F0CBC006C6B3E007
:10039000CB16D10409F431C4E6E0CE16D10409F439
:1003A00032C4EE24E394F12CF1E0CF16D10409F02D
:1003B00035C462E370E080E090E00E94BB1AAA942A
:1003C000AB2809F42FC45092030540920205AA24D9
:1003D000A394B12C33E08316910409F02EC4E12CD0
:1003E000F12C812C912C17FF30C4E12CF12C03E669
:1003F00010E060E080E00E94442D8BE491E00E94D8
:10040000122DC8010E94142D8114910409F426C4F0
:1004100021E08216910409F461C460E070E088E094
:1004200090E00E940F1760E089E00E94442D81E572
:1004300091E00E94122D8091A904B801F5E68F0287
:10044000600D711D112480919C0490E00E94911513
:100450000E940B2D61E081E00E94442D86E591E031
:100460000E94122D8091C8040E940B2D61E089E04A
:100470000E94442D8AE591E00E94122D8091C704CC
:100480000E940B2D23E0C216D10409F077C431E09D
:10049000A316B10409F45EC464E670E080E090E065
:1004A0000E94BB1A82E0C816D10409F069C31092F9
:1004B00003051092020560E080E00E94F71983E0D6
:1004C0002816310471F50E944517863009F4EAC6F2
:1004D0000E944517833009F024C1E4C694E0E91670
:1004E000F10409F037C564E070E0C8010E9496216C
:1004F00068EC70E080E090E00E94BB1A0E94451713
:10050000823009F08CC46091C50484E390E00E94BD
:10051000F51C109203051092020560E080E00E9435
:10052000F71984E02816310409F0FBC00E94451732
:10053000863011F40C94830B0E944517833009F028
:100540001AC10C94830B64E670E080E090E00E9496
:10055000BB1A0E944517E82EF12C31E0E316F10496
:1005600009F445C58091A004B80195E68902600DA3
:10057000711D112480919C0490E00E949115C55733
:10058000DF4F8883CB58D040823009F43AC5C55735
:10059000DF4F2881CB58D040233009F459C5C557C7
:1005A000DF4F2881CB58D040253009F476C5C55798
:1005B000DF4F2881CB58D040263009F092C5CA942D
:1005C000CD28E1F48091A404B80195E68902600D7C
:1005D000711D112480919C0490E00E949115A82E19
:1005E0008091A504B801A5E68A02600D711D112451
:1005F00080919C0490E00E949115B82E4A2C512CB9
:100600005194419451086B2C712C71946194710830
:10061000C12CD12C8114910409F0D9C585E0E816CC
:10062000F10409F4D8C594E0E916F10409F4B7C55A
:10063000B3E0EB16F10409F0B7C5E5E0AE0E80912A
:10064000A404B801F5E68F02600D711D112480919C
:100650009C044A2D90E00E94DD1689E796E00E94F6
:10066000ED1C60E080E00E94442D1F930F93AFE5E6
:10067000B1E0BF93AF93AAE7B4E0BF93AF930E94FA
:10068000BE378AE794E00E94122DCE010196C5572D
:10069000DF4F2881CB58D040820F911D820F911DD2
:1006A000FC013297808191810E94122D61E081E0EE
:1006B0000E94442D0F900F900F900F900F900F906D
:1006C00031E08316910409F0C4C57F926F925F9266
:1006D0004F92AAE6B1E0BF93AF93AAE7B4E0BF930D
:1006E000AF930E94BE378AE794E00E94122D61E02A
:1006F00070E088E090E00E943E170FB6F894DEBFED
:100700000FBECDBF32E0E316F10409F01CCF89E73C
:1007100096E00E94ED1C60E570E080E090E00E94B1
:10072000BB1A35E02316310431F50E944517863097
:1007300011F40C942D0C0E944517833009F057C01A
:100740000C942D0C0F5F1F4FEFEFCE1ADE0AA01294
:1007500070C689E796E00E94ED1C60E080E00E9490
:10076000442D88E991E00E94122D68EC70E080E051
:1007700090E00E94BB1A26E022163104C1F50E94C7
:100780004517863011F40C94420D0E9445178330B2
:1007900009F0E3C00C94420D0430110509F0CCC7F8
:1007A00068EE73E080E090E00E94BB1A89E796E073
:1007B0000E94ED1C10E061E0812F0E94442D6FEF3C
:1007C00089E796E00E94E41C6CE370E080E090E032
:1007D0000E94BB1A1F5F103171F71092CD04109266
:1007E00003051092020560E080E00E94F719B7E06F
:1007F0002B16310409F0B1C00E944517863011F460
:100800000C94680D0E944517833009F011C10C94B7
:10081000680DC12CD12C01E010E093E6B92EAA247A
:10082000AA940E944517E82EF12C81E0E816F10405
:1008300011F00C94730CCA94CD2811F00C94780C20
:1008400089E796E00E94ED1C60E080E00E94442D64
:1008500089EB91E00E94122DC8010E94142D60E0E6
:1008600070E086E090E00E943E1760E087E00E9422
:10087000442D8DEB91E00E94122DCC24C394D12CF9
:10088000CC0EDD1EC00ED11ED6019C90892D092CE8
:10089000000C990B0E94142D61E087E00E94442D0A
:1008A00084EC91E00E94122DECE7F0E0EC0FFD1FCC
:1008B000E00FF11F8081082E000C990B0E94142D6F
:1008C000B5E0EB16F10411F00C94110D0F5F1F4F02
:1008D0000B30110514F00C943A0DE1E0F0E0EC0F50
:1008E000FD1FE00FF11F90818091600089176CF46B
:1008F00010828091AD04082E000C990B60E0800FEF
:10090000911D07FD9A950E94F51CE1E0F0E0EC0FC7
:10091000FD1FE00FF11F808187FF0DC0B082809125
:10092000AD04082E000C990B63E6800F911D07FDA6
:100930009A950E94F51CC12CD12CF2E0EF16F1041F
:1009400011F00C94090D89E796E00E94ED1C68EC0B
:1009500070E080E090E00E94BB1AA8E02A16310403
:1009600009F066C00E944517863011F40C94CF0D33
:100970000E944517833009F0AAC00C94CF0D0F5F79
:100980001F4F0B30110514F00C94600D64E670E0FD
:1009900080E090E00E94BB1A89E796E00E94ED1C7F
:1009A0000E944517E82EF12C60E080E00E94442D63
:1009B0008BEC91E00E94122DC8010E94142D33E0AF
:1009C000E316F104E1F286E0E816F10411F40C9468
:1009D000580D92E0E916F104C9F6F02E00939D043B
:1009E0000E9435251FE9C12E14E0D12E02E110E04E
:1009F000D6016D916D01C8010E94F51C0F5F1F4F5C
:100A000002321105A9F7F0929C046F2D83E390E068
:100A10000E94F51C10929E0410929D0489E796E0B6
:100A20000E94ED1C60E570E080E090E00E94BB1A3F
:100A3000B9E02B16310409F04AC00E9445178630F0
:100A400011F40C94DD0D0E944517833009F03FC06E
:100A50000C94DD0DF4E0EF16F10411F00C94BE0FD0
:100A60000150110964E670E080E090E00E94BB1A3A
:100A70000E30110514F00C94C30F0F3F2FEF120727
:100A800011F40DE010E033E0E316F10411F00C94E2
:100A9000C20DF801E65AFB4F80818F5F808364E6C8
:100AA00070E080E090E00E94BB1A92E0E916F10449
:100AB00011F00C94740D89E796E00E94ED1C0E94E1
:100AC0007A156CE271E080E090E00E94BB1A66E962
:100AD00070E080E090E00E94BB1A0E9445178230CF
:100AE00009F064CB89E796E00E94ED1C64E670E0B3
:100AF00080E090E00E94BB1A10929B0460E080E0CE
:100B00000E94F71989E796E0C357DF4F0FB6F894B4
:100B1000DEBF0FBECDBFDF91CF911F910F91FF9030
:100B2000EF90DF90CF90BF90AF909F908F907F908D
:100B30006F905F904F903F902F900C94ED1C62E36C
:100B400070E080E090E00E94BB1A89E796E00E9486
:100B5000ED1C8FE08093CD0464E670E080E090E0CF
:100B60000E94BB1A612C712CA12CB12CE12CF12C10
:100B700000E010E062E0862E912C44244394512C36
:100B80000E944517C82ED12C89E796E00E94ED1CE3
:100B9000E2E08E16910411F4EF28F1F48091A7049D
:100BA000B801F5E68F02600D711D112480919C043F
:100BB00090E00E9491158093C8048091A804B80128
:100BC00025E68202600D711D112480919C0490E045
:100BD0000E9491158093C70435E0C316D10421F417
:100BE0008FEF881A980A14C094E0C916D10409F04E
:100BF000CECBA1E08A1A91080BC0A114B10459F41C
:100C00000F5F1F4F05C0A114B10429F40150110951
:100C1000E12CF12C03C0EE24E394F12CAA94AB2830
:100C200009F4D1CB109203051092020560E080E038
:100C30000E94F719A12CB12CCDCB97FED4CBE12C7F
:100C4000F12C82E0882E912CCECB043611050CF4C9
:100C5000D0CBE12CF12C00E010E0CBCB61E070E0D8
:100C600080E090E00E940F1783E0C816D104A1F441
:100C700091E0A916B10411F00C94620F4091C804E0
:100C80004F5F4093C8048091A704B801A5E68A028B
:100C9000600D711D112419C0B6E0CB16D10411F0FE
:100CA0000C94620FE1E0AE16B10411F00C94620FE7
:100CB0004091C80441504093C8048091A704B801F2
:100CC000F5E68F02600D711D112480919C0490E067
:100CD0000E94DD16E12CF12C0C94620F61E070E0B3
:100CE00088E090E00E940F1733E0C316D10499F416
:100CF00081E0A816B10409F064C04091C7044F5FB9
:100D00004093C7048091A804B80195E68902600D5C
:100D1000711D112417C0A6E0CA16D10409F051C0F4
:100D2000B1E0AB16B10409F04CC04091C70441508A
:100D30004093C7048091A804B801E5E68E02600DD7
:100D4000711D112480919C0490E00E94DD16E12C1D
:100D5000F12C37C085E0680E711C9FEF6916710495
:100D600021F01CF0B5E06B2E712C8091A904B80124
:100D7000A5E68A02600D711D11241CC0B6E0CB16D9
:100D8000D10409F089CBE1E0AE16B10409F084CBBF
:100D9000F5E06F1A710825E0621671041CF46624F0
:100DA0006A94712C8091A904B80135E68302600D24
:100DB000711D112480919C04462D90E00E94DD1647
:100DC0006BCB60E089E00E94442D81E591E00E94B8
:100DD000122D8091A904B80125E68202600D711DD3
:100DE00011240C94720F62E370E080E090E00E94A6
:100DF000BB1A89E796E00E94ED1C8FE08093CD043A
:100E00006CE271E080E090E00E94BB1AC12CD12C12
:100E1000E12CF12C00E010E0AA24A394B12C0E9454
:100E20004517853039F48091020590910305892B8F
:100E300009F44CC00E944517843039F480910205B2
:100E400090910305892B09F445C099E0E916F10456
:100E50000CF048C0AFEFEA16FA0619F4F8E0EF2EEE
:100E6000F12C0E944517813021F4CA94CD2861F0FD
:100E700003C0CA94CD2841F4B0920305A0920205A4
:100E8000CC24C394D12C0AC0109203051092020501
:100E900060E080E00E94F719C12CD12C0E94451718
:100EA000833031F48091020590910305892BE9F09C
:100EB0000E944517863011F00C94930F8091020523
:100EC00090910305892BA1F00C94930F31E0E31A64
:100ED000F108B0CF8FEFE81AF80A99E0E916F104AB
:100EE0000CF4BFCFE12CF12CBCCF0F5F1F4FE0CF34
:100EF000015011090436110514F00C94980F0F3F9E
:100F0000FFEF1F0711F403E610E0E114F10419F4F8
:100F100060E070E006C021E0E216F10431F461E027
:100F200070E0C8010E94A62215C032E0E316F10469
:100F300031F462E070E0C8010E94A62212C083E092
:100F4000E816F10409F0CACA63E070E0C8010E9423
:100F5000962111C0A5E0EA16F10419F465E070E0ED
:100F600006C0B6E0EB16F10431F466E070E0C801AB
:100F70000E945E20BDCAE7E0EE16F10419F467E0B6
:100F800070E007C0F8E0EF16F10409F0B1CA68E0BC
:100F900070E0C8010E94511EABCA62E370E080E0BD
:100FA00090E00E94BB1A89E796E00E94ED1C84E164
:100FB000E7EBF0E0DE01119601900D928A95E1F7E2
:100FC00084E68093600068EC70E080E090E00E942E
:100FD000BB1AB12CA12C612C712C412C512CCC248E
:100FE000C394D12C812C912C01E010E0B2CA8A94D8
:100FF000892821F088248394912CB4CA812C912CC7
:10100000B1CACA94CD28E1F48091A404B801B5E630
:101010008B02600D711D112480919C0490E00E9450
:101020009115A82E8091A504B801E5E68E02600D09
:10103000711D112480919C0490E00E949115B82E9E
:101040004B2C512C6A2C712C71946194710875C0D1
:10105000CA94CD28E1F48091A404B80195E68902F0
:10106000600D711D112480919C0490E00E949115E7
:10107000A82E8091A504B801A5E68A02600D711D15
:10108000112480919C0490E00E949115B82E4A2C66
:10109000512C51944194510821C0CA94CD28E1F4B7
:1010A0008091A404B80195E68902600D711D112498
:1010B00080919C0490E00E949115A82E8091A50437
:1010C000B801A5E68A02600D711D112480919C046F
:1010D00090E00E949115B82E4A2C512C6B2C712C4B
:1010E0002CC0C557DF4F2881CB58D040213011F09C
:1010F000273029F5CA94CD28E1F48091A404B801E1
:1011000095E68902600D711D112480919C0490E088
:101110000E949115A82E8091A504B801A5E68A0227
:10112000600D711D112480919C0490E00E94911526
:10113000B82E612C712C412C512CC12CD12CC557AF
:10114000DF4F2881CB58D0408114910409F03CC076
:10115000223009F063CA35E0E316F10409F43BC01C
:1011600084E0E816F10429F40150110908F096C052
:1011700048C0A3E0EA16F10411F4B5E05DC0F6E062
:10118000EF16F10409F069CA2BEFB20E8091A504A5
:10119000B80135E68302600D711D112456C001505F
:1011A000110908F07BC02DC026E0E216F10409F019
:1011B00054CA3BEFA30E8091A404B80195E68902BE
:1011C000600D711D112443CA223009F459C0B5E0E5
:1011D000EB16F10471F40F5F1F4F80916000082E31
:1011E000000C990B801791070CF058C001E010E03B
:1011F00055C0E4E0EE16F10451F40150110908F075
:101200004DC000916000002E000C110B47C023E080
:10121000E216F10459F435E0B30E8091A504B8014B
:1012200095E68902600D711D11240FC0A6E0EA1633
:10123000F10409F012CABBEFBB0E8091A504B801FE
:10124000E5E68E02600D711D112480919C044B2DEA
:1012500001CA7F926F925F924F92AAE6B1E0BF936C
:10126000AF93AAE7B4E0BF93AF930E94BE378AE77B
:1012700094E00E94122D61E070E080E090E03BCAB3
:10128000A5E0EA16F10409F4A6CFB4E0EB16F104E8
:1012900009F052C60150110908F4B3CFCC24C3940D
:1012A000D12CDBC962E370E080E090E00E94BB1AC1
:1012B00089E796E00E94ED1C81E0809357048093BB
:1012C000560484E680936000C12CD12C01E010E02C
:1012D0000E944517E82EF12C91E0E916F10409F07F
:1012E00017C1CA94CD2809F016C189E796E00E947B
:1012F000ED1C40916000842F042E000C990B20916E
:10130000570430E0821793073CF421E02093570400
:10131000801791079CF005C08017910714F401E035
:1013200010E080915704282F30E0021713070CF4C7
:101330008901811105C04093570402C001E010E00B
:1013400080915704B3E0EB16F10411F48F5F05C0F0
:10135000E6E0EE16F10421F48150809357040DC0AD
:10136000F5E0EF16F10419F40F5F1F4F06C024E0FB
:10137000E216F10411F4015011098091570490E034
:101380000817190729F08FEF800F8093560402C0C9
:101390000093560460E081E00E94442D8BE791E0C9
:1013A0000E94122D809157040E940B2D80E891E03D
:1013B0000E94122DC8010E94142D60E070E080E0B0
:1013C00090E00E943E1761E081E00E94442D86E893
:1013D00091E00E94122D809157040E940B2D80E80D
:1013E00091E00E94122DC8010E94142D64E670E065
:1013F00080E090E00E94BB1A32E0E316F10409F0AD
:101400007EC089E796E00E94ED1C60E080E00E94CB
:10141000442D8BE891E00E94122D85E680936000B8
:101420005AE6C52E54E0D52E0FE914E06DE0A62E45
:10143000A00EB090570490905604939410927904A3
:10144000E0907904F12CE5E6EE16F104D4F4D8012D
:101450008C91B701B5E68B02600D711D112480914E
:101460009C0490E00E949115E1E0F0E0EC0FFD1F7C
:10147000EE0DFF1D8083809179048F5F8093790446
:10148000DFCFB0927904809179048915A8F4D8014E
:101490006C91B5E66B02B0011124680F711D80914B
:1014A0009C04F601408190E00E94DD168091790451
:1014B0008F5F80937904E7CF9092790460917904EB
:1014C00070E0653671050CF03DC9D8018C91E1E002
:1014D000F0E0EC0FFD1FEB0DF11DB5E68B02600D8A
:1014E000711D112480919C04408190E00E94DD16C2
:1014F000B394809179048F5F80937904DFCF64E6A1
:1015000070E080E090E00E94BB1AC12CD12CF4C0A6
:10151000CD2809F4EACE40916000842F042E000CFF
:10152000990B2091570430E0821793073CF421E097
:1015300020935704801791079CF005C080179107EE
:1015400014F401E010E080915704282F30E00217D6
:1015500013070CF48901811105C04093570402C0A0
:1015600001E010E0F3E0EF16F10421F4809157045C
:101570008F5F07C026E0E216F10431F48091570432
:101580008150809357040DC035E0E316F10419F43F
:101590000F5F1F4F06C084E0E816F10411F40150FC
:1015A000110989E796E00E94ED1C0093560460E063
:1015B00081E00E94442D8BE791E00E94122D8091E2
:1015C00057040E940B2D80E891E00E94122DC80163
:1015D0000E94142D61E081E00E94442D86E891E094
:1015E0000E94122D809157040E940B2D80E891E0FB
:1015F0000E94122DC8010E94142D61E070E080E06D
:1016000090E00E943E1764E670E080E090E00E9467
:10161000BB1A92E0E916F10409F065C089E796E08B
:101620000E94ED1C60E080E00E94442D8BE891E078
:101630000E94122D85E6809360003FE9E32E34E09E
:10164000F32E4DE0D42EDE0CC0905604C394B0901F
:101650005704109279040091790410E005361105C1
:10166000D4F4D7018C91B801B5E68B02600D711DE1
:10167000112480919C0490E00E949115E1E0F0E03B
:10168000EC0FFD1FE00FF11F8083809179048F5FC5
:1016900080937904E0CFB09279046091790470E08E
:1016A00065367105D4F4F7018081E1E0F0E0EC0FDC
:1016B000FD1FEC0DF11D25E68202600D711D112448
:1016C00080919C04408190E00E94DD16C39480913B
:1016D00079048F5F80937904E0CF3FEFE31AF30A38
:1016E000DE10B2CF36C864E670E080E090E00E9481
:1016F000BB1ACC24C394D12C64E670E080E090E067
:101700000E94BB1AE5CD62E370E080E090E00E94A9
:10171000BB1A89E796E00E94ED1C88E08093CD0417
:1017200089E796E00E94ED1C60E080E00E94442D75
:101730008BEA91E00E94122D0E944517082F10E0BD
:1017400061E080E00E94442D8BE991E00E94122D1F
:101750000130110509F020C889E796E00E94ED1CD0
:10176000109303050093020500E010E0E12CF12C3A
:10177000C80181569B4F5C01D801A659BB4F6D0132
:10178000D5018C91B701B5E68B02600D711D112456
:1017900080919C04F601408190E00E94DD16FFEFED
:1017A000EF1AFF0A25E6E216F10451F760E080E047
:1017B0000E94442D8BEA91E00E94122D61E0802F5F
:1017C0000E94442D6FEF89E796E00E94E41C0F5FB2
:1017D0001F4F0E30110551F66091A604B5E66B025D
:1017E000B001112480919C0444E190E00E94DD1638
:1017F00061E18CE390E00E94F51C60E18DE390E0F4
:101800000E94F51C6FE08EE390E00E94F51C00E062
:1018100010E08091AC0460E0F801E80FF11D87FD55
:10182000FA95CF010E94F51C0F5F1F4F0B30110579
:1018300081F700E010E08091AD0460E09801280F8E
:10184000311D87FD3A95C9010E94F51C0F5F1F4F9E
:101850000B30110581F70C94D00362E370E080E057
:1018600090E00E94BB1A89E796E00E94ED1C10925E
:101870007904C090AC040C2C000CDD0810917904A4
:101880001B3090F4E12EF12CC6018E0D9F1D0E949D
:10189000F71CECE7F0E0EC0FFD1FEE0DFF1D808361
:1018A0001F5F10937904EACF10927904C090AD04C1
:1018B0000C2C000CDD08109179041B3010F00C94F6
:1018C0000904E12EF12CC6018E0D9F1D0E94F71C0C
:1018D000E1E0F0E0EC0FFD1FEE0DFF1D80831F5FC8
:1018E00010937904E8CFCA94CD2811F00C94200409
:1018F00089E796E00E94ED1C60E080E00E94442DA4
:1019000089EB91E00E94122DC8010E94142D61E024
:1019100070E086E090E00E943E1760E087E00E9461
:10192000442D8DEB91E00E94122DE1E0F0E0EC0FF0
:10193000FD1FE00FF11F8081082E000C990B0E9403
:10194000142D61E087E00E94442D84EC91E00E9418
:10195000122D8CE7C82ED12CCC0EDD1EC00ED11E50
:10196000F6019080892D092C000C990B0E94142DF2
:10197000F5E0EF16F10439F40F5F1F4F0B3011053E
:101980000CF03CC024C024E0E216F10421F4015024
:101990001109B9F11CC033E0E316F10429F461E048
:1019A000690DD6016C9308C0B6E0EB16F10479F42A
:1019B000F6016081615060838091AC04082E000CB8
:1019C000990B800F911D07FD9A950E94F51CECE77D
:1019D000F0E0EC0FFD1FE00FF11F808187FF14C0C6
:1019E000A0828091AC04082E000C990B6FEF800F41
:1019F000911D07FD9A950E94F51C06C001E010E0BC
:101A0000E6CF0AE010E0E3CFCC24C394D12C0C94B1
:101A10009D0466E970E080E090E00E94BB1A0C949F
:101A20001104F4E0EF16F10429F40150110931F129
:101A30000C946D0423E0E216F10429F461E0690DD1
:101A4000D6016C930AC0B6E0EB16F10411F00C94C9
:101A50006D04F6016081615060838091AD04082EB1
:101A6000000C990B800F911D07FD9A950E94F51CA3
:101A70000C946D0401E010E00C946D040AE010E099
:101A80000C946D0462E370E080E090E00E94BB1A69
:101A900089E796E00E94ED1C00919C0410E084E62A
:101AA0008093600068EC70E080E090E00C94CA04E1
:101AB000015011091016110614F40C94C60404C048
:101AC00001E010E00C94C6040AE010E00C94C60497
:101AD00062E370E080E090E00E94BB1A89E796E044
:101AE0000E94ED1C00E010E089E796E00E94ED1CEA
:101AF0000E944517E82EF12CF801EE0FFF1FE3526C
:101B0000FF4F80810E94E80FC82ED12C07301105AD
:101B10002CF460E070E081E090E007C00730110530
:101B200031F061E070E080E090E00E94D80F61E069
:101B300080E00E94442D87E593E00E94122DC801A9
:101B40000E94142D83ED91E00E94122DC6010E9487
:101B5000142D88ED91E00E94122DF801E65AFB4FFA
:101B600080810E940B2DE5E0EE16F10411F00C943B
:101B70002A050F5F1F4F64E670E080E090E00E944E
:101B8000BB1AFCC186E0E816F10411F00C944F0575
:101B9000F801E65AFB4F808181500C944E0562E3B8
:101BA00070E080E090E00E94BB1A89E796E00E9416
:101BB000ED1C0E94AA250C94670562E370E080E0AA
:101BC00090E00E94BB1A89E796E00E94ED1C68EC49
:101BD00070E080E090E00E94BB1A00E010E00E94FC
:101BE0004517E82EF12CE4E0EE16F10439F40F5F0E
:101BF0001F4F023011050CF016C106C0F5E0EF16BC
:101C0000F10431F4015011090F3F2FEF1207B9F021
:101C1000012BA9F433E0E316F10429F086E0E8167D
:101C2000F10409F000C185E08093CD040E94F12AFF
:101C300060E070E080E090E00E94D80FF4C093E094
:101C4000E916F10429F0A6E0EA16F10409F01DC135
:101C500082E1EBECF0E0DE01119601900D928A95A5
:101C6000E1F768EC70E080E090E00E94BB1A20E0B1
:101C700030E000E010E089E796E0C457DF4F2883AA
:101C8000CC58D040C357DF4F3883CD58D0400E9446
:101C9000ED1C0E944517C82ED12CC457DF4F288158
:101CA000CC58D040C357DF4F3881CD58D040B5E035
:101CB000CB16D10419F40F5F1F4F1BC0E4E0CE1602
:101CC000D10419F40150110914C0F3E0CF16D10466
:101CD00031F4F901E659FB4F80818F5F09C086E03E
:101CE000C816D10431F4F901E659FB4F80818150C7
:101CF0008083093011050CF04DC117FD48C1011555
:101D0000110509F449C10130110509F448C1023037
:101D1000110509F447C10330110509F446C1043027
:101D20001105C1F00530110561F00630110561F0B3
:101D30000730110561F00830110571F426E030E03C
:101D40000BC027E030E008C024E030E005C025E00B
:101D500030E002C023E030E061E070E080E090E03D
:101D6000C457DF4F2883CC58D040C357DF4F388348
:101D7000CD58D0400E943E1760E081E00E94442D83
:101D80008DED91E00E94122D61E081E00E94442DD2
:101D9000F801EE0FFF1FA1E0B0E0AC0FBD1FEA0F8E
:101DA000FB1F808191810E94122D84EB93E00E94A1
:101DB000122DC457DF4F2881CC58D040C357DF4F76
:101DC0003881CD58D040F901E659FB4F80810E94FF
:101DD0000B2D64E670E080E090E00E94BB1AC457CF
:101DE000DF4F2881CC58D040C357DF4F3881CD58C2
:101DF000D040B2E0CB16D10409F03DCF0E9463156C
:101E000089E796E00E94ED1C60E081E00E94442D8D
:101E100089EE91E00E94122D68EC70E080E090E085
:101E20000E94BB1A32C089E796E00E94ED1C60E078
:101E300070E080E090E00E943E1760E081E00E9448
:101E4000442D86EF91E00E94122D61E081E00E9416
:101E5000442D80E092E00E94122D00E010E064E644
:101E600070E080E090E00E94BB1AE2E0EE16F10420
:101E700009F0B5CE64E670E080E090E00E94BB1A05
:101E800089E18093CD040C94670589E796E00E9470
:101E9000ED1C60E081E00E94442D86EF91E00E94FD
:101EA000122D61E070E080E090E00E943E1761E05A
:101EB00081E00E94442D80E092E00E94122D01E01A
:101EC00010E0CDCF60E089E00E94442D81E591E0F3
:101ED0000E94122D8091A904B801E5E68E02600DE2
:101EE000711D112480919C0490E00E9491150E9424
:101EF0000B2D61E081E00E94442D86E591E00E9477
:101F0000122D8091C8040E940B2D61E089E00E948F
:101F1000442D8AE591E00E94122D8091C7040E9411
:101F20000B2D0C944C020436110514F40C94850707
:101F300000E010E00C948507F3E0EF16F10461F483
:101F400025E0A20E8091A404B80135E68302600D5D
:101F5000711D11240C94270386E0E816F10411F09A
:101F60000C942D039BEFA90E8091A404B801A5E663
:101F70008A02600D711D11240C9427030E30110587
:101F800014F40C94430500E010E00C94430508E0C1
:101F900010E0C5CE00E010E028E030E0C3CE29E03C
:101FA00030E0C3CE2AE030E0C3CE22E030E0C3CE42
:101FB000CF93C62F682F87E10E94F7196C2F86E117
:101FC0000E94F7198BE391E00197F1F7CF91089503
:101FD0008E3008F08E508770806487B9369A3699B3
:101FE000FECFA4B185B1B0E0B82B2FEF30E00E9456
:101FF0009E372FEF33E040E050E00E943437822FCD
:102000000895AF92BF92CF92DF92EF92FF920F931B
:102010001F93CF93DF931092C0041092BE041092CE
:10202000B9041092B8041092F8041092BD041092F2
:10203000BC041092BB041092BA041092F2041092E5
:10204000B7041092B6041092BF041092C1042DED93
:10205000C22E20E0D22EC0E0D0E000E010E0FF244D
:10206000F39460E070E081E090E00E94D80FD60128
:102070008C91B2E0CB0ED11C0E94E80F90E00115CC
:10208000110551F420915A0430E028173907C4F59E
:102090002196F092C00434C00130110551F4209112
:1020A0005B0430E0281739075CF52296F092BE04F5
:1020B00027C00230110551F420915C0430E028174C
:1020C00039075CF52496F092B90427C00330110556
:1020D00051F420915D0430E0281739075CF528960B
:1020E000F092B80427C00430110551F420915E0429
:1020F00030E028173907F4F46096F092F8041AC01B
:102100000530110551F420915F0430E0281739079C
:102110008CF4A096F092BD040DC00630110551F468
:102120002091600430E02817390724F4C05CDF4FA9
:10213000F092BC040F5F1F4F0730110509F091CFDB
:102140009BEEC92E90E0D92E07E010E0FF24F39417
:1021500061E070E080E090E00E94D80FF60180819D
:10216000F2E0CF0ED11C0E94E80F90E0073011057D
:1021700059F42091610430E028173907CCF5C05894
:10218000DF4FF092BB0434C00830110551F42091A8
:10219000620430E0281739075CF5D395F092BA0451
:1021A00027C00930110551F42091630430E028174D
:1021B00039075CF5DE5FF092F20427C00A301105A2
:1021C00051F42091640430E02817390754F5DC5F9E
:1021D000F092B70426C00B30110551F4209165042C
:1021E00030E028173907ECF4D85FF092B60419C034
:1021F0000C30110551F42091660430E0281739079E
:1022000084F4D05FF092BF040CC00D30110549F486
:102210002091670430E0281739071CF4D05EF09253
:10222000C1040F5F1F4F0E30110509F091CFE090F0
:10223000C004E092FD04F090BE04F092FC04009112
:10224000B9040093FB041091B8041093FA04B09100
:10225000F804B093F904A091BD04A093F704F091A1
:10226000BC04F093F604E091BB04E093F504709194
:10227000BA047093F4046091F2046093F3045091F3
:10228000B7045093F1044091B6044093F0043091A8
:10229000BF043093EF042091C1042093EE04D09347
:1022A000DA04C093D9049091FF04923041F08091F8
:1022B000FE04813009F044C0933009F041C0CC24C1
:1022C000CA948FE3D82E5601AC1ABD0AE50181E00D
:1022D000B82EBE18B092C004D82EDF18D092BE041B
:1022E000E82EE01AE092B904F82EF11AF092B80440
:1022F000082F0B1B0093F804182F1A1B1093BD0412
:10230000A82FAF1BA093BC04B82FBE1BB093BB0477
:10231000E82FE71BE093BA04F82FF61BF093F204C2
:10232000A82EA51AA092B704B82EB41AB092B6047B
:10233000D82ED31AD092BF04821B8093C10402C04E
:102340001092FE048091CC04813009F06EC1C11559
:1023500008E0D00709F463C10CF099C0C833D10577
:1023600009F457C10CF044C0CC30D10509F4C0C108
:10237000ECF4C430D10509F449C154F4C230D1059C
:1023800009F4AFC10CF033C1219709F4A3C105C210
:10239000C730D10509F437C1C830D10509F4AFC140
:1023A000269709F0FAC180EF9FEFF3C1C831D1053C
:1023B00009F4ACC164F4CF30D10509F492C1C03145
:1023C000D10509F417C12E9709F0E7C11FC1CE311D
:1023D000D10509F48DC124F46C9709F490C1DDC1D5
:1023E000C032D10509F415C1E09709F496C1D5C1F1
:1023F000C03841E0D40709F4B5C1FCF4C038D105B8
:1024000009F4A9C164F4C034D10509F494C1C036FB
:10241000D10509F489C1EC9709F0BFC17EC1C03F65
:10242000D10509F481C1C11561E0D60709F4F4C0F2
:10243000C03CD10509F0B1C185C1C03873E0D707F0
:1024400009F490C17CF4C11592E0D90709F4D5C014
:10245000C115A3E0DA0709F48CC1C03ED14009F0F0
:102460009CC170C1C115E6E0DE0709F489C12CF4F6
:10247000C115D44009F48BC190C1C11517E0D10733
:1024800009F477C1C038D74009F4C6C086C1C11568
:102490005CE3D50709F4C6C00CF056C0CF3F7FE11E
:1024A000D70709F49BC034F5C11590E1D90709F4A9
:1024B000CAC07CF4C115BEE0DB0709F4CBC0C1156E
:1024C000EFE0DE0709F463C1C115DC4009F065C126
:1024D000C1C0C1150CE1D00709F4B5C0C1151EE19A
:1024E000D10709F49CC0C115D84109F056C180E15B
:1024F00090E04FC1C11550E3D50709F481C07CF4C9
:10250000CF3F77E2D70709F469C0CF3F8FE2D80702
:1025100009F464C0C115D04209F48EC03EC1CF3F5A
:10252000A7E3DA0709F45AC02CF4CF3FD34309F4E8
:1025300055C033C1CF3FF9E3DF0709F44FC0CF3FA8
:10254000DB4309F44BC029C1CF3C1FE3D10709F499
:1025500045C024F5CF3F5EE3D50709F43FC06CF4D6
:10256000CF3F7DE3D707D1F1CF378EE3D807B1F165
:10257000CF3FDC4309F011C131C0CF37BFE3DB07E8
:1025800069F124F4CF33DF4349F107C1CF390FE3B9
:10259000D00721F1CF3BDF4309F1FFC0C33F4FE339
:1025A000D407E1F06CF4C73E6FE3D607B9F0CF3E35
:1025B0007FE3D70799F0CF3DDF4309F0EEC00EC0AF
:1025C000C93FAFE3DA0751F024F4C73FDF4331F0EE
:1025D000E4C0CB5FDF43249708F0DFC0933009F0FD
:1025E000DCC08091FE048F5F8093FE04D6C08DEE28
:1025F0009FEFCFC08BEF9FEFCCC085E090E0C9C0CC
:1026000083E190E0C6C08BEE9FEFC3C082EF9FEFE7
:10261000C0C08DEF9FEFBDC083E090E0BAC08EE0F8
:1026200090E0B7C085E190E0B4C0823009F04BC0C3
:102630008091C104813019F484E190E0AAC08091B6
:10264000BF04813019F482E190E0A3C08091B60408
:10265000813019F48CE090E09CC08091B704813007
:1026600009F495C08091F204813009F489C0809109
:10267000BA04813009F47DC08091BB04813009F433
:1026800071C08091BC04813009F465C08091BD04A3
:10269000813009F457C08091F804813009F44BC0AF
:1026A0008091B804813009F43FC08091B904813031
:1026B000A1F18091BE04813049F18091C004813044
:1026C00009F06BC01CC0833009F067C08091C00462
:1026D000813019F48CEE9FEF5CC08091BE04813094
:1026E00019F48EEE9FEF55C08091B904813019F432
:1026F00084EF9FEF4EC08091B804813019F488EFC9
:102700009FEF47C08091F804813019F48AEF9FEF62
:1027100040C08091BD04813019F48CEF9FEF39C027
:102720008091BC04813019F48EEF9FEF32C080910C
:10273000BB04813019F48FEF9FEF2BC08091BA0456
:10274000813029F41092CA041092C90426C08091E5
:10275000F204813019F481E090E01BC08091B7044D
:10276000813019F482E090E014C08091B604813089
:1027700019F484E090E00DC08091BF04813019F419
:1027800086E090E006C08091C104813031F488E099
:1027900090E09093CA048093C904DF91CF911F9178
:1027A0000F91FF90EF90DF90CF90BF90AF90089582
:1027B000CF92DF92EF92FF920F931F93CF93DF930D
:1027C0002DEDC22E20E0D22E00E010E03FE1E32EFE
:1027D000F12C60E070E081E090E00E94D80FF601FB
:1027E0008081F2E0CF0ED11C0E94E80FC82FD0E00C
:1027F0000115110581F480915A0490E08C179D0712
:102800003CF4CE01B7010E948437862F61E012C0EC
:1028100060E081E014C001301105C9F480915B04CF
:1028200090E08C179D074CF4CE01B7010E948437CD
:10283000862F62E00E94592D4CC060E082E00E9429
:10284000442D60E289E796E00E946F1942C0023091
:102850001105C9F480915C0490E08C179D074CF43D
:10286000CE01B7010E948437862F63E00E94592D64
:1028700043C060E083E00E94442D60E289E796E077
:102880000E946F1939C00330110581F480915D04F5
:1028900090E08C179D073CF4CE01B7010E9484376D
:1028A000862F64E038C060E084E03AC0043011054F
:1028B00081F480915E0490E08C179D073CF4CE017A
:1028C000B7010E948437862F65E025C060E085E06F
:1028D00027C00530110581F480915F0490E08C17CA
:1028E0009D073CF4CE01B7010E948437862F66E035
:1028F00012C060E086E014C006301105C1F480917A
:10290000600490E08C179D074CF4CE01B7010E9443
:102910008437862F67E00E94592D09C060E087E068
:102920000E94442D60E289E796E00E946F190F5FD4
:102930001F4F0730110509F04CCF8BEEC82E80E0F9
:10294000D82E07E010E09FE1E92EF12C61E070E065
:1029500080E090E00E94D80FF6018081F2E0CF0E77
:10296000D11C0E94E80FC82FD0E00730110581F478
:102970008091610490E08C179D073CF4CE01B70173
:102980000E948437862F68E012C060E088E014C09F
:1029900008301105C9F48091620490E08C179D07FE
:1029A0004CF4CE01B7010E948437862F69E00E9463
:1029B000592D4CC060E089E00E94442D60E289E717
:1029C00096E00E946F1942C009301105C9F4809148
:1029D000630490E08C179D074CF4CE01B7010E9470
:1029E0008437862F6AE00E94592D43C060E08AE058
:1029F0000E94442D60E289E796E00E946F1939C079
:102A00000A30110581F48091640490E08C179D07D1
:102A10003CF4CE01B7010E948437862F6BE038C0AA
:102A200060E08BE03AC00B30110581F480916504C1
:102A300090E08C179D073CF4CE01B7010E948437CB
:102A4000862F6CE025C060E08CE027C00C301105BB
:102A500081F48091660490E08C179D073CF4CE01D0
:102A6000B7010E948437862F6DE012C060E08DE0D0
:102A700014C00D301105C1F48091670490E08C17EB
:102A80009D074CF4CE01B7010E948437862F6EE07B
:102A90000E94592D09C060E08EE00E94442D60E242
:102AA00089E796E00E946F190F5F1F4F0E301105E6
:102AB00009F04CCFDF91CF911F910F91FF90EF90D4
:102AC000DF90CF9008950F931F93CF93DF930AE683
:102AD00014E0C3E2D0E0F80161918F01CE010E94C1
:102AE000F51C2196C333D105B1F7DF91CF911F912A
:102AF0000F9108950F931F93CF93DF930AE514E08E
:102B0000C0E0D0E0F80161918F01CE010E94F51C78
:102B10002196CF30D105B1F7DF91CF911F910F9161
:102B200008950F931F93CF93DF938B0106971CF4A7
:102B3000C0E5D0E002C0C1E5D0E081E08093AC0503
:102B4000C093CE051092AD051092CF05812F90E075
:102B50000E94062DC80199270E94062D0E94A12DD2
:102B60008091AB058111FCCF81E08093AB05809310
:102B7000AA059FEF9093A9051092A8051092A705AA
:102B80008093860580918605CC0FDD1FC82BC093EE
:102B9000860580918505813051F4109285058091DC
:102BA000860583B906B603FCFACF85EC01C085EE35
:102BB00086BF8091AB058130E1F38091A80581113A
:102BC00003C08091A80501C081E0A7E8B5E024E03A
:102BD00035E0F9019E2F921B981718F49D9191935F
:102BE000F9CF1092590480935804882329F08DE678
:102BF00096E00E94EE1801C080E0DF91CF911F9116
:102C00000F910895CF93DF93CFE9D4E0688185E6F3
:102C10006802B00111246F5F7F4F8091C604680F76
:102C2000711D80919C0490E00E9491158093C204D4
:102C3000698195E66902B00111246F5F7F4F809131
:102C4000C604680F711D80919C0490E00E9491154C
:102C50008093B5048A816091C60470E095E689028C
:102C6000600D711D112480919C0490E00E949115CB
:102C70008093C4048B816091C60470E095E689025C
:102C8000600D711D112480919C0490E00E949115AB
:102C90008093C3048C816091C60470E095E689023C
:102CA000600D711D112480919C0490E00E9491158B
:102CB0008093D1048D816091C60470E095E689020D
:102CC000600D711D112480919C0490E00E9491156B
:102CD0008093AE048E816091C60470E095E689020F
:102CE000600D711D112480919C0490E00E9491154B
:102CF0008093AF048F816091C60470E095E68902ED
:102D0000600D711D112480919C0490E00E9491152A
:102D10008093B40488856091C60470E095E68902CA
:102D2000600D711D112480919C0490E00E9491150A
:102D30008093C80489856091C60470E095E6890295
:102D4000600D711D112480919C0490E00E949115EA
:102D50008093C7048A856091C60470E095E6890275
:102D6000600D711D112480919C0490E00E949115CA
:102D7000809380058B856091C60470E095E689029A
:102D8000600D711D112480919C0490E00E949115AA
:102D90008093FF048C856091C60470E095E68902FB
:102DA000600D711D112480919C0490E00E9491158A
:102DB0008093CC04DF91CF9108950F931F93CF930D
:102DC000DF931F92CDB7DEB78B01069714F480E531
:102DD00001C081E591E09093AC058093CE051092FF
:102DE000AD051092CF05812F90E049830E94062DFA
:102DF000C80199270E94062D4981642F8DE696E02F
:102E00000E943A190E94A12D65E070E080E090E0F8
:102E10000F90DF91CF911F910F910C94BB1A0E94DC
:102E2000442D809100059091010506975CF08091FA
:102E3000020590910305019729F468E089E796E07F
:102E40000E94E41C8091000590910105059754F4BF
:102E50008091020590910305019721F485E094E0AB
:102E60000E94B32C8091020590910305892B29F4CF
:102E700068E089E796E00C94E41C08950E94442DD4
:102E800068E089E796E00C94E41C87E00E94E80F74
:102E90008530D8F084E10E94CE19892BC1F083E1FE
:102EA0000E94CE19892BA9F082E10E94CE19892BAC
:102EB00091F085E10E94CE19892B79F08FE00E9474
:102EC000CE19892B61F087E0089581E0089583E0B1
:102ED000089582E0089586E0089584E0089585E0ED
:102EE0000895CF92DF92EF92FF920F931F93CF93AB
:102EF000DF936C017A018B01C0E0D0E0CE15DF05D5
:102F000089F0D8016D918D01D601ED91FC91019070
:102F1000F081E02DC6010995892B11F47E0102C0D4
:102F20002196ECCFC701DF91CF911F910F91FF90B8
:102F3000EF90DF90CF900895FC01538D448D252FA5
:102F400030E0842F90E0821B930B541710F0CF9643
:102F5000089501970895FC01918D828D981761F075
:102F6000828DDF01A80FB11D5D968C91928D9F5FC0
:102F70009F73928F90E008958FEF9FEF0895FC016B
:102F8000918D828D981731F0828DE80FF11D858D1E
:102F900090E008958FEF9FEF0895FC01918D228DB1
:102FA000892F90E0805C9F4F821B91098F73992736
:102FB000089580ED95E00E94CD1721E0892B09F45A
:102FC00020E0822F0895FC01848DDF01A80FB11D40
:102FD000A35ABF4F2C91848D90E001968F7399274F
:102FE000848FA689B7892C93A089B1898C9180643C
:102FF0008C93938D848D981306C00288F389E02DFD
:1030000080818F7D80830895EF92FF920F931F93AD
:10301000CF93DF93EC0181E0888F9B8D8C8D98138B
:1030200005C0E889F989808185FD24C0F62E0B8DC5
:1030300010E00F5F1F4F0F731127E02E8C8DE812E9
:103040000CC00FB607FCFACFE889F989808185FFAB
:10305000F5CFCE010E94E317F1CF8B8DFE01E80F73
:10306000F11DE35AFF4FF0820B8FEA89FB898081C3
:10307000806207C0EE89FF896083E889F9898081D1
:103080008064808381E090E0DF91CF911F910F9168
:10309000FF90EF900895CF93DF93EC01888D882304
:1030A000C9F0EA89FB89808185FD05C0A889B989B5
:1030B0008C9186FD0FC00FB607FCF5CF808185FF90
:1030C000F2CFA889B9898C9185FFEDCFCE010E94FE
:1030D000E317E7CFDF91CF91089580E090E0892B4F
:1030E00029F00E94D91781110C94000008958430B2
:1030F00039F0863049F0833051F48FB58F7702C0B4
:103100008FB58F7D8FBD089585B58F7D85BD089561
:103110003FB7F8948091780590917905A0917A0550
:10312000B0917B0522B708B600FE05C02F3F19F00D
:103130000196A11DB11D3FBFBA2FA92F982F882737
:10314000820F911DA11DB11DBC01CD0142E0660F92
:10315000771F881F991F4A95D1F7089585ED86BF7F
:1031600006B604FCFDCF1092AB05089540914E05C4
:10317000262F30E0240F311D21323105DCF420915F
:10318000AB052430C9F4FC0180E090E0861758F4C8
:1031900030914E052191DC01A45DBA4FA30FB11D02
:1031A0002C930196F3CF80914E05680F60934E05E6
:1031B00080E0089581E0089582E008950895E09107
:1031C000590480915804E81730F4F0E0EC5FFA4FAE
:1031D000808190E008958FEF9FEF089590915904BA
:1031E00080915804981750F4E92FF0E0EC5FFA4F03
:1031F000208130E09F5F9093590402C02FEF3FEF92
:10320000C90108958091580490E020915904821BCF
:1032100091090895CF92DF92EF92FF920F931F933F
:10322000CF93DF937C01262F972F8A018091AC05E5
:10323000882391F0C62FD72F6E01C40ED51ECC1552
:10324000DD0571F06991D701ED91FC910190F0815C
:10325000E02DC7010995F3CF642F822F0E94B61885
:10326000C801DF91CF911F910F91FF90EF90DF90F8
:10327000CF900895CF93DF931F92CDB7DEB76983C8
:103280002091AC052223D1F02091CF05203240F0CF
:1032900021E030E0FC013383228380E090E015C020
:1032A0008091AD05E82FF0E0E255FA4F99819083C7
:1032B0008F5F8093AD058093CF0505C061E0CE019F
:1032C00001960E94B61881E090E00F90DF91CF91B7
:1032D0000895089580E090E008950E94B937DC01D8
:1032E000ED91FC910190F081E02D09941F920F92D5
:1032F0000FB60F9211242F933F934F935F936F93C9
:103300007F938F939F93AF93BF93EF93FF9380ED42
:1033100095E00E94E317FF91EF91BF91AF919F91CC
:103320008F917F916F915F914F913F912F910F906E
:103330000FBE0F901F9018951F920F920FB60F920D
:1033400011242F938F939F93EF93FF93E091E005C8
:10335000F091E1058081E091E605F091E70582FDBD
:1033600012C090818091E9058F5F8F732091EA05EB
:10337000821751F0E091E905F0E0E053FA4F958FA4
:103380008093E90501C08081FF91EF919F918F911A
:103390002F910F900FBE0F901F901895CF93DF9332
:1033A000282F30E0F901EA53FF4F8491F901EA55E3
:1033B000FF4FD491F901EA57FF4FC491CC2391F00C
:1033C00081110E947718EC2FF0E0EE0FFF1FE458F8
:1033D000FF4FA591B491EC91ED2381E090E021F4B1
:1033E00080E002C080E090E0DF91CF9108951F93CC
:1033F000CF93DF93282F30E0F901EA53FF4F8491F8
:10340000F901EA55FF4FD491F901EA57FF4FC491F2
:10341000CC23C9F0162F81110E947718EC2FF0E011
:10342000EE0FFF1FEE58FF4FA591B4918FB7F894A0
:10343000111105C09C91ED2FE095E92302C0EC919C
:10344000ED2BEC938FBFDF91CF911F910895CF9318
:10345000DF93EC0160E08E810E94F71961E08E81BC
:103460000E94F71960E08E810E94F7198BE891E0C5
:103470000197F1F7DF91CF910895CF93DF9390E01B
:10348000FC01EA55FF4F2491FC01EA57FF4F84915C
:10349000882361F190E0880F991FFC01E859FF4FE4
:1034A000C591D491FC01EE58FF4FA591B4916111E3
:1034B00009C09FB7F8948881209582238883EC9176
:1034C0002E230BC0623061F49FB7F8943881822FAD
:1034D000809583238883EC912E2B2C939FBF06C06D
:1034E0008FB7F894E8812E2B28838FBFDF91CF917F
:1034F00008951F93CF93DF93182FEB0161E00E9493
:103500003D1A209711F460E004C0CF3FD10539F493
:1035100061E0812FDF91CF911F910C94F719E12F7A
:10352000F0E0EA53FF4FE491E33089F038F4E13002
:10353000D1F483B7806183BFCCBF19C0E43069F098
:10354000E63089F485B5806285BDC3BD10C08FB5F6
:1035500080688FBDDBBDCABD0AC08FB580628FBDDC
:10356000D9BDC8BD04C0C038D10594F6CCCFDF9119
:10357000CF911F9108958F929F92AF92BF92CF9259
:10358000DF92EF92FF926B017C010E9488184B0141
:103590005C01C114D104E104F104F1F00E94881827
:1035A000DC01CB0188199909AA09BB09883E93401F
:1035B000A105B10570F321E0C21AD108E108F108B4
:1035C00088EE880E83E0981EA11CB11CC114D104A2
:1035D000E104F10419F7DDCFFF90EF90DF90CF9079
:1035E000BF90AF909F908F9008951F920F920FB64B
:1035F0000F9211242F933F938F939F93AF93BF9379
:103600008091740590917505A0917605B09177052C
:103610003091730523E0230F2D3720F40196A11D6F
:10362000B11D05C026E8230F0296A11DB11D2093F0
:1036300073058093740590937505A0937605B093F8
:1036400077058091780590917905A0917A05B091E0
:103650007B050196A11DB11D809378059093790596
:10366000A0937A05B0937B05BF91AF919F918F9105
:103670003F912F910F900FBE0F901F9018951F92A2
:103680000F920FB60F9211242F933F934F935F9396
:103690006F937F938F939F93AF93BF93EF93FF931A
:1036A00081B1887F803609F499C068F5883209F4C1
:1036B0005BC090F4803109F454C038F4882309F4D5
:1036C000EEC0883009F44DC0EEC0883109F44CC01A
:1036D000803209F45CC0E7C0803409F466C048F465
:1036E000803309F454C0883309F0DDC08093A90504
:1036F000D1C0803509F44EC0883509F45BC08834E8
:1037000009F0D1C0CEC0883909F4C1C0A8F4883707
:1037100009F464C038F4883609F460C0803709F4CD
:103720005DC0C1C0883809F4B2C0803909F45CC0FA
:10373000803809F0B8C058C0803B09F481C038F423
:10374000803A09F462C0883A09F47AC0ACC0803C7F
:1037500009F4A0C0883C09F49DC0883B09F485C0E9
:10376000A2C08091860510C09091A8058091A70500
:10377000981758F5E091A80581E08E0F8093A80571
:10378000F0E0E957FA4F808183B985EC81C08093DE
:10379000A90587C0E091A80581E08E0F8093A80558
:1037A00083B1F0E0E957FA4F80839091A8058091AA
:1037B000A7056AC0E091A80581E08E0F8093A80557
:1037C00083B1F0E0E957FA4F80838091AA05811117
:1037D00068C081E08093850584EA5DC083E08093C2
:1037E000AB0510927205D1CF80917205803208F03E
:1037F0004EC0E091720581E08E0F8093720583B117
:10380000F0E0EE5AFA4F8083C0CF85EC86BF10926D
:10381000AB0580917205803230F4E0917205F0E0E2
:10382000EE5AFA4F10826091720570E0E0915005F7
:10383000F091510582E595E009951092720533C02B
:1038400084E08093AB0510924F0510924E05E091F5
:103850004C05F0914D05099580914E05811105C0EB
:1038600081E080934E0510922C05E0914F0581E098
:103870008E0F80934F05F0E0E45DFA4F808183B9AD
:1038800090914F0580914E05981708F47ECF85E8FA
:1038900086BF09C085EC86BF1092AB0504C01092AC
:1038A000A9050E94AE18FF91EF91BF91AF919F9132
:1038B0008F917F916F915F914F913F912F910F90D9
:1038C0000FBE0F901F901895CF92DF92EF92FF924C
:1038D0000F931F93CF93DF937C016C0187E0C80E99
:1038E000D11CC0E0D0E0062F10E0B8010C2E02C0C1
:1038F000759567950A94E2F76170F60181916F0101
:103900000E94F7192196C430D10579F7C701DF91DC
:10391000CF911F910F91FF90EF90DF90CF900C947B
:10392000271ACF92DF92EF92FF920F931F93CF93BC
:10393000DF93EC01F62E642F8C810E94F7198D81A4
:103940008F3F19F060E00E94F7198F850F2D10E06E
:1039500084FF25C06E0187E0C80ED11CE12CF12C3C
:10396000B8010E2C02C0759567950A94E2F7617054
:10397000F60181916F010E94F719FFEFEF1AFF0A1C
:1039800088E0E816F10461F7CE01DF91CF911F9135
:103990000F91FF90EF90DF90CF900C94271AB80111
:1039A00084E0759567958A95E1F7CE010E94641CC5
:1039B0006F2DCE01DF91CF911F910F91FF90EF906E
:1039C000DF90CF900C94641C41E00E94911C81E038
:1039D00090E0089540E00C94911C61E00E94EA1C84
:1039E0008BE39FE10197F1F708950C9427370C942E
:1039F0001F371F920F920FB60F9211242F933F93F0
:103A00004F935F936F937F938F939F93AF93BF93E6
:103A1000CF93DF93EF93FF938091D7049091D804D5
:103A2000019799F48091D3049091D404C2974CF0FB
:103A30008091D5049091D60401969093D6048093FA
:103A4000D5041092D4041092D3048091CE049091A6
:103A5000CF04019749F480912A0590912B05019696
:103A600090932B0580932A0580912A0590912B0530
:103A700049976CF08091B0049091B10401969093B5
:103A8000B1048093B00410922B0510922A05809106
:103A9000B0049091B104843691056CF08091B20429
:103AA0009091B30401969093B3048093B204109262
:103AB000B1041092B0048091D00481111BC0809198
:103AC000CB049091D1048917A8F49091C50491304A
:103AD00089F49091240521E0290F20932405943640
:103AE00028F08F5F8093CB041092240561E080E082
:103AF0000E94F7198091CB048093D2049091D00456
:103B000091110CC09091D104891740F08091C504A7
:103B1000813021F460E080E00E94F7198091C504B3
:103B2000811104C081E08093D00408C09091D20438
:103B30008091D104981710F41092D00420919B0426
:103B4000C0910205D0910305213019F0C130D10593
:103B5000D9F44091280550912905CA010196909306
:103B60002905809328058091CD0490E0880F991F46
:103B7000481759074CF0809127058F5F80932705E0
:103B80001092290510922805C130D10529F58091A0
:103B9000250590912605AC014F5F5F4F5093260598
:103BA000409325050E976CF08091000590910105DA
:103BB00001969093010580930005109226051092BE
:103BC000250580910005909101050B9764F01092F6
:103BD00001051092000507C0213059F460E080E033
:103BE0000E94F71906C02130C9F38091270585305E
:103BF000ACF380919B04813031F0219741F48091A6
:103C00002705863024F061E080E00E94F71980915A
:103C100027058B3014F010922705FF91EF91DF916B
:103C2000CF91BF91AF919F918F917F916F915F9154
:103C30004F913F912F910F900FBE0F901F901895AD
:103C4000EF92FF920F931F93CF93DF938C0190938A
:103C50007D0580937C0560E081E00E94442DC0E0FA
:103C6000D0E0E12C80E2F82E97010C2E02C03595B1
:103C700027950A94E2F720233123232B11F06FEFCD
:103C800001C06FE589E796E00E94E41C2196CE30E2
:103C9000D10551F7DF91CF911F910F91FF90EF90D8
:103CA00008958F929F92AF92BF92CF92DF92EF9240
:103CB000FF920F931F93CF93DF931F92CDB7DEB781
:103CC0008C016B018091A304B80195E68902600D17
:103CD000711D112480919C0490E00E949115E82EA2
:103CE000F12C8091A604B80195E68902600D711D42
:103CF000112480919C0490E00E949115882E912CB3
:103D000089E796E00E94ED1C87E0C816D10419F4FB
:103D100060E070E006C098E0C916D10431F461E0BB
:103D200070E084E090E00E940F1760E080E00E9465
:103D3000442D84E891E00E94122DC8010E94142DA8
:103D400060E085E00E94442D84EC91E00E94122DF9
:103D50008091A304B80195E68902600D711D1124BC
:103D600080919C0490E00E9491150E940B2D61E0CF
:103D700085E00E94442D0115110591F486E793E03A
:103D80000E94122D6091A60485E66802B0011124FC
:103D900080919C0490E00E9491150E940B2D3EC0E2
:103DA0008DE793E00E94122D8091A604B80195E65C
:103DB0008902600D711D112480919C0490E00E9485
:103DC0009115843608F4E8C08091A604B80195E600
:103DD0008902600D711D112480919C0490E00E9465
:103DE0009115853690F08091A604B80195E6890278
:103DF000600D711D112480919C0490E00E9491152A
:103E000090E0845691090E94142D84E6881691044E
:103E100008F03EC184E893E00E94122D84E10E94E4
:103E2000CE19892BC1F482E10E94CE19892B99F415
:103E300088E0C816D10479F480917E0590917F05C1
:103E4000892B49F4A0900205B090030591E0A916D2
:103E5000B10409F4B1C084E10E94CE19892BB1F4F8
:103E600082E10E94CE19892B89F488E0C816D1041A
:103E700069F480917E0590917F05019739F48091D6
:103E8000020590910305019709F4C1C00E944517EE
:103E9000833001F597E0C916D104E1F48091020561
:103EA000909103050197B1F48FEFE81AF80AE11435
:103EB00091E0F90609F4D5C08091A304B80195E614
:103EC0008902600D711D112480919C044E2D90E09B
:103ED0000E94DD160E944517863059F487E0C81607
:103EE000D10439F48091020590910305019709F4FA
:103EF000BBC00E944517833009F598E0C916D1046C
:103F0000E9F480910205909103050197B9F48FEFD0
:103F1000881A980A9FEF8916910411F008F0B5C02D
:103F20008091A604B80195E68902600D711D1124E7
:103F300080919C04482D90E00E94DD160E94451758
:103F4000863009F0ADC088E0C816D10409F0A8C0D9
:103F50008091020590910305019709F0A1C080911D
:103F6000A604A40141505109B80195E68902600DEB
:103F7000711D112480919C0490E00F90DF91CF91EE
:103F80001F910F91FF90EF90DF90CF90BF90AF9077
:103F90009F908F900C94DD168091A604B80195E651
:103FA0008902600D711D112480919C0490E00E9493
:103FB00091150E940B2D08CF80907104912C84E6FE
:103FC000880E911C89E796E00E94ED1C60E080E07D
:103FD0000E94442D8CE893E00E94122DB0927F0540
:103FE000A0927E0568EE73E080E090E00E94BB1A2C
:103FF0008091A604B80195E68902600D711D112417
:1040000080919C04482D90E00E94DD1624CF4091C1
:104010007104842E912C89E796E049830E94ED1C5F
:1040200060E080E00E94442D8AE993E00E94122D16
:1040300010927F0510927E0568EE73E080E090E0BC
:104040000E94BB1A8091A604B80195E68902600D12
:10405000711D112480919C04498190E00E94DD161D
:1040600015CFE12CF12C28CF8091A304A70141505A
:104070005109B80195E68902600D711D11248091E6
:104080009C0490E00E94DD1634CF812C912C48CF07
:1040900094E68916910409F4C1CE88E893E0BCCE79
:1040A0000F90DF91CF911F910F91FF90EF90DF90D4
:1040B000CF90BF90AF909F908F900895AF92BF9296
:1040C000CF92DF92EF92FF920F931F93CF93DF93E4
:1040D000CDB7DEB72E970FB6F894DEBF0FBECDBFBB
:1040E0007C016B0188E0E9EFF0E0DE0111960190C0
:1040F0000D928A95E1F786E0E1E0F1E0DE011996A4
:1041000001900D928A95E1F78091AA04B70195E696
:104110008902600D711D112480919C0490E00E9421
:104120009115A82E082F8091AB04B70195E689025E
:10413000600D711D112480919C0490E00E949115E6
:10414000B82E182F89E796E00E94ED1C85E0C8166E
:10415000D10419F460E070E006C096E0C916D104FD
:1041600031F461E070E084E090E00E940F1760E0BD
:1041700080E00E94442D84E891E00E94122DC70146
:104180000E94142D60E085E00E94442D86EA93E0B1
:104190000E94122DE1E0F0E0EC0FFD1F8B2D92E06C
:1041A0008902E00DF11D1124868197810E94122D54
:1041B00061E085E00E94442D8EEA93E00E94122D7A
:1041C000EA2DEE0FFF0B81E090E08C0F9D1FE80FB2
:1041D000F91F808191810E94122D0E944517833022
:1041E000E9F496E0C916D104C9F4809102059091D2
:1041F0000305019799F401E00A0D04300CF05CC04E
:104200008091AA04B70195E68902600D711D112401
:1042100080919C04402F90E00E94DD160E9445177B
:104220008630D9F486E0C816D104B9F4809102052D
:1042300090910305019789F44FEF400F1416F4F5A0
:104240008091AA04B70195E68902600D711D1124C1
:1042500080919C0490E00E94DD160E9445178330F7
:10426000E1F485E0C816D104C1F480910205909173
:104270000305019791F411E01B0D14300CF58091AA
:10428000AB04B70195E68902600D711D1124809180
:104290009C04412F90E00E94DD160E944517863055
:1042A000A1F585E0C816D10481F5809102059091B1
:1042B0000305019751F506C001E0A2CF43E0C0CF4E
:1042C00011E0DDCF4FEF410F1416ECF48091AB04F9
:1042D000B70195E68902600D711D112480919C043F
:1042E00090E02E960FB6F894DEBF0FBECDBFDF91E3
:1042F000CF911F910F91FF90EF90DF90CF90BF90E3
:10430000AF900C94DD1643E0E1CF2E960FB6F894F3
:10431000DEBF0FBECDBFDF91CF911F910F91FF90F8
:10432000EF90DF90CF90BF90AF900895CF92DF9243
:10433000EF92FF920F931F93CF93DF931F92CDB70E
:10434000DEB76C017B018091A104B60195E689027C
:10435000600D711D112480919C0490E00E949115C4
:10436000182F8091A204B60195E68902600D711D97
:10437000112480919C0490E00E949115082F89E7F8
:1043800096E00E94ED1C83E0E816F10419F460E069
:1043900070E006C094E0E916F10431F461E070E0E9
:1043A00084E090E00E940F1760E080E00E94442DBE
:1043B00084E891E00E94122DC6010E94142D60E055
:1043C00085E00E94442D8AEC93E00E94122D80919A
:1043D000A104B60195E68902600D711D112480913A
:1043E0009C0490E00E9491150E940B2D61E085E0F5
:1043F0000E94442D82ED93E00E94122D8091A20430
:10440000B60195E68902600D711D112480919C040E
:1044100090E00E9491150E940B2D0E944517833059
:1044200019F583E0E816F104F9F480910205909102
:1044300003050197C9F45DC083E0E816F104C9F0F3
:1044400020E01430E9F48091A104B60195E68902D8
:10445000600D711D112480919C04422F90E02983EE
:104460000E94DD162981122F0E944517863041F7E0
:10447000E3CF8091020590910305019709F73CC0B5
:104480002AEF163F01F30E944517833051F494E060
:10449000E916F10431F4809102059091030501972A
:1044A000D9F10E944517863009F046C084E0E8162D
:1044B000F10409F041C08091020590910305019734
:1044C000D9F58091A20446EF400FB60195E6890226
:1044D000600D711D112480919C0490E00F90DF917C
:1044E000CF911F910F91FF90EF90DF90CF900C94A0
:1044F000DD162AE0210FA7CF1A508091A104B60142
:1045000095E68902600D711D112480919C04412F54
:1045100090E00E94DD1694CF065F8091A204B60160
:1045200095E68902600D711D112480919C04402F35
:1045300090E00E94DD16B5CF0F90DF91CF911F91D3
:104540000F91FF90EF90DF90CF900895BF92CF92A0
:10455000DF92EF92FF920F931F93CF93DF93CDB72C
:10456000DEB764970FB6F894DEBF0FBECDBF8C01E7
:104570006B0184E1E7E0F1E0DE01119601900D921C
:104580008A95E1F780919F04B80195E68902600D54
:10459000711D112480919C0490E00E949115E82ED9
:1045A0008091A004B80195E68902600D711D112467
:1045B00080919C0490E00E949115B82E89E796E0C6
:1045C0000E94ED1CC114D10451F560E070E080E060
:1045D00090E00E940F1701151105D9F560E081E008
:1045E0000E94442D8AED93E00E94122D61E081E04B
:1045F0000E94442D84E891E00E94122D80E090E01A
:104600000E94142D61E088E00E94442D8091C50431
:10461000811115C089EE93E00E94122D10C081E037
:10462000C816D10419F461E070E0D1CF92E0C91648
:10463000D10489F661E070E087E090E0CACF809114
:10464000C504813009F0E2C180EF93E00E94122D91
:10465000DDC180919F04B80195E68902600D711D4E
:10466000112480919C0490E00E949115813019F4EE
:1046700081E090E073C0823019F480E090E26EC077
:10468000833019F481E090E269C0843019F482E04B
:1046900090E064C0853019F480E090E15FC086301E
:1046A00019F482E090E15AC08F3049F460E082E072
:1046B0000E94442D87EF93E00E94122D51C0863155
:1046C00019F480E090E04AC0803119F480EE91E363
:1046D00045C0813119F483EE91E040C0823119F474
:1046E0008FE09CE33BC0833119F483EE91E336C045
:1046F000843119F480EE9DE031C0853119F48CEEDF
:1047000091E02CC0873019F480E098E027C0883011
:1047100019F484E090E022C0893019F484E098E034
:104720001DC08A3019F480E094E018C08B3019F471
:1047300088E090E013C08C3019F488E094E00EC05B
:104740008D3019F480E098E309C08E3019F487E0C9
:1047500090E004C0873121F48FEF9FE30E94201E78
:10476000F12C61E081E00E94442D84E891E00E94F8
:10477000122DC8010E94142D61E088E00E94442D92
:104780008091A004B80195E68902600D711D112485
:1047900080919C0490E00E9491159E012F5F3F4FF5
:1047A000280F311D280F311DF90132978081918129
:1047B0000E94122D0E9445178330F9F4C114D104D0
:1047C000E1F480910205909103050197B1F48FEF18
:1047D000E81AF80A98E1E916F1040CF0F5C08091A6
:1047E0009F04B80195E68902600D711D1124809126
:1047F0009C044E2D90E00E94DD160E9445178630E5
:10480000E9F4C114D104D1F480910205909103051B
:104810000197A1F4A70141505109423051050CF410
:10482000D7C080919F04B80195E68902600D711D83
:10483000112480919C0490E00E94DD16EB2CF12C59
:104840000E944517833001F582E0C816D104E1F4D7
:1048500080910205909103050197B1F48FEFE81A5A
:10486000F80A9BE0E916F1040CF0B5C08091A004B1
:10487000B80195E68902600D711D112480919C0498
:104880004E2D90E00E94DD160E944517863061F49F
:1048900082E0C816D10409F0D8C080910205909139
:1048A0000305019731F49BC082E0C816D10409F0DA
:1048B000CCC08091020590910305019709F0C5C015
:1048C0008091A004B80195E68902600D711D112444
:1048D00080919C0490E00E949115823071F4809147
:1048E0009F04B80195E68902600D711D1124809125
:1048F0009C044EE090E00E94DD168091A004B80177
:1049000095E68902600D711D112480919C0490E050
:104910000E949115833071F480919F04B80195E64F
:104920008902600D711D112480919C044DE090E07E
:104930000E94DD168091A004B80195E68902600D01
:10494000711D112480919C0490E00E94911581308A
:1049500071F480919F04B80195E68902600D711D84
:10496000112480919C0443E090E00E94DD16809128
:10497000A004B80195E68902600D711D1124809193
:104980009C0490E00E949115843008F45EC08091F0
:104990009F04B80195E68902600D711D1124809174
:1049A0009C044FE090E064960FB6F894DEBF0FBE13
:1049B000CDBFDF91CF911F910F91FF90EF90DF90CE
:1049C000CF90BF900C94DD16EE24E394F12C07CF2A
:1049D00048E150E026CFEE24E394F12C47CFA70125
:1049E000415051091416150674F48091A004B801C1
:1049F00095E68902600D711D112480919C0490E060
:104A00000E94DD1656CF4AE050E0EFCF82E0C81694
:104A1000D104D9F40E944517833031F48091020506
:104A200090910305019769F00E944517863069F45B
:104A30008091020590910305019739F41092C50405
:104A400004C081E08093C504EFCF64960FB6F8945C
:104A5000DEBF0FBECDBFDF91CF911F910F91FF90B1
:104A6000EF90DF90CF90BF90089580919D042091AA
:104A70008105309182052130310511F480919E0429
:104A800090E08130910521F4EFE9F4E020E004C0EA
:104A90008630910559F4F8CF21932F5F2D30E1F73F
:104AA00025E32093AC0422E62093AD0482309105E7
:104AB00021F4EFE9F4E02DE004C08730910559F4CA
:104AC000F8CF21932F5F2A31E1F720E42093AC0443
:104AD0002DE62093AD048330910521F4EFE9F4E055
:104AE0002AE104C08830910559F4F8CF21932F5F53
:104AF0002732E1F72BE42093AC0428E72093AD04A0
:104B00008430910521F4EFE9F4E027E204C0893014
:104B1000910559F4F8CF21932F5F2433E1F726E56F
:104B20002093AC0423E82093AD048530910521F453
:104B3000EFE9F4E084E303C00A9759F4F9CF8193D5
:104B40008F5F8134E1F781E68093AC0483E8809342
:104B5000AD0408954F925F926F927F928F929F92D1
:104B6000AF92BF92CF92DF92EF92FF920F931F937B
:104B7000CF93DF931F92CDB7DEB7109284051092CA
:104B8000830581E080939E0480939D044424439494
:104B9000512C772473946AE0662E77E0C72E74E078
:104BA000D72E0AE714E0EAE1AE2EE4E0BE2EF9E1EA
:104BB0008F2EF4E09F2E0E944517E82EF12C81E005
:104BC000E816F10421F49FEF491A590A09C0E4E0FC
:104BD000EE16F10429F4F1E04F1A5108C9F0FBC4B4
:104BE00085E0481651040CF086C481E04816510453
:104BF00009F481C4F2E04F16510409F492C4F3E0C1
:104C00004F16510409F4A4C4F4E04F165104C1F442
:104C10008091840593E0E916F10411F48F5F05C0DB
:104C2000E6E0EE16F10419F481508093840580913A
:104C30008405853610F01092840544E0442E512CF2
:104C400080919D048B3010F070929D0480919D04A2
:104C5000811102C060929D0480919E048B3010F0FF
:104C600070929E0480918405843610F01092840521
:104C700080918305843610F010928305F1E04F1681
:104C80005104F9F489E796E00E94ED1C60E081E0B0
:104C90000E94442D80919E041F928F9380919D04C9
:104CA0001F928F93DF92CF921F930F930E94BE3774
:104CB0008AE794E00E94122D60E070E080E090E0CE
:104CC00022C092E04916510479F589E796E00E94E6
:104CD000ED1C60E081E00E94442D80919E041F92B3
:104CE0008F9380919D041F928F93DF92CF921F9399
:104CF0000F930E94BE378AE794E00E94122D60E075
:104D000070E089E090E00E943E1761E080E00E9440
:104D1000442D809184051F928F93809183051F926B
:104D20008F939F928F9232C0F3E04F165104B9F5E2
:104D300089E796E00E94ED1C60E081E00E94442D2E
:104D400080919E041F928F9380919D041F928F9358
:104D5000DF92CF921F930F930E94BE378AE794E0B1
:104D60000E94122D61E070E080E090E00E943E170A
:104D700061E081E00E94442D809184051F928F9311
:104D8000809183051F928F93BF92AF921F930F93D1
:104D90000E94BE378AE794E00E94122D3AC094E048
:104DA00049165104D9F589E796E00E94ED1C60E0B0
:104DB00081E00E94442D80919E041F928F938091E8
:104DC0009D041F928F93DF92CF921F930F930E94A7
:104DD000BE378AE794E00E94122D61E081E00E94D4
:104DE000442D809184051F928F93809183051F929B
:104DF0008F93BF92AF921F930F930E94BE378AE7A3
:104E000094E00E94122D61E070E089E090E00E9441
:104E10003E170FB6F894DEBF0FBECDBF64E670E05C
:104E200080E090E00E94BB1AF2E0EF16F10409F076
:104E3000C2CE89E796E00E94ED1C0E944517082F1C
:104E400010E061E080E00E94442D8CE294E00E943A
:104E5000122D0130110531F00430110571F700E019
:104E600010E002C001E010E089E796E00E94ED1C2E
:104E700060E080E00E94442D8BE891E00E94122DBA
:104E80002FE9A22E24E0B22EC12CD12CEE24E394E3
:104E9000F12C80918305809379049091790480911D
:104EA0008405981708F002C21092820510928105BD
:104EB0000E943525F501608180917904F5E66F0245
:104EC000B0011124680F711D80919D0490E00E9433
:104ED0009115982E682E712CC114D10409F08FC140
:104EE0000130110509F061C381E068167104A1F475
:104EF00010938205009381050E94352560919F04DF
:104F00008091790495E66902B0011124680F711D42
:104F100080919E0442E017C0E2E06E167104C9F46D
:104F200010938205009381050E94352560919F04AE
:104F300080917904F5E66F02B0011124680F711DAC
:104F400080919E0441E090E00E94DD1621E030E077
:104F500059C084E068167104C9F410938205009367
:104F600081050E94352560919F048091790495E622
:104F70006902B0011124680F711D80919E0445E003
:104F800090E00E94DD1621E030E059C0E5E06E16A9
:104F90007104C9F410938205009381050E943525A0
:104FA00060919F0480917904F5E66F02B0011124AD
:104FB000680F711D80919E0444E090E00E94DD1610
:104FC00021E030E059C020E030E087E0681671044D
:104FD000C9F410938205009381050E9435256091E4
:104FE0009F048091790495E66902B0011124680F4D
:104FF000711D80919E0448E090E00E94DD1621E042
:1050000030E074C0E8E06E167104C9F4F0928205D5
:10501000E09281050E94352560919F04809179047A
:10502000F5E66F02B0011124680F711D80919E0496
:1050300047E090E00E94DD1621E030E074C08AE095
:1050400068167104C9F4F0928205E09281050E940D
:10505000352560919F048091790495E66902B0013D
:105060001124680F711D80919E044BE090E00E9416
:10507000DD1621E030E06FC0EBE06E167104C9F47C
:10508000F0928205E09281050E94352560919F048F
:1050900080917904F5E66F02B0011124680F711D4B
:1050A00080919E044AE090E00E94DD1621E030E00D
:1050B0006AC08DE068167104C9F4F0928205E0922E
:1050C00081050E94352560919F048091790495E6C1
:1050D0006902B0011124680F711D80919E044EE099
:1050E00090E00E94DD1621E030E065C0EEE06E1633
:1050F0007104C9F4F0928205E09281050E94352581
:1051000060919F0480917904F5E66F02B00111244B
:10511000680F711D80919E044DE090E00E94DD16A5
:1051200021E030E060C080E168167104A1F4F092E3
:105130008205E09281050E94352560919F0480914F
:10514000790495E66902B0011124680F711D809100
:105150009E0441E127C2E1E16E167104A1F4F092D0
:105160008205E09281050E94352560919F0480911F
:105170007904F5E66F02B0011124680F711D80916A
:105180009E0440E10FC284E168167104A1F4F0921C
:105190008205E09281050E94352560919F048091EF
:1051A000790495E66902B0011124680F711D8091A0
:1051B0009E0445E1F7C1E5E16E167104A1F4F09299
:1051C0008205E09281050E94352560919F048091BF
:1051D0007904F5E66F02B0011124680F711D80910A
:1051E0009E0444E15CC0232B09F0DFC1F0928205EC
:1051F000E09281050E94352560919F04C8C1E1E0DD
:10520000CE16D10489F50130110509F0CEC11093F5
:10521000820500938105F2E06F16710481F40E940B
:1052200035256091A0048091790495E66902B0016A
:105230001124680F711D80919E0443E0B3C1E3E027
:105240006E16710409F09FC10E9435256091A0047B
:1052500080917904F5E66F02B0011124680F711D89
:1052600080919E0442E09EC10130110529F0F09228
:105270008205E092810504C01093820500938105A8
:105280000E943525F501608180917904F5E66F0271
:10529000B0011124680F711D80919E04492D90E08A
:1052A0000E94DD16809179048F5FF5CD8FEFC81ACB
:1052B000D80A9FEFA91AB90AEDE0CE16D10409F079
:1052C000E8CD89E796E00E94ED1C60E080E00E9456
:1052D000442D8BE394E00E94122D68EC70E080E096
:1052E00090E00E94BB1A01301105E9F083E390E0E1
:1052F0000E94F71C80939C0464E670E080E090E0DC
:105300000F90DF91CF911F910F91FF90EF90DF9061
:10531000CF90BF90AF909F908F907F906F905F9055
:105320004F900C94BB1A1091830510937904CC24F0
:10533000C394D12CE0908405809179048E1508F0F7
:1053400049C010928205109281050E943525609116
:10535000AB0480917904F5E66F02B0011124680F67
:10536000711D80919D0490E00E949115482F90E05E
:10537000D0928205C09281058230910581F40E940D
:1053800035256091AB048091790495E66902B001FE
:105390001124680F711D80919E0443E012C0039791
:1053A00009F008C10E9435256091AB048091790411
:1053B000E5E66E02B0011124680F711D80919E0414
:1053C00042E090E00E94DD16809179048F5F809327
:1053D0007904B0CF1093790401E010E08091790452
:1053E0008E1508F083CF10928205109281050E94DD
:1053F00035256091A00480917904F5E66F02B00133
:105400001124680F711D80919D0490E00E949115F8
:10541000C82ED12C6091A4048091790495E669028C
:10542000B0011124680F711D80919D0490E00E94CD
:105430009115F82E6091A50480917904E5E66E023D
:10544000B0011124680F711D80919D0490E00E94AD
:105450009115109382050093810589830E9435255B
:10546000809179044981F2E0CF16D10421F0F3E074
:10547000CF16D104B1F46091A40495E66902B0019D
:105480001124680F711D80919E0490E00E94DD162A
:105490006091A50480917904E5E66E02B0011124C3
:1054A0001CC0F5E0CF1AD10892E0C916D104E8F487
:1054B0006091A404E5E66E02B0011124680F711D2D
:1054C00080919E0490E00E94DD166091A504809179
:1054D0007904F5E66F02B0011124680F711D809107
:1054E0009E044F2D90E00E94DD16809179048F5F1D
:1054F0008093790473CF80919D0493E0E916F104C1
:1055000011F48F5F05C0E6E0EE16F10419F4815046
:1055100080939D0480919D04853688F110929D04AE
:105520002EC080919E0493E0E916F10411F48F5F80
:1055300005C0E6E0EE16F10419F4815080939E0454
:1055400080919E04853608F47BCB10929E0478CB24
:105550008091830593E0E916F10411F48F5F05C093
:10556000E6E0EE16F10419F48150809383058091F2
:105570008305853608F464CB1092830561CB4424FF
:105580004394512C5DCB0E9435256091A0048091FD
:10559000790495E66902B0011124680F711D8091AC
:1055A0009E04492D90E00E94DD160115110509F0B9
:1055B00079CE5DCE49830E9435256091AB04809100
:1055C0007904E5E66E02B0011124680F711D809127
:1055D0009E044981F6CEF5E04F1651040CF09ACFA7
:1055E00004CB6F927F928F929F92AF92BF92DF9285
:1055F000EF92FF920F931F93CF93DF93CDB7DEB758
:10560000A0970FB6F894DEBF0FBECDBFAE014F5EC0
:105610005F4FCE010196EAE5F4E02FEF1192DC0135
:105620002D93CD01DA011D92AD01B4E0EA36FB07FE
:10563000A9F789E796E00E94ED1C03EC10E07E01DB
:10564000E1E2EE0EF11C0E944517D82E60E070E0FA
:1056500081E090E00E94D80FEDEDAE2EE0E0BE2E8E
:10566000CE0141964C01DE0111963D01F50180818C
:10567000F2E0AF0EB11C0E94E80FD3019C91891794
:1056800008F48C93F4019081981708F48083C80182
:105690000197F1F7FFEF6F1A7F0A3FEF831A930A22
:1056A0008BEEA81680E0B80609F761E070E080E0B4
:1056B00090E00E94D80F6BEE862E60E0962E77E089
:1056C000A72EB12CD4018C91B2E08B0E911C0E94BC
:1056D000E80FE1E0F0E0EC0FFD1FEA0DFB1D90810B
:1056E000891708F48083E1E1F0E0EC0FFD1FEA0D7B
:1056F000FB1D9081981708F48083C8010197F1F78A
:10570000EFEFAE1ABE0AFEE0AF16B104D9F66AE5B5
:1057100074E0CE010196FE0171963191DC014D914C
:10572000CD01232F30E0241B310937FF02C02F5F4A
:105730003F4F35952795240FDB012D93BD01EE15C5
:10574000FF0559F70E94D81361E080E00E94442DC4
:1057500089E494E00E94122DB2E0DB1274CF60E085
:1057600070E080E090E00E94D80FA0960FB6F89409
:10577000DEBF0FBECDBFDF91CF911F910F91FF9084
:10578000EF90DF90BF90AF909F908F907F906F9041
:105790000C947A15CF93DF93EB012091800530E0D4
:1057A000281739070CF4C90144275527421B530B0E
:1057B000BC01841795070CF4BA012C173D072CF097
:1057C000C417D5071CF4EA0101C0E9016115710590
:1057D00019F460E070E003C0161617062CF48CE094
:1057E0000E94791A60E007C06115710539F08CE0FC
:1057F0000E94791A61E08BE00E94F719209721F44A
:1058000060E070E08DE005C0BE018DE01C161D0655
:1058100024F40E94791A60E003C00E94791A61E0C2
:105820008EE0DF91CF910C94F719EF92FF920F93D6
:105830001F93CF93DF93EC01623018F08F8588605F
:105840008F876B8B1C8A80E48D8B80E18E8B80E54B
:105850008F8B61E08C810E943D1A8D818F3F19F002
:1058600061E00E943D1A61E08E810E943D1A7E0136
:1058700087E0E80EF11C00E010E08F8584FD03C096
:1058800084E090E002C088E090E0081719074CF42B
:1058900061E0F70181917F010E943D1A0F5F1F4F68
:1058A000ECCF8BE39DE00197F1F760E08C810E94E3
:1058B000F71960E08E810E94F7198D818F3F19F0F2
:1058C00060E00E94F7196F8564FD1DC063E0CE01A2
:1058D0000E94641C0BE416E4C8010197F1F763E031
:1058E000CE010E94641CC8010197F1F763E0CE016C
:1058F0000E94641C83E592E00197F1F762E0CE011B
:105900000E94641C16C06062CE010E94EA1C8BE4F7
:1059100096E40197F1F76F856062CE010E94EA1C60
:1059200083E592E00197F1F76F856062CE010E94F6
:10593000EA1C6F856062CE010E94EA1C84E0888BBD
:105940006CE0CE010E94EA1CCE010E94ED1C82E0B8
:10595000898B66E0CE01DF91CF911F910F91FF906F
:10596000EF900C94EA1C009769F0FC010190002074
:10597000E9F73197AF01481B590BBC0189E796E065
:105980000C94711780E090E008958F929F92AF92EF
:10599000BF920F931F93CF93DF93CDB7DEB7A1973D
:1059A0000FB6F894DEBF0FBECDBF19A2423008F487
:1059B0004AE08E010F5D1F4F842E912CA12CB12C3B
:1059C000A50194010E945337E62FB901CA01015085
:1059D0001109EA3014F4E05D01C0E95CD801EC93F0
:1059E000232B242B252B61F7C8010E94B32CA196F1
:1059F0000FB6F894DEBF0FBECDBFDF91CF911F91E0
:105A00000F91BF90AF909F908F900895682F8DE673
:105A100096E00C943A19682F70E080E090E04AE03C
:105A20000C94C52C0C94B32CCF92DF92EF92FF9282
:105A3000CF93DF936C01990FEE08FF08F7FE19C0B2
:105A40006DE289E796E00E946F19EC0166277727DF
:105A5000CB016C197D098E099F094AE00E94C52C73
:105A60008C0F9D1FDF91CF91FF90EF90DF90CF9033
:105A700008954AE0C701B601DF91CF91FF90EF9002
:105A8000DF90CF900C94C52C643008F063E09091C7
:105A90008C06691710F06FEF690FE62FF0E0E758FA
:105AA000F94F9489682F690F606889E796E00C9434
:105AB000EA1C982F862F911109C060E00E94442DA6
:105AC00060E289E796E00E946F190895913029F409
:105AD00060E00E94442D61E00DC0923029F460E046
